:1017890012004E121DC97E1B7FA47B677A007D64FF
:101799007C001216C37E007F037BED7A037DC87C33
:1017A900001216C37E107FCC7BF57A037D2C7C0159
:1017B9001216C37E1E7F677BFC7A007D907C011226
:1017C90016C37E007F5E7BFF7A007DF47C011216D2
:1017D900C37E007F6E7401FBFA7D587C021216C32A
:1017E9007E007F867B037A017DBC7C021216C37E54
:1017F9001F7FF57B077A017D207C031216C37E1FAC
:101809007FFC7B0B7A017D847C031216C37E1E7FCD
:10181900037BFF7A037DE87C031216C37FE87E030E
:101829001219DE120057121AD1D220120065302087
:0C183900062021031200361218D180FB9B
:101DC90075840F75FFDE75FFAD121D4E12003E12B0
:101DD900000E121958121F43121FAD121EDF121FD7
:101DE900E6121FD6121FC3121F96121EBC121F0223
:0A1DF900121E9643A880E4F5842230
:101D4E00AF84E4FDFC75840F758A8353A1DFF5849F
:101D5E0075B7B075840F43A120438901758D017548
:101D6E008F01758E040DBD00010CED640F4C70F5E6
:0F1D7E00438902E58930E4FB80007597028F846A
:011D8D002233
:0A003E00AF84E4F58475D1078F84C8
:010048002295
:10000E00AF8475840F75E125E4F5E275E3C4F5ADB3
:10001E0043A4D143A60343A7047580FF7590FF75D3
:07002E00A0FF75B0FF8F84F5
:0100350022A8
:101A5E00C120C12142019F005A4201A10000410153
:021A6E00A300D3
:101BA400AF22E4FCFDFE9001911205F97F2F120E85
:101BB4005EAF21E4FCFDFE9001911205F97F2E1227
:101BC4000E5E7F2F1212E58F227F2E1212E58F21D7
:101BD4007F2D1212E58F237F2C1212E58F207F5761
:101BE4001212E59001A4EFF07F3C1212E59001A5DA
:0B1BF400EEF0A3EFF0301E02C20E2244
:070003007F647E00021F7DF7
:1010CC007F361212E5900170EFF07F371212E59027
:1010DC000181EFF07F381212E5900182EFF0900160
:1010EC00A4E0FF64076008EF640260030211B130F2
:1010FC00017A900182E0FFC3941E402890019FE08A
:10110C00FCA3E0FD94F2EC9400500EE02408F09067
:10111C00019FE03400F00211F090019FECF0A3ED80
:10112C00F00211F0900182E0FFC39419403BEF9460
:10113C001E50369001A2E09F9001A1E09400401354
:10114C0090019FE0FEA3E0FFD394B6EE94004053D1
:10115C000212A690019FE0FEA3E0FFC394ACEE94B4
:10116C0000500302128302122602124520000302D1
:10117C0012BB900182E0D39428501590019FE0FEA1
:10118C00A3E0FF945CEE940040030212A602122628
:10119C0090019FE0FEA3E0FFC394F2EE9400500395
:1011AC0002128380759001A4E0640C600302129615
:1011BC00200103021250900182E0FFC3941E402BC9
:1011CC0090019FE0FCA3E0FD94F2EC9400500DE044
:1011DC002408F090019FE03400F0800890019FEC0F
:1011EC00F0A3EDF09001A1E40212B7900182E0FFB0
:1011FC00C394194044EF941E503F9001A2E09F907D
:10120C0001A1E09400401A90019FE0FEA3E0FFD3FF
:10121C0094B6EE940040030212A690019FEE0212C7
:10122C00B790019FE0FEA3E0FFC394ACEE94005096
:10123C0002804490019FEE807290019FE4F0A374B1
:10124C0096F0806B300068900182E0D394285017A0
:10125C0090019FE0FEA3E0FF945CEE9400400280BE
:10126C003990019FEE804490019FE0FEA3E0FFC304
:10127C0094F2EE9400500DE02408F090019FE034BD
:10128C0000F0802B90019FEE802190019FE0FEA347
:10129C00E0FFD3945CEE9400400DE024FEF090014E
:1012AC009FE034FFF0800890019FEEF0A3EFF03048
:1012BC00200620210312003690019FE0FEA3E0FFE0
:1012CC00E4FCFD9001911205F97F3B120E5E90013A
:0912DC009FE0FEA3E0FF021C5993
:101E670020022B7F511212E5900165EFF09001A33C
:101E7700E06F601A900165E0FFC394194010EFD33B
:0E1E870094FA500A9001A3EFF07E00121BFFA8
:011E9500222A
:07005E00E4FD7F0102066EC4
:07006E00E4FD7F0302066EB2
:07008600E4FD7F0502066E98
:071FF500E4FD7F0402066E0B
:071FFC00E4FD7F0602066E02
:101E03009001A4E0FF64076004EFB40C17C2A6209E
:101E13000221E4900151F0A3F090016CF0A3F09043
:101E23000166800CD2A6E4900151F0A3F090016CFE
:041E3300F0A3F02206
:101A70004101310041013200410133004101340094
:101A80004101350041013600410137004101380074
:101A90004101390041013A0042013B000042013D51
:101AA000000042013F0000420141000042014300AA
:011AB0000035
:10066E00E490018EF0A3F0ED6003020BA4900168FC
:10067E00EFF0121F25900168E064016003020794F9
:10068E00900153E0FEA3E0FFC39492EE9409400361
:10069E0002077CEF94C2EE9401500302077C900196
:1006AE003CE0940290013BE09400501D90016BE001
:1006BE002FF090016AE03EF090013CE004F07006ED
:1006CE0090013BE004F0020B9BE490013BF0A3F0A1
:1006DE0090016AE0C313FEA3E013FF90016AEEF0EF
:1006EE00A3EFF0C394F4EE9401401AE094989001B5
:1006FE006AE09408500FC215C209E4900131F090DF
:10070E000137F0804590016AE0FEA3E0FFC394C27A
:10071E00EE9401401EEF94F4EE94015016900131C8
:10072E00E0C394034008E4F0D215C209801C900186
:10073E00318014900137E0C394034008E4F0D209ED
:10074E00C2158006900137E004F090016AE0FEA326
:10075E00E0FF900153EEF0A3EFF0E490016AF0A3F6
:10076E00F0FCFD9001911205F97F32020B7F900192
:10077E0037E0C394034009E4F0D209C215020B9B83
:10078E00900137020B98900168E064036003020841
:10079E00A590016EE0FEA3E0FFC394C4EE94094061
:1007AE000302088DEF94F4EE9401500302088D902D
:1007BE00013EE0940290013DE09400501D900184B2
:1007CE00E02FF0900183E03EF090013EE004F070E7
:1007DE000690013DE004F0020B9BE490013DF0A376
:1007EE00F0900183E0C313FEA3E013FF900183EEAC
:1007FE00F0A3EFF0C39484EE9403401AE094929029
:10080E000183E09409500FC210C20AE4900132F045
:10081E00A3F0C20A8045900183E0FEA3E0FFC394DB
:10082E00F4EE9401401EEF9484EE94035016900162
:10083E0032E0C394034008E4F0D210C20A801C9048
:10084E0001328014900133E0C394034008E4F0D2E7
:10085E000AC2108006900133E004F0900183E0FE9E
:10086E00A3E0FF90016EEEF0A3EFF0E4900183F0B1
:10087E00A3F0FCFD9001911205F97F34020B7F90DD
:10088E000133E0C394034009E4F0D20AC210020B14
:10089E009B900133020B98900168E064056003029F
:1008AE0009A2900170E0FFC39464400302098AEF2D
:1008BE009400500302098A900140E0940A90013F8F
:1008CE00E09400501E900186E02FF0900185E034F8
:1008DE0000F0900140E004F0700690013FE004F05B
:1008EE00020B9BE490013FF0A3F0900185E0FEA384
:1008FE00E0FF7C007D0A12046C900185EEF0A3EF00
:10090E00F0C39401EE9400401AE09428900185E023
:10091E009400500FC211C20BE4900134F0900138D4
:10092E00F0803BC3900186E09428900185E094000E
:10093E004015900134E094034008E4F0D211C20B4C
:10094E00801C9001348014900138E0C39403400859
:10095E00E4F0D20BC2118006900138E004F0900151
:10096E0086E0FF900170F0E4900185F0A3F0FCFDAD
:10097E00FE9001911205F97F36020B7F900138E04F
:10098E00C394034009E4F0D20BC211020B9B9001F9
:10099E0038020B98900168E064046003020A9D908F
:1009AE000181E0FFC394644003020A85EF94005076
:1009BE0003020A85900142E0940A900141E09400FE
:1009CE00501E900180E02FF090017FE03400F090F7
:1009DE000142E004F07006900141E004F0020B9B2E
:1009EE00E4900141F0A3F090017FE0FEA3E0FF7CD4
:1009FE00007D0A12046C90017FEEF0A3EFF0C39419
:100A0E0001EE9400401AE0942890017FE09400508B
:100A1E000FC212E4900135F0900139F0C20C803B08
:100A2E00C3900180E0942890017FE09400401590DF
:100A3E000135E094034008E4F0D212C20C801C9001
:100A4E0001358014900139E0C394034008E4F0D2DC
:100A5E000CC2128006900139E004F0900180E0FF94
:100A6E00A3F0E490017FF0A3F0FCFDFE9001911243
:100A7E0005F97F37020B7F900139E0C394034009DB
:100A8E00E4F0D20CC212020B9B900139020B98902B
:100A9E000168E064066003020B9B900182E0FFC3D5
:100AAE0094644003020B84EF94005003020B849075
:100ABE000144E0940A900143E09400501E900150CE
:100ACE00E02FF090014FE03400F0900144E004F08C
:100ADE007006900143E004F0020B9BE4900143F09A
:100AEE00A3F090014FE0FEA3E0FF7C007D0A12040C
:100AFE006C90014FEEF0A3EFF0C39401EE94004022
:100B0E001AE0942890014FE09400500FC213E49025
:100B1E000136F090013AF0C20D803BC3900150E0D7
:100B2E00942890014FE094004015900136E0940314
:100B3E004008E4F0D213C20D801C90013680149050
:100B4E00013AE0C394034008E4F0D20DC2138006CC
:100B5E0090013AE004F0900150E0FF900182F0E441
:100B6E0090014FF0A3F0FCFDFE9001911205F97F6C
:100B7E0038120E5E801790013AE0C394034008E4E9
:100B8E00F0D20DC213800690013AE004F030200638
:060B9E00202103120036C5
:010BA400222E
:0A1AB1004200AA00004200000000FD
:1018D100E4900000F0A3F09000AAE0FEA3E0FF90E6
:1018E1000000E0FCA3E0FDC39FEC9E50699000085E
:1018F10075F007ED120636EC75F007A42583F58324
:10190100E0B40139900000E0FEA3E0FF900008750B
:10191100F007120636EE75F007A42583F583E4F08F
:1019210090000275F007EF120636EE75F007A42558
:1019310083F583E0FEA3E0AA06F9120668302006CB
:10194100202103120036900001E004F0708990001C
:0619510000E004F08081BB
:01195700226D
:0E16C30090018EEEF0A3EFF0A3ECF0A3EDF09B
:1016D100E4FFFE90000275F007EF120636EE75F09A
:1016E10007A42583F583E0FCA3E04C6010C3EF94CD
:1016F10018EE940050070FBF00010E80D690018EA6
:10170100E0FCA3E0FD90000275F007EF120636EE53
:1017110075F007A42583F583ECF0A3EDF09001901B
:10172100E0FCA3E0FD90000475F007EF120636EE31
:1017310075F007A42583F583ECF0A3EDF0AD0390DC
:10174100000675F007EF120636EE75F007A4258343
:10175100F583EAF0A3EDF090000875F007EF1206AB
:1017610036EE75F007A42583F583E4F0C39000AB52
:10177100E094189000AAE09400500CA3E004F070EB
:07178100069000AAE004F04D
:01178800223E
:051ABB004201B600002D
:10195800E4FFFEAD8490000275F007EF120636EE44
:1019680075F007A42583F583E4F0A3F090000475CF
:10197800F007EF120636EE75F007A42583F583E429
:10198800F0A3F090000675F007EF120636EE75F03A
:1019980007A42583F583E4F0A3F090000875F00709
:1019A800EF120636EE75F007A42583F583E4F00FF1
:1019B800BF00010EEF64184E709BE4F584758CF936
:1019C800758A2F438810438901438E0243A802D2A7
:0519D8008CAF058F84B7
:0119DD0022E7
:03005700D2AF2203
:03000B000214CB11
:1014CB00C0E0C0F0C083C082C0D075D000C000C0E7
:0714DB0004C005C006C007B4
:1014E200C28D9001B6E4F0A3F09000AAE0FEA3E062
:1014F200FF9001B6E0FCA3E0FDC39FEC9E40030217
:1015020015BB90000275F007ED120636EC75F00778
:10151200A42583F583E0FEA3E04E70030215A79095
:10152200000475F007ED120636EC75F007A425836A
:10153200F583E0FEA3E04E70529001B6E0FEA3E018
:10154200FF90000875F007120636EE75F007A42525
:1015520083F5837401F090000675F007EF120636EA
:10156200EE75F007A42583F583E0FEA3E0FF4E604D
:101572003490000475F007ED120636EC75F007A4FE
:101582002583F583EEF0A3EFF0801A90000475F046
:1015920007ED120636EC75F007A42583F58374FF78
:1015A200F5F01204C19001B7E004F060030214EBFD
:0F15B2009001B6E004F00214EB758CF9758A2FE6
:1015C100D007D006D005D004D000D0D0D082D083AF
:0515D100D0F0D0E03273
:021AC000C12241
:101FAD00AF84E4F58475C00775C32043C04043E694
:051FBD0002C2C38F8485
:011FC20022FC
:03003B000215D6D5
:0D15D600C0E0C0F0C083C082C0D075D00856
:1015E300E5C1131313541F24F4B40D004003021672
:1015F300AD90160275F003A4C58325F0C58373026D
:1016030016290216AD0216290216AD02163202166B
:10161300790216320216790216AD02167D0216AD54
:1016230002168202168E9000ACE4F0A3F0807B9049
:1016330000ADE0FF70059000B08014EFC3948050BC
:101643001B9000B0E02F24B1F582E43400F583E56C
:10165300C2F09000ADE004F0D2C2804E9000ADE045
:10166300FF9000B0E02F24B1F582E43400F583E568
:10167300C2F0D2C28034D2C280309000AC801290CB
:1016830000ACE0FFC39480502180089000ACE014CC
:10169300F0E0FF9000B0E02F24B2F582E43400F5CF
:1016A30083E0F5C29000ACE004F0C2C33020062012
:0516B300210375FFA5F5
:0B16B800D0D0D082D083D0F0D0E03240
:0E1FE600AF84E4F58475D480F5D2F5D38F84F2
:011FF40022CA
:0F1FD600AF8475840175D480E4F5D2F5D38F8480
:011FE50022D9
:101F7D00AB847584017C007D28121F60EFF5D2EED5
:081F8D00540FF5D3AF038F845C
:011F95002229
:101FC300AF84E4F58475E880F5BA75BC3843E7025D
:021FD3008F84F9
:011FD50022E9
:101F2500AB84E4F584900168E0F5BBC2ED9001A7B0
:0D1F350012060500000000D2ECAF038F84FF
:011F4200227C
:03007B00020BA5D0
:100BA500C0E0C0F0C083C082C0D075D000C000C016
:100BB50001C002C003C004C005C006C007C2EDAD38
:100BC500BEACBFE41203B27B3D7A0A79D7783F12F7
:100BD50002979001A71205F9900168E06407600388
:100BE500020C9DD3900167E09419900166E0940092
:100BF5005003020C7D9001A7E0FCA3E0FDA3E0FEFD
:100C0500A3E0FF1203EB900155EEF0A3EFF0C390C4
:100C15000152E09419900151E0940050249001553F
:100C2500E0FEA3E0FF90016DE02FF090016CE03E47
:100C3500F0900152E004F0705A900151E004F08008
:100C450052900151E4F0A3F090016CE0FEA3E0FFA7
:100C55007C007D1912046C90016CEEF0A3EFF0900E
:100C6500016CE0FCA3E0FDEC9000EBF0A3EDF0904F
:100C7500016CE4F0A3F0801B90016CE4F0A3F0900C
:100C85000151F0A3F0900167E004F0700690016651
:100C9500E004F0C2B2020E30900168E0B40137E41E
:100CA500FFFE7DE17C439001A7E0F8A3E0F9A3E016
:100CB500FAA3E0FB120334601840169001A7E0FC8C
:100CC500A3E0FDA3E0FEA3E0FF1203EB9001538038
:100CD5003C9001538042900168E0B40342E4FFFE7A
:100CE5007DFA7C439001A7E0F8A3E0F9A3E0FAA31D
:100CF500E0FB120334601E401C9001A7E0FCA3E05A
:100D0500FDA3E0FEA3E0FF1203EB90016EEEF0A35E
:100D1500EFF0020E3090016EE4F0A3F0020E309079
:100D25000168E0640570547F8E7E847DDF7C43908E
:100D350001A7E0F8A3E0F9A3E0FAA3E0FB1203346E
:100D45006031402F7FF27E417DCF7C3C9001A7E052
:100D5500F8A3E0F9A3E0FAA3E0FB12018E7BC37AC6
:100D6500F5793478C112009D1203EB900170EFF014
:100D7500020E30900170E4F0020E30900168E064DC
:100D8500047051FF7E6C7D137C449001A7E0F8A3AD
:100D9500E0F9A3E0FAA3E0FB1203346030402E7FB4
:100DA5006F7E127D037C3D9001A7E0F8A3E0F9A3D7
:100DB500E0FAA3E0FB12018E7BC37AF5799678C140
:100DC50012009D1203EB900181EFF0805E9001818E
:100DD500E4F08057900168E06406704FFF7E6C7DFB
:100DE500137C449001A7E0F8A3E0F9A3E0FAA3E09F
:100DF500FB1203346030402E7F6F7E127D037C3DF5
:100E05009001A7E0F8A3E0F9A3E0FAA3E0FB120143
:100E15008E7BC37AF5799678C112009D1203EB900B
:100E25000182EFF08005900182E4F09001A712069F
:100E3500050000000030200620210375FFA5D0071E
:100E4500D006D005D004D003D002D001D000D0D038
:090E5500D082D083D0F0D0E0324D
:101F9600AF8475840275E880E4F5BA75BC3843BC35
:061FA600F943E7108F84EF
:011FAC002212
:03009300021B4409
:101B4400C0E0C0F0C083C082C0D075D000C000C067
:0D1B540001C002C003C004C005C006C007E8
:101B6100900187E584F0758402C2EDACBEE41203F6
:101B7100B77BD77AA379D0783F1202979001AB1245
:081B810005F9900187E0F584ED
:101B8900D007D006D005D004D003D002D001D000B0
:0B1B9900D0D0D082D083D0F0D0E0325A
:091AC2004101B3004201B400002F
:101EBC00AF84E4F584F5D8F5D975D84075DA427558
:101ECC00DD4275DC2175FCFF75ECFF43E608C2DED4
:021EDC008F84F1
:011EDE0022E1
:081C590090018EEEF0A3EFF004
:101C6100A3E584F0E4F5847F05FE1219DE9001B34B
:101C7100E0FF90018EE0FCA3E0FD6F7001EC6027B6
:101C810075ECFFE5DD20E60343DD40E5ECB4FF0341
:101C910053DBBFAF05C3E5EC9FFEC374FF9EF5ECBC
:0D1CA1009001B3EFF0D2DE900190E0F584E9
:011CAE002213
:081BFF0090018EEEF0A3EFF05F
:101C0700A3E584F0E4F5847F05FE1219DE9001B4A4
:101C1700E0FEA3E0FF90018EE0FCA3E0FD6F700201
:101C2700EC6E602775FCFFE5DA20E60343DA40E552
:101C3700FCB4FF0353DABFED24FEFFC3E5FC9FF5B9
:101C4700FC9001B4ECF0A3EDF0D2DE900190E0F54A
:011C57008408
:011C58002269
:03004B00021E375B
:0D1E3700C0E0C0F0C083C082C0D075D010E4
:101E4400900188E584F0A31206050000000030DA52
:081E540004C2DA800353D879BF
:0B1E5C00D0D0D082D083D0F0D0E03294
:051ACB004201B800001B
:101F4300AF84E4F584758DF8758B2F4388404389FE
:0C1F530010438E02C2ABC28FC28E8F847E
:011F5F00225F
:0419DE00AB07AA06A3
:1019E20090019312060500000000900197E584F033
:1019F200AF039001B8EAF0A3EFF0E4F5849001910F
:101A0200F0A3F09001B8E0FEA3E0FFC3900192E0E2
:101A12009F900191E09E503D758DF8758B2FC28F7E
:101A2200D28E208F149001931205C47BA07AFD7987
:101A3200027800D31205B350E9C28E9001931206C8
:101A42000500000000900192E004F070B690019150
:0B1A5200E004F080AE900197E0F58406
:011A5D002266
:0512E50090018EEFF006
:1012EA00E4A3F0A3F0A3F0A3F0EF12064213492CF3
:1012FA0013492D13492E13492F13713013583213E2
:10130A005D34134936134937134938134E39134993
:10131A003B13533C13493E13493F13495013495158
:10132A00136752136C5413495613495713495813E8
:10133A004961134962136263134965000013779088
:10134A00018F80269001908021900190801C90014D
:10135A009080179001908012900190800D900190DA
:10136A00800890019080039001907401F090018FA1
:10137A00E0B40116E4F090018EE024B2F582E43480
:10138A0000F583E0FFE4FCFDFE22900190E0B40149
:10139A0028E4F090018EE0FD24B2F582E43400F5F1
:1013AA0083E0FE74B32DF582E43400F583E07C001B
:1013BA002400FFEC3EFEE4FD22900191E0640170FE
:1013CA004FF090018EE024B2F582E43400F583E018
:1013DA00FFE4FCFDFEFBFA7901F8121D01A804A93D
:1013EA0005AA06AB0790018EE024B3F582E4340027
:1013FA00F583E0FEE4FCFD2BFBEA3EFAED39F9EC5D
:10140A0038F890018EE024B4F582E434000214A87E
:10141A00900192E0640160030214BBF090018EE037
:10142A0024B3F582E43400F583E0FFE4FCFDFEFB1F
:10143A00FA7901F8121D01C004C005C006C0079060
:10144A00018EE024B2F582E43400F583E0FFE4FC87
:10145A00FDFEFBFAF97801121D01D003D002D0017A
:10146A00D000EF2BFFEE3AFEED39FDEC38FCA80474
:10147A00A905AA06AB0790018EE024B4F582E434EC
:10148A0000F583E0FEE4FCFD2BFBEA3EFAED39F9B8
:10149A00EC38F890018EE024B5F582E43400F58347
:1014AA00E0FFE4FEEB2FFFEE3AFEED39FDEC38FCEF
:1014BA0022E490018FF0A3F0A3F0A3F0FFFEFDFC5D
:0114CA0022FF
:050E5E00900190EFF08F
:100E6300E4900195F0A3F0A3F0A3F0EF1206420E75
:100E7300C42C0EC42D0EC42E0EC42F0EEC300ED374
:100E8300320ED8340EC4360EC4370EC4380EC939E8
:100E93000EC43B0ECE3C0EC43E0EC43F0EC4500ED9
:100EA300C4510EE2520EE7540EC4560EC4570EC47C
:100EB300580EC4610EC4620EDD630EC46500000EDD
:100EC300F290019580269001968021900196801CD6
:100ED30090019680179001968012900196800D9054
:100EE3000196800890019680039001967401F0901A
:100EF3000195E0B4011D900191A3A3A3E0FF90012C
:100F030090E024B2F582E43400F583EFF0E490013D
:100F130095F022900196E064016003020FA4900112
:100F230091E0FCA3E0FDA3E0FEA3E0FF9001991292
:100F330005F9900190E02401FEE43390019DF0A3B4
:100F4300CEF0900190E0FF90019DE0FAA3E0FBC397
:100F53009F7480F8EA6480984041900199A3A3A309
:100F6300E0FF74B22BF58274003AF583EFF0900141
:100F73009EE024FFF090019DE034FFF0900199E0A2
:100F8300FCA3E0FDA3E0FEA3E0FFE4FB7A01F9F894
:100F93001205139001991205F980A7E4900196F0C8
:100FA30022900197E064016003021032900191E006
:100FB300FCA3E0FDA3E0FEA3E0FF9001991205F975
:100FC300900190E02402FEE43390019DF0A3CEF063
:100FD300900190E0FF90019DE0FAA3E0FBC39F74B2
:100FE30080F8EA6480984041900199A3A3A3E0FFAD
:100FF30074B22BF58274003AF583EFF090019EE012
:1010030024FFF090019DE034FFF0900199E0FCA3F0
:10101300E0FDA3E0FEA3E0FFE4FB7A01F9F812058B
:10102300139001991205F980A7E4900197F022909B
:101033000198E0640160030210C0900191E0FCA3F9
:10104300E0FDA3E0FEA3E0FF9001991205F99001F2
:1010530090E02403FEE43390019DF0A3CEF09001D1
:1010630090E0FF90019DE0FAA3E0FBC39F7480F83A
:10107300EA6480984041900199A3A3A3E0FF74B26E
:101083002BF58274003AF583EFF090019EE024FF84
:10109300F090019DE034FFF0900199E0FCA3E0FDA6
:1010A300A3E0FEA3E0FFE4FB7A01F9F81205139035
:1010B30001991205F980A7E4900198F022E49001C8
:0810C30095F0A3F0A3F0A3F0E7
:0110CB002202
:0400360075FFA5228B
:09004E0075FFDE75FFADD2212221
:03006500C2212293
:101AD100E4FF7E7F9000B2E4F0A3DEFC7E007F7F16
:101AE100E4F523F520F522F5219001911206050078
:101AF10000006E7F30120E5ED2A6C2B290016874F1
:101B010008F0900169F0B5EF04D20F8002C20FD244
:101B11000EE490016AF0A3F0900183F0A3F090012C
:101B210085F0A3F090017FF0A3F090014FF0A3F0B6
:101B3100900151F0A3F090016CF0A3F0900166F0D8
:021B4100A3F00F
:011B4300227F
:101EDF00AF84758402E4F5C8F5C975CBE575CA7092
:101EEF0085CBCD85CACCC2CFC2CA43E70443F70422
:021EFF008F84CE
:011F010022BD
:101F020090018EE584F07584017588807F0A7E00D9
:101F12001219DE5388CF75893043E62090018EE096
:021F2200F58444
:011F2400229A
:03005B0002006838
:03006800C28D3214
:101E960090018EE584F07584027588807F0A7E0045
:101EA6001219DE5388CF75893053E6BF43E680901A
:051EB600018EE0F5843F
:011EBB002204
:03006B00021CAFC5
:0D1CAF00C0E0C0F0C083C082C0D075D0106E
:101CBC0090018DE584F0C28DD2B27584029001A59D
:101CCC00E0FEA3E0FFE4FCFD7B08FAF9F8121D012D
:101CDC00C374609FFF74F09EF5CB8FCA85CBCD8506
:0A1CEC00CACCD2CA90018DE0F58445
:0B1CF600D0D0D082D083D0F0D0E032FC
:03008300021D8ECD
:0D1D8E00C0E0C0F0C083C082C0D075D0108E
:101D9B00AB84C2CFC2CA7584009001687407F0F59A
:101DAB00BBC2ED9001A712060500000000D2ECAFFC
:031DBB00138F84FF
:0B1DBE00D0D0D082D083D0F0D0E03233
:10009600020457E86480F8E933E83360110460F03D
:1000A600ED33EC337009E8FCE9FDEAFEEBFF2204D0
:1000B60060DED3EB9FEA9EE99DE8C2E78CF0C2F7CB
:1000C60095F0400CE8CCF8E9CDF9EACEFAEBCFFB97
:1000D60012042285D0F05804700320D5B3E80470CA
:1000E600075002B2D502046192D5EC0460F7E4CC65
:1000F600C0E0C398F8603B94186008400DD0E0FB60
:10010600020439E4FBFAC9FC8028E830E406E4C9B5
:10011600FBE4CAFCE830E305E4C9CACBFCE85407B3
:100126006010F8C3E913F9EA13FAEB13FBEC13FCBE
:10013600D8F130F52FC3E49CFCEF9BFFEE9AFEED61
:1001460099FDD0E0FBEF4E4D4C701222DB0302040A
:100156005EEC2CFCEF33FFEE33FEED33FDED30E7C6
:10016600EB020439EF2BFFEE3AFEED39FDD0E0FB52
:1001760050130BBB0003020461ED13FDEE13FEEFFB
:0801860013FFEC13FC02043925
:10018E00EC4D6011E8497017ED33EC3304600DE46B
:10019E00FCFFFEFD22E933E8330470F80204571227
:1001AE00042258046009E4CC248150062850090228
:1001BE00046128400302045EC0E0EB4A7044B9803B
:1001CE0006D0E0FB02044DEF4E701CBD8008EBFF25
:1001DE00EAFEE9FD80EBE98DF0A4FEE5F002027780
:1001EE00E9CDF9EAFEEBFFEF89F0A4FCE5F0CE894C
:1001FE00F0A42EFFE435F0CD89F0A42DFEE435F009
:10020E008067EF4E7005BD80D780C3EF8BF0A4AC36
:10021E00F0EE8BF0A42CFCE435F0F8EF8AF0A42C71
:10022E00E5F038FCE433CB8DF0A42CFCE5F03BF884
:10023E00EE8AF0A42CFCE5F038F8E433CF89F0A474
:10024E002CFCE5F038CF3400CE89F0A42FFFE5F07A
:10025E003EFEE433C98DF0A42EFEE5F039CD8AF0D2
:10026E00A42FFFE5F03EFEE43DFD33D0E0FB50074A
:10027E000BBB000F020461EC2CFCEF33FFEE33FEE0
:06028E00ED33FD0204390E
:10029400020461EC5D046005E8590470030204572C
:1002A400120422580460F6EC4860F2EC7004FDFE7F
:1002B400FF22C860DB2481C85009C398600250063D
:1002C40002045E9850CAF582E9294B4A7005AB8254
:1002D40002044D75F0007C1A7880C3EF9BEE9AED12
:1002E40099400DC3EF9BFFEE9AFEED99FDE842F0B5
:1002F400DC23ACF0D0E0FFD0E0FED0E0FDAB822008
:10030400E7101BEB60BAEC2CFCEF33FFEE33FEED91
:1003140033FD020439E803F830E705C0F075F00056
:10032400EF2FFFEE33FEED33FD40B830E7C280AA75
:1003340074F8CC6480CCC86480C8F58204604FC370
:10034400EB9FF5F0EA9E42F0E99D42F0E89C45F00F
:10035400603C501DE5825FFFE582D313CB5BCBF499
:100364002B5582FB50280ABA002409B900200880C2
:100374001DE5825BFBE582D313CF5FCFF4C3132F5C
:100384005582FF50090EBE00050DBD00010CC3EBE4
:100394009FF5F0EA9E42F0E99D42F0E89C45F0604A
:0903A40007CC4820E701B3EC226C
:1003AD0075F020800E75F010800575F0087D007ECB
:1003BD00007F003392D530D5031205A5EC334010E4
:1003CD00EF33FFEE33FEED33FDEC33FCD5F0ED22D4
:0E03DD00E5F0247EA2D513CC92E7CDCEFF2210
:1003EB00EDD2E7CD33EC3392D524814006E4FFFE0A
:1003FB00FDFC22FCE4CFCECDCC24E0501174FF8069
:10040B00EDC3CC13CCCD13CDCE13CECF13CF047005
:07041B00F030D5DE0205A55B
:10042200E9D2E7C933E833F892D5EDD2E7CD33EC20
:0704320033FC5002B2D52299
:10043900EC30E7100FBF000C0EBE00080DBD000424
:100449000BEB6014A2D5EB13FCED92E7FD2274FFD0
:10045900FCFDFEFF22E480F8A2D574FF13FC7D8029
:03046900E480EF3D
:030000000218459E
:0C184500787FE4F6D8FD75812402188C31
:10046C00BC000BBE0029EF8DF084FFADF022E4CC74
:10047C00F875F008EF2FFFEE33FEEC33FCEE9DEC3D
:10048C00984005FCEE9DFE0FD5F0E9E4CEFD22ED83
:10049C00F8F5F0EE8420D21CFEADF075F008EF2FCD
:1004AC00FFED33FD4007985006D5F0F222C398FDBE
:0504BC000FD5F0EA225B
:1004C100C5F0F8A3E028F0C5F0F8E58215827002C6
:0604D1001583E038F02263
:1004D70075F008758200EF2FFFEE33FECD33CDCCDC
:1004E70033CCC58233C5829BED9AEC99E58298405F
:1004F7000CF582EE9BFEED9AFDEC99FC0FD5F0D63C
:10050700E4CEFBE4CDFAE4CCF9A88222B800C1B965
:100517000059BA002DEC8BF084CFCECDFCE5F0CBA3
:10052700F97818EF2FFFEE33FEED33FDEC33FCEBDC
:1005370033FB10D703994004EB99FB0FD8E5E4F997
:10054700FA227818EF2FFFEE33FEED33FDEC33FC84
:10055700C933C910D7059BE99A4007EC9BFCE99A78
:10056700F90FD8E0E4C9FAE4CCFB2275F010EF2FBD
:10057700FFEE33FEED33FDCC33CCC833C810D707BD
:100587009BEC9AE899400AED9BFDEC9AFCE899F8F8
:0E0597000FD5F0DAE4CDFBE4CCFAE4C8F9228B
:0E05A500C3E49FFFE49EFEE49DFDE49CFC2267
:1005B300EB9FF5F0EA9E42F0E99D42F0E89C45F09E
:0105C3002215
:1005C4007401FF3395E0FEFDFCA3A3A3E0CF2FF05D
:1005D400E582158270021583E0CE3EF0E582158235
:1005E40070021583E0CD3DF0E5821582700215831B
:0505F400E0CC3CF02208
:0C05F900ECF0A3EDF0A3EEF0A3EFF02275
:10060500A8828583F0D083D08212061C12061C12A4
:10061500061C12061CE473E493A3C583C5F0C583C9
:10062500C8C582C8F0A3C583C5F0C583C8C582C83F
:0106350022A2
:0C063600A42582F582E5F03583F58322CF
:10064200D083D082F8E4937012740193700DA3A347
:1006520093F8740193F5828883E47374029368605B
:06066200EFA3A3A380DF5B
:060668008A838982E4731D
:101F6000C08475840375C3018EC28FC18C928D911C
:0D1F70000000E596E595AE94AF93D0842275
:101D0100C08475840375C30875C20075C1017480F0
:101D11005E60048A928B9174805A60048E928F91D6
:101D210088C289C18E928F918AC28BC18C928D910A
:101D31008E928594968593957594007593008F91F5
:0D1D41000000AC96AD95AE94AF93D0842217
:10185100021789E493A3F8E493A34003F68001F20D
:1018610008DFF48029E493A3F85407240CC8C33398
:10187100C4540F4420C8834004F456800146F6DF67
:10188100E4800B0102040810204080901A5EE47E7F
:10189100019360BCA3FF543F30E509541FFEE4935C
:1018A100A360010ECF54C025E060A840B8E493A323
:1018B100FAE493A3F8E493A3C8C582C8CAC583CA4E
:1018C100F0A3C8C582C8CAC583CADFE9DEE780BE06
:011AD0000015
:00000001FF
