:101153007A0D006D206C6F61645F6261725F66750A
:101163006C6C0D00786920313520313834203132F0
:10117300370D00786920313520323731203132374D
:101183000D00786920313520333538203132370D61
:1011930000786920313520343436203132370D0060
:1011A3006D206D61696E5F706167650D0078692000
:1011B3003430203020300D007720323030300D00B5
:1011C3006D20646973706C61795F6C6F67696E5FC2
:0611D300706167650D006C
:10132300C10BC109C10CC110C10D4203010000462C
:081333000303000000000000AC
:10133C00AF84E4900358F0A3F075840F758A838F03
:01134C00841C
:01134D00227D
:10124900AF8475840F75E12F75E20175E3C475A448
:10125900017580FF7590FF75A0FF75B0FF75C8FF18
:0B12690075D8FF75E8FF75F8FF8F8453
:011274002257
:04135D0075A89222BB
:10127500AF84E4F584F5C875C90875CAF375CBFF65
:1012850085CBCD85CACC75C804F584759850759104
:061295000575A8908F848E
:01129B002230
:0713560075FFDE75FFAD22FB
:03002300020B6568
:0D0B6500C0E0C0F0C083C082C0D075D010C9
:100B7200900311E584F0E4FBFAA3120E1A000000C0
:100B820000758400209803020D01C298900000E5D0
:100B920099F0900309E0FEA3E0FFC3EE9401400345
:100BA200020CC0900000E0FD640D601D74012FF581
:100BB2008274013EF583EDF090030AE004F07006C2
:100BC200900309E004F0020D01900101E0FF647B53
:100BD2007028A3E06463701BA3E0B46D16A3E0B4B5
:100BE2007011A3E0B4650CA3E0B47D07D20BD20967
:100BF200020C8DC20BC209020C8DEF6428702EFA12
:100C0200FBD390030AE09B900309E09A40737401BE
:100C12002BF58274013AF583E0FF74012BF582749F
:100C2200003AF583EFF00BBB00010A80D49001017A
:100C3200E0646C7052A3E06470704CA3E0645F7077
:100C420046FAFBD390030AE09B900309E09A401F07
:100C520074012BF58274013AF583E0FF74012BF5E0
:100C62008274003AF583EFF00BBB00010A80D49046
:100C72000309E0FEA3E02401F58274003EF583E45B
:100C8200F0C20CD2108004D20CC2107A007B00D3C6
:100C920090030AE09B900309E09A401374012BF53C
:100CA2008274013AF583E4F00BBB00010A80E09004
:100CB200030DE4F0A3F0900309F0A3F08041900348
:100CC20009E0FEA3E0FF90030DE0FCA3E0FDC39F5B
:100CD200EC9E501C74012DF58274013CF583E4F006
:100CE20090030EE004F070D690030DE004F080CE85
:100CF20090030DE4F0A3F0900309F0A3F0C21020DA
:100D02009903020D94C299300F03020D9290030FC2
:100D1200E0FEA3E02401F58274023EF583E0F5993A
:100D2200900310E004F0700690030FE004F02099A5
:100D320013900312120DE5E47B607A09F9F8D312DD
:100D42000DD450EAE47F607E09FDFC900312E0F8C6
:100D5200A3E0F9A3E0FAA3E0FBC3120DD44002D250
:100D620099900312120E1A00000000C390030FE0C4
:100D720094014004E4F0A3F090030BE0FEA3E0FF33
:100D820090030FE0B5160BA3E0B51706D20F800251
:080D9200D20A900311E0F58480
:0B0D9A00D0D0D082D083D0F0D0E03267
:0611D9007B017A03795846
:1011DF00900398E584F0120DA5604E200F14900334
:1011EF000BE0FEA3E0FF90030FE06E7003A3E06F30
:1011FF00602E120DA5FF90030BE475F001120DBECA
:10120F00FC740125F0F58274023CF583EFF0C39076
:10121F00030BE094014004E4F0A3F0300F02C20F7F
:10122F00740129F9E43AFA80AD300A07C20AE4F5ED
:09123F0084D299900398E0F58433
:011248002283
:100F8A00E4900316F0A3F012135612133C121249FE
:100F9A0012135D121275D20AE490030BF0A3F090BB
:100FAA00030FF0A3F0D20F90039B74FFF0A3741108
:100FBA00F0A37453F07B017A0379181208657B0158
:100FCA007A0379181211DF90039B74FFF0A374114E
:100FDA00F0A37456F07A0379181208657B017A0334
:100FEA0079181211DF3010FD12103BEE70F7EF2462
:100FFA00EB601B14601D14601F146021146023141D
:10100A006025146027241070DC12134E80D7121347
:10101A006180D212136280CD12136380C81212C388
:10102A0080C31212E380BE12130380B9120ED0805D
:01103A00B401
:08134E00E4900301F0A3F0227A
:10103B00900303E07002A3E07018900004E024D04A
:10104B00FEE434FF900303F0A3CEF0C2107E007FCA
:10105B001822900305E07002A3E07018900004E0E2
:10106B0024D0FEE434FF900305F0A3CEF0C2107E33
:10107B00007F1922900307E07002A3E07018900024
:10108B0004E024D0FEE434FF900307F0A3CEF0C2BB
:10109B00107E007F1A22900309E07002A3E0701803
:1010AB00900004E024D0FEE434FF900309F0A3CEBB
:0C10BB00F0C2107E007F1B22E4FEFF222A
:011361002269
:011362002268
:011363002267
:1012C30090039B74FFF0A37411F0A37467F07B0188
:1012D3007A0379581208657B017A0379580211DF82
:1012E30090039B74FFF0A37411F0A37476F07B0159
:1012F3007A0379581208657B017A0379580211DF62
:1013030090039B74FFF0A37411F0A37485F07B0129
:101313007A0379581208657B017A0379580211DF41
:100ED00090039B74FFF0A37411F0A37494F07B0152
:100EE0007A0379581208651211D9900303E070044F
:100EF000A3E064017036900305E07004A3E064028F
:100F0000702A900307E07004A3E06403701E90034E
:100F100009E07004A3E06404701290039B74FFF076
:100F2000A37411F0A374A3F07B01805390039B740E
:100F3000FFF0A37411F0A374B0F07B017A03795829
:100F40001208651211D990039B74FFF0A37411F07D
:100F5000A374BBF07A0379581208651211D9E49092
:100F60000303F0A3F0A3F0A3F0A3F0A3F0A3F0A376
:100F7000F090039B74FFF0A37411F0A374C3F07A94
:090F80000379581208651211D919
:010F89002245
:011364002266
:011365002265
:011366002264
:030000000210C724
:0C10C700787FE4F6D8FD75812202110E3E
:100DA500BB010689828A83E0225002E722BBFE024C
:090DB500E32289828A83E493227F
:100DBE00A3F8E0C5F025F0F0E582158270021583E8
:060DCE00E0C838F0E82245
:100DD400EB9FF5F0EA9E42F0E99D42F0E89C45F075
:010DE40022EC
:100DE5007401FF3395E0FEFDFCA3A3A3E0CF2FF034
:100DF500E582158270021583E0CE3EF0E58215820C
:100E050070021583E0CD3DF0E582158270021583F1
:050E1500E0CC3CF022DE
:100E1A00A8828583F0D083D082120E31120E31124D
:100E2A000E31120E31E473E493A3C583C5F0C58372
:100E3A00C8C582C8F0A3C583C5F0C583C8C582C822
:010E4A002285
:10080000E508249BF582E43403F583E00508229093
:10081000039830070390039BE475F001120E8A02DF
:100820000DA52000E97F2ED2008018EF540F2490F0
:10083000D43440D4FF30040BEF24BFB41A0050036B
:100840002461FFE50960021509050CE50C7002053D
:100850000B30070E900398E475F001120E8AEF0238
:100860000E7802129C7403D2078003E4C207F508D5
:10087000900398120EA1E4F509F50BF50CE509605B
:10088000077F2012084380F5750AFFC201C200C22B
:1008900002C203C205C206C20812080FFF700D3063
:1008A00007057F00120854AF0CAE0B22B4255FC2BF
:1008B000D5C20412080FFF24D0B40A00501A75F0F4
:1008C0000A780930D50508B6FF0106C6A426F62029
:1008D000D5047002D20380D924CFB41A00EF50049B
:1008E000C2E5D204020A55D20180C6D20080C0D22D
:1008F0000280BCD2D580BAD20580B47F20120843D2
:100900002002077401B5090040F1120800FF120827
:100910004302087DD208D2068095120800FB120817
:1009200000FA120800F94A4B700679267A0B7BFF11
:1009300020022EE509602A7E008E82758300120E49
:100940004B60060EEE650A70F0C2D5EBC0E0EAC05F
:10095000E0E9C0E0EE120A9CD0E0F9D0E0FAD0E085
:10096000FB120DA5FF60AAEBC0E0EAC0E0E9C0E021
:10097000120843D0E02401F9D0E03400FAD0E0FBC3
:10098000E50A0460DCD50AD980877BFF7A0A79986A
:10099000D202809C791080027908C206C2088008C1
:1009A000D2D5790A8004790AC2D5E50A047002F525
:1009B0000AE4FAFDFEFF120800FC7B082001131276
:1009C0000800FD7B1030000A120800FE120800FF2C
:1009D0007B20EC3382D592D55013C3E43000069FC0
:1009E000FFE49EFEE42001039DFDE49CFCE4CBF8C3
:1009F000C201EC700CCFCECDCCE824F8F870F380B7
:100A000017C3EF33FFEE33FEED33FDEC33FCEB3376
:100A1000FB994002FB0FD8E9EB300105F8D0E0C4A8
:100A200048B201C0E00AEC4D4E4F78207B0070C206
:100A3000EAB50A0040BCC0E0120A9ED0F0D0E02027
:100A40000104C4C0E0C4B201C0F012082CD0F0D53B
:100A5000F0EB02087D120EAA091A5309945808EB0C
:100A60004C08E74209984F09A04409A049090043EE
:080A700009A655098A46098A0E
:100A780045098A470B465008EF2D08F32E09162B17
:100A880008F7230914200B2F2A08AF480000090E85
:100A98003F3F3F00790AA2D5200314300509B91059
:100AA800020404B9080104A2D5200602500104205A
:100AB80002689202B509005034C0E07F2030031963
:100AC8007F30A20272067205500F120AF5C202C2E6
:100AD80006C205C2087F30800F300503E9C0E01266
:100AE8000843300503D0E0F9D0E0B509CC3005174C
:100AF8007F30B9100C1208437F583004077F788084
:100B080003B908031208433002057F2D0208437F0A
:100B1800202008F87F2B2006F322920280CF286E2F
:100B2800756C6C2900D2011208003001F8C20178F6
:100B38000930D50108F60208AF2D5043495812086C
:100B4800002403B405004001E4900B4193120834DB
:0D0B5800743A120834D2037509040209949E
:1010D300020F8AE493A3F8E493A34003F68001F29A
:1010E30008DFF48029E493A3F85407240CC8C3331E
:1010F300C4540F4420C8834004F456800146F6DFED
:10110300E4800B0102040810204080901323E47E46
:10111300019360BCA3FF543F30E509541FFEE493E1
:10112300A360010ECF54C025E060A840B8E493A3A8
:10113300FAE493A3F8E493A3C8C582C8CAC583CAD3
:10114300F0A3C8C582C8CAC583CADFE9DEE780BE8B
:01133B0000B1
:100E4B00BB010CE58229F582E5833AF583E022505C
:100E5B0006E92582F8E622BBFE06E92582F8E222A6
:0D0E6B00E58229F582E5833AF583E49322C0
:100E7800BB010689828A83F0225002F722BBFE0159
:020E8800F32253
:100E8A00F8E0FBA3A3E0F925F0F0E58215827002F1
:070E9A001583E0FA38F02295
:090EA100EBF0A3EAF0A3E9F02252
:100EAA00D083D082F8E4937012740193700DA3A3D7
:100EBA0093F8740193F5828883E4737402936860EB
:060ECA00EFA3A3A380DFEB
:10129C00EFB40A07740D1212A7740A309811A899AA
:1012AC00B8130CC2983098FDA899C298B811F630B2
:0712BC0099FDC299F599228A
:00000001FF
