:100C37006D313042006D313242006D313442006D0A
:100C4700313642006D323042006D323442006D332E
:100C57003242006D3438006D36340053554E004D26
:100C67004F4E0054554500574544005448550046DB
:100C7700524900534154004E4F4E004A414E0046E0
:100C87004542004D415200415052004D4159004AE2
:100C9700554E004A554C0041554700534550004FAB
:100CA7004354004E4F560044454300534554204497
:100CB70041544520414E442054494D452020202091
:100CC70020200057524954494E4720444154412E51
:100CD7002E2E2057414954212020004441544120C1
:100CE7005355434345535346554C4C59205341564E
:100CF7004544004552524F522020202020202020DA
:100D07002020202020202020202000532025732071
:100D170025730D00662025730D007420222573228C
:100D27002025752025750D007869202575202575E6
:100D37002025750D006D2025750D002573200046B3
:100D47004646464646003030303030300025627522
:100D570020202000323025303262750025634D2077
:100D67002000534554204D4F4E54482000534554BE
:100D770020444154452020005345542059454152B1
:100D870020200053455420484F55522020005345FA
:100D970054204D494E5554450053455420414D2F3D
:100DA700504D2000505245535320444F4E45002D7F
:100DB7002D2D2D0025732025303262752C203230E1
:100DC70025303262752025730025326275203A205E
:100DD7002530326275203A2025303262752025632E
:100DE7004D2000253262753A253032627525634DF4
:100DF7000046374639463800323025303262752F83
:100E070025303262752F25303262750078692031BE
:100E17003620313633203339330D007869203136A7
:100E270020323337203339330D00786920313720AA
:100E3700333138203339330D00786920313620318A
:100E47003633203433370D00786920313620323578
:100E570038203433370D0078692031362033363265
:100E6700203433370D00626F6479B0433A2564004C
:100E7700626F6479B0463A256400256400464630BF
:100E870030303000535441474520310053544147D7
:100E970045203200535441474520330053544147BE
:100EA700452034006D206C6F7365202532627520F4
:100EB70025303262752025634D0D006D2077696EF0
:100EC7002025730D006D2073746F6E655F64697301
:100ED700706C617920313333203131382025640D2E
:100EE700006D2073746F6E655F646973706C6179F0
:100EF70020313138203135392025640D006D2073BC
:100F0700746F6E655F646973706C61792031323418
:100F1700203230322025640D006D2073746F6E65AA
:100F27005F646973706C61792031333020323633F6
:100F37002025640D006D2073746F6E655F6469739F
:100F4700706C617920313530203330302025640DC5
:100F5700006D2073746F6E655F646973706C61797F
:100F670020343734203132302025640D006D207352
:100F7700746F6E655F646973706C6179203438379C
:100F8700203135392025640D006D2073746F6E652F
:100F97005F646973706C6179203438332032303480
:100FA7002025640D006D2073746F6E655F6469732F
:100FB700706C617920343830203236362025640D44
:100FC700006D2073746F6E655F646973706C61790F
:100FD70020343532203330362025640D006D2074DF
:100FE7006578745F646973706C61790D00666C6114
:100FF700673A25630020252D356275003844383956
:1010070038390020455252006D206C6F61645F6271
:1010170061725F66756C6C20323230203237352052
:101027003130302030330D00006D20646973706CEF
:1010370061795F6C6F67696E5F706167650D006DE1
:1010470020646973706C61795F6173746572696B31
:101057005F310D006D20646973706C61795F617336
:10106700746572696B5F320D006D20646973706C13
:1010770061795F6173746572696B5F330D006D2011
:10108700646973706C61795F6173746572696B5FB2
:10109700340D004A204C696E006D207365745F75CE
:1010A70069642025730D006D20646973706C617924
:1010B7005F6D61696E5F706167650D00532D482034
:1010C70059616E670059204C690043204461766975
:1010D7006C61007869203430203020300D0078634F
:1010E70020616C6C0D007720313030300D006D20A1
:1010F700646973706C61795F6C6F636B65645F7053
:101107006167650D006D20646973706C61795F6C50
:101117006F67696E5F617474656D7074735F6C651A
:1011270066742025640D006D20646973706C6179A5
:101137005F74656D705F706167650D006D20746524
:101147006D705F756E69745F660D006D2074656DF7
:10115700705F756E69745F630D006D2064697370ED
:101167006C61795F67616D655F706167650D006DC3
:1011770020646973706C61795F6C617365725F700D
:101187006167650D006D20646973706C61795F73C9
:10119700657474696E67735F73637265656E202526
:1011A700642025640D006D2061646A7573745F6245
:1011B70072696768746E6573732025640D006D200E
:1011C700646973706C61795F646174655F74696D7C
:1011D700655F736C696465722025303262752031F2
:1011E7003220310D006D20646973706C61795F6422
:1011F7006174655F74696D655F736C69646572209E
:10120700253032627520333120310D006D2064693D
:1012170073706C61795F646174655F74696D655F34
:10122700736C696465722025303262752033302013
:10123700310D006D20646973706C61795F6461744E
:10124700655F74696D655F736C69646572202530CD
:1012570032627520323920310D006D206469737058
:101267006C61795F646174655F74696D655F736CE8
:101277006964657220253032627520323820310D5D
:10128700006D20646973706C61795F646174655F78
:1012970074696D655F736C696465722025303262AD
:1012A7007520393920300D006D20646973706C61C9
:1012B700795F646174655F74696D655F736C696498
:1012C700657220253032627520353920300D0030A7
:1012D70030302558303000255825582558003030F3
:0F12E70025583030003025583025583025580014
:1037C30042085A00A342085E0189470DEF30304694
:1037D30046303000470DE430303030303000470E93
:1037E3001430304646303000C116C114C117C11F12
:1037F300C11A5208350C370C3C0C410C460C4B0CCF
:10380300500C550C5A0C5EC1124100140041023396
:103813000041086B004E00160C620C660C6A0C6EBD
:103823000C720C760C7A5A0E1C0C7E0C820C860CD5
:103833008A0C8E0C920C960C9A0C9E0CA20CA60C65
:10384300AA0CAE4809700CB20CCA0CE20CFA420086
:103853000400004200060000420008000041000B83
:103863000041000C0041000D0041000E0041000F1B
:1038730000410010004809B9FFFF000000000000EC
:10388300420DFE0000420E37000542085C00004274
:1038930008540000420231000042022F0000420897
:1038A3004B0000420E390000420BC10001420E0CD6
:1038B300000042084D0014420DF807D0420858009A
:1038C3000042086D0078420DED0014420DEB00003C
:0F38D3004200120000420E1000FF420DFC0000E8
:1042BC00AF84E4900E87F0A3F075840F758A838F1A
:0142CC00846D
:0142CD0022CE
:10407F00AF8475840F75E12F75E20175E3C475A4E4
:10408F000175A50175A7CA759C0F759D04E4F59E72
:10409F00759F807580FF7590FF75A0FF75B0FF75D8
:0F40AF00C8FF75D8FF75E8FF75F8FFC2FF8F8453
:0140BE0022DF
:0D432A0075A89243E70143E74043E60A22ED
:10415C00AF84E4F584F5C875C90875CAF375CBFF4F
:10416C0085CBCD85CACC75C804F5847598507591EE
:06417C000575A8908F8478
:01418200221A
:0743480075FFDE75FFAD22D9
:030023000217F5CC
:0D17F500C0E0C0F0C083C082C0D075D0102D
:10180200900E3CE584F0E4FBFAA312286C00000081
:1018120000758400209803021C42C298900011E5D2
:1018220099F0900DFAE0FEA3E0FFC3EE94024003AC
:10183200021C01900011E0FD640D601D74352FF54E
:101842008274023EF583EDF0900DFBE004F0700629
:10185200900DFAE004F0021C42900235E0FF647B36
:101862007028A3E06463701BA3E0B46D16A3E0B418
:101872007011A3E0B4650CA3E0B47D07D216D214B4
:10188200021BCEC216C214021BCEEF6428702EFABF
:10189200FBD3900DFBE09B900DFAE09A40737435F8
:1018A2002BF58274023AF583E0FF74242BF58274DF
:1018B200003AF583EFF00BBB00010A80D4900235A9
:1018C200E0646C704FA3E0646F7049A3E0646170E0
:1018D20043FAFBD3900DFBE09B900DFAE09A401F78
:1018E20074352BF58274023AF583E0FF74242BF5EC
:1018F2008274003AF583EFF00BBB00010A80D490AA
:101902000DFAE0FEA3E02424F58274003EF583E4A0
:10191200F0021BC4900235E0F96473704FA3E064D7
:10192200747049A3E064617043FAFBD3900DFBE04D
:101932009B900DFAE09A401F74352BF58274023A9F
:10194200F583E0FF74242BF58274003AF583EFF0FF
:101952000BBB00010A80D4900DFAE0FEA3E0242420
:10196200F58274003EF583E4F0021BC4E9646770FB
:1019720051900236E064657049A3E064747043FAE2
:10198200FBD3900DFBE09B900DFAE09A401F74355B
:101992002BF58274023AF583E0FF74242BF58274EE
:1019A200003AF583EFF00BBB00010A80D4900DFAE8
:1019B200E0FEA3E02424F58274003EF583E4F00205
:1019C2001BC4E9646C7051900236E064327049A322
:1019D200E064347043FAFBD3900DFBE09B900DFA68
:1019E200E09A401F74352BF58274023AF583E0FFCA
:1019F20074242BF58274003AF583EFF00BBB0001DF
:101A02000A80D4900DFAE0FEA3E02424F58274004B
:101A12003EF583E4F0021BC4E9646C705190023617
:101A2200E064707049A3E0645F7043FAFBD3900DE9
:101A3200FBE09B900DFAE09A401F74352BF58274FF
:101A4200023AF583E0FF74242BF58274003AF583A1
:101A5200EFF00BBB00010A80D4900DFAE0FEA3E088
:101A62002424F58274003EF583E4F0021BC4E96489
:101A7200657051900236E0646E7049A3E064647050
:101A820043FAFBD3900DFBE09B900DFAE09A401FC6
:101A920074352BF58274023AF583E0FF74242BF53A
:101AA2008274003AF583EFF00BBB00010A80D490F8
:101AB2000DFAE0FEA3E02424F58274003EF583E4EF
:101AC200F0021BC4E9646D7051900236E0647070DC
:101AD20049A3E0645F7043FAFBD3900DFBE09B9057
:101AE2000DFAE09A401F74352BF58274023AF583A1
:101AF200E0FF74242BF58274003AF583EFF00BBB00
:101B020000010A80D4900DFAE0FEA3E02424F582BD
:101B120074003EF583E4F0021BC4E9646E705090D9
:101B22000236E064737048A3E0645F7042FAFBD34C
:101B3200900DFBE09B900DFAE09A401F74352BF557
:101B42008274023AF583E0FF74242BF58274003A22
:101B5200F583EFF00BBB00010A80D4900DFAE0FE92
:101B6200A3E02424F58274003EF583E4F08053E977
:101B720064647054900236E06474704CA3E0645F55
:101B82007046FAFBD3900DFBE09B900DFAE09A4071
:101B92001F74352BF58274023AF583E0FF74242B0F
:101BA200F58274003AF583EFF00BBB00010A80D492
:101BB200900DFAE0FEA3E02424F58274003EF58342
:101BC200E4F0C217D21F8004D217C21F7A007B0032
:101BD200D3900DFBE09B900DFAE09A401374352BE5
:101BE200F58274023AF583E4F00BBB00010A80E04F
:101BF200900E03E4F0A3F0900DFAF0A3F080419070
:101C02000DFAE0FEA3E0FF900E03E0FCA3E0FDC3AB
:101C12009FEC9E501C74352DF58274023CF583E4D2
:101C2200F0900E04E004F070D6900E03E004F08011
:101C3200CE900E03E4F0A3F0900DFAF0A3F0C21FD1
:101C4200209903021CD5C299301C03021CD3900EAA
:101C52000AE0FEA3E02435F58274043EF583E0F544
:101C620099900E0BE004F07006900E0AE004F0204A
:101C72009913900E3D122837E47B487A26F9F8D35F
:101C820012282650EAE47F487E26FDFC900E3DE0B5
:101C9200F8A3E0F9A3E0FAA3E0FBC312282640026E
:101CA200D299900E3D12286C00000000C3900E0ADB
:101CB200E094044004E4F0A3F0900E01E0FEA3E0FF
:101CC200FF900E0AE0B5160BA3E0B51706D21C80F2
:091CD20002D215900E3CE0F584ED
:0B1CDB00D0D0D082D083D0F0D0E03217
:0F42DF007F2E1241D08F207F2F1241D08F2122AE
:063D13007B017A0E7987A6
:103D1900900F55E584F012275A604E201C14900E1E
:103D290001E0FEA3E0FF900E0AE06E7003A3E06FCE
:103D3900602E12275AFF900E01E475F00112281027
:103D4900FC743525F0F58274043CF583EFF0C390DB
:103D59000E01E094044004E4F0A3F0301C02C21CFC
:103D6900740129F9E43AFA80AD301507C215E4F572
:093D790084D299900F55E0F58405
:013D8200221E
:1038E300900ECA74FFF0A37410F0A37403F0A374D2
:1038F30006F0A37401F0A3740EF0A37443F0A3E4E1
:10390300F074D0A3F0A3E4F074A0A3F07BFF7A0DCE
:02391300794DEC
:0B391500900EC7EBF0A3EAF0A3E9F06E
:10392000900F5874FFF0A3740DF0A37412F0900E72
:10393000C7E0F9A3E0FAA3E0900F5BC9F0A3EAF0B7
:10394000A3E9F0900ECAE0F9A3E0FAA3E0900F5EBD
:10395000C9F0A3EAF0A3E9F07B017A0E79D5122130
:10396000A17B017A0E79D5123D19900F5874FFF0A2
:10397000A3740DF0A3741BF0900ECDE025E0243568
:10398000F582E43408F583E0FEA3E0AA06F9900F7F
:103990005B74FFF0A3EAF0A3E9F07A0E79D5122167
:1039A000A17B017A0E79D5123D19900F5874FFF062
:1039B000A3740DF0A37421F0900ECEE0F9A3E0FA09
:1039C000A3E0900F5BC9F0A3EAF0A3E9F0900ED159
:1039D000E0FFA3E0900F5ECFF0A3EFF0900ED3E0F6
:1039E000FFA3E0900F60CFF0A3EFF07A0E79D5122D
:0B39F00021A17B017A0E79D5023D1960
:0C3FF200900F7DECF0A3EDF0AD03AC02ED
:103FFE00900F5874FFF0A3740DF0A3742FF0A3EE7E
:10400E00F0A3EFF0900F7DE0FFA3E0900F5DCFF0F7
:10401E00A3EFF0AF05A3ECF0A3EFF07B017A0F79DD
:0D402E007F1221A17B017A0F797F023D19DD
:05434F007E000241AAFE
:1041AA00900F5874FFF0A3740DF0A3743CF0A3EEC3
:1041BA00F0A3EFF07B017A0F79FF1221A17B017A3C
:0641CA000F79FF023D1910
:10327D00E4901143F0A3F0900015E06402705B90B0
:10328D000024E064287019A3E024CE600D14600DB5
:10329D00240260030233A902336302336702336BE6
:1032AD00E4901143F0A3F0901143E0FEA3E0FF245E
:1032BD0024F58274003EF583E070030233A9742473
:1032CD002FF58274003EF583E4F0901144E004F094
:1032DD0070D5901143E004F080CD900015E06403AB
:1032ED007058900024E064287016A3E024CE600C82
:1032FD0014600B240260030233A9805A805C805E47
:10330D00E4901143F0A3F0901143E0FEA3E0FF24FD
:10331D0024F58274003EF583E070030233A9742412
:10332D002FF58274003EF583E4F0901144E004F033
:10333D0070D5901143E004F080CD900015E0640449
:10334D00705A900024E0B4281CA3E024CE600B1426
:10335D00600C240270467F0280067F0380027F048A
:10336D0012434F8037E4901143F0A3F0901143E0E6
:10337D00FEA3E0FF2424F58274003EF583E0601C7B
:10338D0074242FF58274003EF583E4F0901144E02F
:10339D0004F070D8901143E004F080D0E490114314
:1033AD00F0A3F0901143E0FEA3E0FF2424F5827416
:1033BD00003EF583E0601C74242FF58274003EF509
:1033CD0083E4F0901144E004F070D8901143E004D0
:0333DD00F080D0AD
:0133E00022CA
:1039FB00900E8912286C00000000900E8DE584F06B
:103A0B00E4F584208675900E891228377BA07A8680
:103A1B0079017800D31228264061C287E4900E8783
:103A2B00F0A3F0900E88E004F07006900E87E0048F
:103A3B00F0900E87E07003A3E0F470E7D287208745
:103A4B0014900E891228377BA07A8679017800D3DF
:103A5B0012282650E9E4900E87F0A3F0C3900E884D
:103A6B00E0940A900E87E0648094805096A3E00463
:103A7B00F070E9900E87E004F080E175C00775CF18
:103A8B009143C040900E8DE0F584C212E49008691A
:103A9B00F0900852F0900851F0900867F0900DF6F6
:053AAB00F09009B8F0E5
:013AB00022F3
:10427000AF84758401E4F5C8F5C975CBE275CA7AD7
:0A42800085CBCD85CACCD2CA8F844D
:01428A002211
:03007300024251F5
:07425100C0D075D000C007CA
:10425800AF8475840053C0BF43C0408F84C2CFC2AF
:03426800128F842E
:05426B00D007D0D032A5
:10428B0074EF2FF582E43408F583EDF0EFFD7C003D
:09429B007B017A007F20023D83C3
:1041D000900E87EFF0FD7C007B017A007F20123B80
:1041E00060900E87E0246FF582E43408F583E0FFE9
:0141F00022AC
:0F42EE00AE05EFFD7C00EEFB7A007FD0023D8332
:0F42FD00AE05EFFD7C00EEFB7A007FD0023B6048
:103B6000900EC9EFF0A3ECF0A3EDF0A3EAF0A3EB05
:013B7000F064
:103B7100A3E584F0E4F58420C7FD2012FA900ECE6F
:103B8100E0F584900EC9E0FF245C600824D4600451
:103B910024B0700E900ECAE0FCA3E0FDE4FBFA1223
:103BA1003D83E4F58420C7FD2012FA900EC9E09010
:103BB1000849F0900ECAE0FFA3E0900862CFF0A39D
:103BC100EFF0900ECCE0FFA3E0900E12CFF0A3EF48
:103BD100F0D212D220D2C520C7FD2012FA900ECE0B
:103BE100E0F584900EC9E0245C601824D4600C24B4
:103BF100B07016900852E0701080F89009B8E0702B
:093C01000880F8900867E060FA01
:013C0A002297
:023D8300A9078E
:103D8500E4900ECFF0A3F0A3F0A3E584F0E4F5846E
:103D950020C7FD2012FA900849E9F0AF05900862A6
:103DA500ECF0A3EFF0E92455600824DB601A24B099
:103DB500702C900224EAF0A3EBF0D212C220D2C5F7
:103DC500900869E0701880F8AF03900224EAF0A328
:103DD500EFF0D212C220D2C5900DF6E060FA900E37
:043DE500D2E0F584AF
:013DE90022B7
:03003B000212F6B8
:0D12F600C0E0C0F0C083C082C0D075D01031
:10130300C224E5C1131313541F14B40B004003028A
:1013130017B990132375F003A4C58325F0C5837310
:101323000213440213440213690213A60214430274
:1013330014E80217B502157A021590021627021750
:1013430026900849E0F5C253C2FEA220E43342C20C
:10135300C2C5900002E4F0A3F0900000F0A3F09067
:10136300000AF00217BB900849E0FFB4201E900862
:1013730062E0FCA3E0FD64AB4C7007D2C4C212026E
:1013830017BB8DC2900869E4F00217BBEF64D0600D
:10139300030217BB900862A3E0F5C2900DF6E4F0D8
:1013A3000217BB900849E0FFB4202CC3900005E06E
:1013B300940A900004E094005011A3E004F0700636
:1013C300900004E004F0D2C50217BB900004E4F0DF
:1013D300A3F09008698065EFB4D02CC3900007E0B8
:1013E300940A900006E094005011A3E004F0700604
:1013F300900006E004F0D2C50217BB900006E4F0AB
:10140300A3F0900DF68035900849E064A4600302D0
:1014130017BBC3900009E0940A900008E0940050C1
:1014230011A3E004F07006900008E004F0D2C502B6
:1014330017BB900008E4F0A3F09008510402161DB6
:10144300900849E0F96420704A900224E0FEA3E08A
:10145300FF900000E0FCA3E0FDC39FEC9E502A90A8
:101463000863E02DFF900862E03CFE74EF2FF582E5
:1014730074083EF583E0F5C2900001E004F0705873
:10148300900000E004F00217BBD2C4C212900869B6
:101493000217B0E964D060030217BB900224E0FE98
:1014A300A3E0FF900000E0FCA3E0FDC39FEC9E508F
:1014B3002A900863E02DFF900862E03CFE74EF2F52
:1014C300F58274083EF583E0F5C2900001E004F074
:1014D3007006900000E004F00217BBD2C4C2129061
:1014E3000DF60217B0900849E0FFB42029C390001D
:1014F30005E0940A900004E094005011A3E004F086
:101503007006900004E004F0D2C50217BB900004FB
:10151300E4F0A302161DEFB4D029C3900007E094B2
:101523000A900006E094005011A3E004F0700690C6
:101533000006E004F0D2C50217BB900006E4F0A356
:1015430002161D900849E064A460030217BBC39010
:101553000009E0940A900008E094005011A3E0040D
:10156300F07006900008E004F0D2C50217BB9000AB
:1015730008E4F0A302161D900E12E07004A3E064C9
:10158300017005C2C20217BBD2C20217BB90084941
:10159300E0FFB42028C3900005E0940A900004E023
:1015A30094005011A3E004F07006900004E004F0EE
:1015B300D2C50217BB900004E4F0A3805DEFB4D062
:1015C30028C3900007E0940A900006E094005011AD
:1015D300A3E004F07006900006E004F0D2C5021701
:1015E300BB900006E4F0A38031900849E064A46056
:1015F300030217BBC3900009E0940A900008E0942B
:10160300005011A3E004F07006900008E004F0D24B
:10161300C50217BB900008E4F0A3F0D2C4C212D2F3
:10162300240217BB900849E0F96420704F900E1212
:10163300E0FEA3E0FF900002E0FCA3E0FDC39FEC0B
:101643009E5031900863E02DFF900862E03CFE74E9
:101653006F2FF58274083EF583E5C2F0D2C2900085
:1016630003E004F07006900002E004F0900852E4F6
:10167300F00217BBC2C29008520217B0E964D070DF
:1016830052900E12E0FEA3E0FF900002E0FCA3E004
:10169300FDC39FEC9E5031900863E02DFF900862DC
:1016A300E03CFE746F2FF58274083EF583E5C2F0CB
:1016B3009009B8E4F0D2C2900003E004F070069001
:1016C3000002E004F00217BB9009B87401F0C2C233
:1016D3000217BBE964A460030217BB900E12E0FE7D
:1016E300A3E0FF900002E0FCA3E0FDC39FEC9E504B
:1016F3002AAFC274C12DF58274093CF583EFF090D3
:10170300084FF0D2C2900003E004F070069000028C
:10171300E004F0900867E4F00217BBC2C2900867C8
:101723000217B0900849E0FFB4202C900002E0FCBF
:10173300A3E0FD900863E02DFD900862E03CFC749B
:101743006F2DF58274083CF583E5C2F0D2C4C21252
:10175300D2C29008528056EFB4D02F900002E0FE20
:10176300A3E0FF900863E02FFF900862E03EFE7461
:101773006F2FF58274083EF583E5C2F09009B874C3
:1017830001F0D2C4C212D2C2802E900849E0B4A4A0
:1017930027900002E0FEA3E024C1F58274093EF520
:1017A30083E5C2F0D2C4C212D2C29008677401F0BA
:1017B3008006D2248002D22430242A53C0BF43C0DF
:1017C30040C2C5C2C4C2C2C212C224900869740115
:1017D300F0900852F0900DF6F09009B8F09008518F
:0717E300F0900867F0C2C39B
:0B17EA00D0D0D082D083D0F0D0E0320D
:1042CE009008FD7404F0A37430F07D027F0E02425C
:0142DE00EEF1
:103C9700900E36E0FF1200269008EFEFF090022812
:103CA700E0FF1200269008F0EFF090086CE0FF129A
:103CB70000269008F2EFF0900850E0FF12002690DF
:103CC70008F3EFF0900853E0FF1200269008F4EF96
:103CD700F0900866E0FF1200269008F5EFF09008D4
:103CE70068E0FF120026EF4440FF90022BE0FEB48D
:103CF7005006EF4460FF8008EEB44104EF545FFFC5
:0C3D07009008F1EFF07D07E4FF0242EEAF
:102C5C00E4900EC7F0A3F07D07FF1242FD90086FC1
:102C6C00E0FF12430C900E36EFF0900870E0FF126C
:102C7C00430C900228EFF0900871E0FF30E61790BB
:102C8C00086A7401F0EF90022B30E5057450F08067
:102C9C000A7441F08005E490086AF0EF541FFF12AB
:102CAC00430C900868EFF0BF0C1090022BE0B4417D
:102CBC0003E48016900868E0801090022BE09008E6
:102CCC0068B45005E0240C8001E0900847F09008AF
:102CDC0072E0FF12430C90086CEFF0900873E0FF69
:102CEC0012430C900850EFF0900874E0FF12430C64
:102CFC00900853EFF0900875E0FF12430C900866B3
:102D0C00EFF090000BE0FF900853E0B5071890002F
:102D1C000CE0FF900850E0B5070C90000DE0FF9020
:102D2C000866E06F6002D21390000EE0FF90086816
:102D3C00E0FEB5071890000FE0FF900228E0B50701
:102D4C000C900010E0FF900E36E06F6002D22390E2
:102D5C00022BE0FBB4501FEE240CFFE433FE7C008E
:102D6C007D3C122773900228E02FFFEC3E900EC79B
:102D7C00F0A3EFF08028EBB44124900868E0B40C89
:102D8C0002E4F0900868E075F03CA4FF900228E0A3
:102D9C007C002FFEEC35F0900EC7F0A3CEF0900E19
:102DAC00C7E0FAA3E0FB7C007D3CFFAE0212278556
:102DBC00900233EDF07C007D3CAF03AE0212278510
:102DCC0090086BEFF0900850E090000CF0900853D6
:102DDC00E090000BF0900866E090000DF090086811
:102DEC00E090000EF0900228E090000FF0900E366C
:052DFC00E0900010F062
:012E010022AE
:102F9000900861E07043900DF7E004F0D222E0D396
:102FA000940C40037401F0900F5874FFF0A3740D5B
:102FB000F0A37442F0900DF7E025E0241CF582E4C4
:102FC000340EF583E0FEA3E0AA06F9900F5B74FFD0
:102FD000F0A3EAF0A3E90230D0900861E064017048
:102FE00029900DE3E004F0D221E0D3941F40037454
:102FF00001F0900F5874FFF0A3740DF0A37454F017
:10300000900DE3E0900F5B0230D0900861E0640225
:103010007029900E00E004F0D210E0D394634003D6
:103020007463F0900F5874FFF0A3740DF0A3745BF9
:10303000F0900E00E0900F5B0230D0900861E064E9
:10304000037028900E09E004F0D211E0D3940C40F4
:10305000037401F0900F5874FFF0A3740DF0A37483
:1030600054F0900E09E0900F5B8065900861E06479
:103070000470279008EEE004F0D21DE0D3943B40AA
:1030800002E4F0900F5874FFF0A3740DF0A3745491
:10309000F09008EEE0900F5B8036900861E06405E8
:1030A000706C90096EE0FFB450057441F0800AEF37
:1030B000B4410690096E7450F0D21E900F5874FF00
:1030C000F0A3740DF0A37463F090096EE0900F5BB1
:1030D000F07B017A10797F1221A1900ECA74FFF063
:1030E000A3740DF0A3744DF0A37403F0A37401F066
:1030F000A37410F0A3747FF0A37401F0A3E4F0A311
:0E310000F0A374D7F07BFF7A0D7946123915D3
:01310E00229E
:102E0200900861E07043900DF7E014F0D222E0C325
:102E120094015003740CF0900F5874FFF0A3740DDA
:102E2200F0A37442F0900DF7E025E0241CF582E453
:102E3200340EF583E0FEA3E0AA06F9900F5B74FF5F
:102E4200F0A3EAF0A3E9022F51900861E064017057
:102E520029900DE3E014F0D221E0C39401500374F1
:102E62001FF0900F5874FFF0A3740DF0A37454F088
:102E7200900DE3E0900F5B022F51900861E0640235
:102E8200702D900E00E0D394004005E014F0800510
:102E9200E4900E00F0D210900F5874FFF0A3740D5E
:102EA200F0A3745BF0900E00E0900F5B022F519044
:102EB2000861E06403702D900E09E0D39400400590
:102EC200E014F08006900E09740CF0D211900F58A5
:102ED20074FFF0A3740DF0A37454F0900E09E09007
:102EE2000F5B806B900861E06404702D9008EEE047
:102EF200D394004005E014F080069008EE743BF095
:102F0200D21D900F5874FFF0A3740DF0A37454F007
:102F12009008EEE0900F5B8036900861E0640570E7
:102F22006C90096EE0FFB450057441F0800AEFB472
:102F3200410690096E7450F0D21E900F5874FFF043
:102F4200A3740DF0A37463F090096EE0900F5BF030
:102F52007B017A1079BF1221A1900ECA74FFF0A3EF
:102F6200740DF0A3744DF0A37403F0A37401F0A3E5
:102F72007410F0A374BFF0A37401F0A3E4F0A3F003
:0D2F8200A374D7F07BFF7A0D794612391544
:012F8F00221F
:1024A100900861E004F0E070030226B6900861E054
:1024B1006401704AD221900ECA74FFF0A3740DF02A
:1024C100A3744DF0A37403F0A374FFF0A3740DF093
:1024D100A37474F0A37401F0A3E4F0A3F0A37493C4
:1024E100F07BFF7A0D7946123915900F5874FFF081
:1024F100A3740DF0A37454F0900DE30226459008E7
:1025010061E06402704AD210900ECA74FFF0A374A5
:102511000DF0A3744DF0A37403F0A374FFF0A37442
:102521000DF0A3747FF0A37401F0A3E4F0A3F0A372
:102531007493F07BFF7A0D7946123915900F587418
:10254100FFF0A3740DF0A3745BF0900E000226451A
:10255100900861E06403704AD211900ECA74FFF0D2
:10256100A3740DF0A3744DF0A37403F0A374FFF0F2
:10257100A3740DF0A3748AF0A37401F0A3E4F0A393
:10258100F0A37493F07BFF7A0D7946123915900F01
:102591005874FFF0A3740DF0A37454F0900E090267
:1025A1002645900861E06404704BD21DD21E900E46
:1025B100CA74FFF0A3740DF0A3744DF0A37403F07B
:1025C100A374FFF0A3740DF0A37495F0A37401F04C
:1025D100A3E4F0A3F0A37493F07BFF7A0D79461284
:1025E1003915900F5874FFF0A3740DF0A37454F0D3
:1025F1009008EE804F900861E06405704ED21E9005
:102601000ECA74FFF0A3740DF0A3744DF0A374030C
:10261100F0A374FFF0A3740DF0A374A0F0A37401F0
:10262100F0A3E4F0A3F0A37493F07BFF7A0D794655
:10263100123915900F5874FFF0A3740DF0A3746351
:10264100F090096EE0900F5B02271B900861E06437
:10265100067056D21E900ECA74FFF0A3740DF0A33B
:10266100744DF0A37403F0A374FFF0A3740DF0A3F1
:1026710074ABF0A37401F0A3E4F0A3F0A37493F09E
:102681007BFF7A0D7946123915900ECA74FFF0A3BB
:10269100740DF0A3744DF0A37403F0A374FFF0A3C1
:1026A100740DF0A374B6022742900861E0640760DC
:1026B10003022759F0D222900ECA74FFF0A3740DC1
:1026C100F0A3744DF0A37403F0A374FFF0A3740D91
:1026D100F0A37469F0A37401F0A3E4F0A3F0A37470
:1026E10093F07BFF7A0D7946123915900F5874FFDC
:1026F100F0A3740DF0A37442F0900DF7E025E024EF
:102701001CF582E4340EF583E0FEA3E0AA06F990FD
:102711000F5B74FFF0A3EAF0A3E9F07B017A107973
:10272100FF1221A1900ECA74FFF0A3740DF0A374DF
:102731004DF0A37403F0A37401F0A37410F0A3741B
:10274100FFF0A37401F0A3E4F0A3F0A374D7F07B2E
:08275100FF7A0D7946123915DB
:01275900225D
:103AB100302216900DF7E0FF1200269008F4EFF087
:103AC1007D017F051242EEC222302116900DE3E006
:103AD100FF1200269008F3EFF07D017F041242EE01
:103AE100C221301016900E00E0FF1200269008F55A
:103AF100EFF07D017F061242EEC210201103301E4D
:103B01003D900E09E0FF120026301E2490096EE060
:103B1100FE90022BF0EF4440FFEEB45006EF4460FC
:103B2100FF800B90096EE0B44104EF545FFFC21EA9
:103B31009008F1EFF07D017F021242EEC211301DBB
:103B4100169008EEE0FF1200269008F0EFF07D01DC
:0F3B51007F011242EEC21DE4900861F0022C5C6D
:10003E00E4900E36F0900228F0900868F090022BB3
:10004E007450F090086C7401F0900850F0900853C2
:10005E00F0E4900866F090022CF090086A04F0022A
:02006E003C97BD
:10002600EF75F00A84C454F0FEEF75F00A84E5F02B
:020036004EFF7B
:0100380022A5
:0E430C00EFC4540F75F00AA4FEEF540F2EFFFD
:01431A002280
:10368D00122C5C900F5874FFF0A3740DF0A374BB53
:10369D00F0900853E025E0241CF582E4340EF58308
:1036AD00E0FEA3E0AA06F9900F5B74FFF0A3EAF029
:1036BD00A3E9F0900850E0900F5EF0900866E0905E
:1036CD000F5FF090086CE025E02416F582E43400DD
:1036DD00F583E0FEA3E0AA06F9900F6074FFF0A356
:1036ED00EAF0A3E9F07B017A0E79871221A1900E01
:1036FD00CA7401F0A3740DF0A374E4F0A37405F083
:10370D00A37401F0A3740EF0A37487F090085AE02F
:10371D00FFA3E0900ED1CFF0A3EFF090085EE0FF95
:10372D00A3E0900ED3CFF0A3EFF07B017A0D79EFEC
:10373D00123915C213900F5874FFF0A3740DF0A336
:10374D0074D0F0900868E0900F5BF0900228E09044
:10375D000F5CF0900E36E0900F5DF090022BE09034
:10376D000F5EF07B017A0E79871221A1900ECA743B
:10377D0001F0A3740DF0A374E4F0A37405F0A37429
:10378D0001F0A3740EF0A37487F090085AE0FFA324
:10379D00E0900ED1CFF0A3EFF090085FE0242AFE69
:1037AD0090085EE03400900ED3F0A3CEF07B017A4A
:0637BD000E79140239151B
:10007600E4900E41F0A3F0900E83F0A3F0124348F3
:100086001242BC12407F12432A12415C1239FB1203
:100096004270D215E4900E01F0A3F0900E0AF0A380
:1000A600F0D21C90086CF0123542900E0CE0FEA3C4
:1000B600E0FF7C277D101227DAED4C6003020196E3
:1000C60090084BE07002A3E0700D90085CE07002AF
:1000D600A3E07003020196122C5C900F5874FFF097
:1000E600A3740DF0A374EAF0900868E0900F5BF03B
:1000F600900228E0900F5CF090022BE0900F5DF0EC
:100106007B017A0E79431221A1900ECA74FFF0A3E7
:10011600740DF0A374F8F0A37402F0A314F0A374A2
:100126000EF0A37443F0A37401F0A37415F0E4A3D6
:10013600F012390D900F5874FFF0A3740DF0A374EC
:10014600FFF0900866E0900F5BF0900853E0900F88
:100156005CF0900850E0900F5DF07B017A0E7943D9
:100166001221A1900ECA74FFF0A3740DF0A374F8C7
:10017600F0A37402F0A314F0A3740EF0A37443F07A
:10018600A37401F0A37409F0A3E4F0A37414807AB5
:10019600900E0CE0FEA3E0FF7C277D101227DAED1F
:1001A6004C706C900854E07002A3E06062122C5C04
:1001B600900F5874FFF0A3740DF0A374EAF0900842
:1001C60068E0900F5BF0900228E0900F5CF09002E0
:1001D6002BE0900F5DF07B017A0E79431221A190FE
:1001E6000ECA74FFF0A3740DF0A37446F0A3740254
:1001F600F0A314F0A3740EF0A37443F0A3E4F0A3E9
:1002060074BEF0A374FFF0A374FC12390EC21390EF
:100216000E39E07002A3E070030202C9900E0CE0F2
:10022600FEA3E0FF7C277D101227DAED4C60030267
:1002360002C912368D900012E0FEA3E0FFEE6003C5
:100246000202C9EF24FE601F14602B14603714608D
:100256004314604F2405706B900F5874FFF0A3741D
:100266000EF0A374138049900F5874FFF0A3740E18
:10027600F0A37422803A900F5874FFF0A3740EF026
:10028600A37431802B900F5874FFF0A3740EF0A363
:100296007440801C900F5874FFF0A3740EF0A37482
:1002A6004F800D900F5874FFF0A3740EF0A3745E88
:1002B600F07B017A0E79431221A17B017A0E7943F4
:1002C600123D19900854E07002A3E070030204394D
:1002D600900E0CE0FEA3E0FF7C277D101227DAEDDE
:1002E6004C60030204397F361241D0900227EFF0AA
:1002F600900DEDE4F0A3EFF0900BC1E07002A3E0E7
:10030600900F58601874FFF0A3740EF0A3746DF08C
:10031600900DEDE0FFA3E0900F5BCF802874FFF017
:10032600A3740EF0A37477F0900DEDE0FEA3E0FF4A
:100336007C007D091227737D051227DAEF2420FF42
:10034600E43E900F5BF0A3EFF07B017A0E79431247
:1003560021A1900ECA74FFF0A3740DF0A37446F0A9
:10036600A37402F0A314F0A3740EF0A37443F0A3D5
:100376007401F0A3746DF0A374FFF074FC12390DD0
:10038600900231E07002A3E070030204399008582D
:10039600E0FEA3E0FFC3940AEE64809480900F58B9
:1003A60074FF503FF0A3740EF0A37481F0A3EEF037
:1003B600A3EFF07B017A0E79431221A1900ECA7445
:1003C600FFF0A3740EF0A37484F0A37406F0A37474
:1003D60001F0A3740EF0A37443F0A37401F0A374A8
:1003E600318046F0A3740EF0A37481F0900858E0B3
:1003F600FFA3E0900F5BCFF0A3EFF07B017A0E79BD
:10040600431221A1900ECA74FFF0A3740EF0A374D8
:1004160084F0A37406F0A37401F0A3740EF0A37421
:1004260043F0A37401F0A37422F0A3E4F0A37414C0
:1004360012390E900231E07002A3E070030207B990
:10044600900E0CE0FEA3E0FFEE3395E0FDFCE47BAE
:10045600407A9CF9F812403BAC00AD01AE02AF0306
:10046600EC4D4E4F60030207B990084DE0FEA3E045
:10047600FFD39414EE64809480504CEF940FEE6496
:100486008094804042900DEDE0FEA3E0FF9414EED0
:1004960064809480500C900DF87402F0A374BCF044
:1004A60080157C007D82122773EF2494FFEE34F8CA
:1004B600900DF8F0A3EFF0900F5874FFF0A3740EB0
:1004C600F0A3748B0205E590084DE0FEA3E0FFD390
:1004D600940FEE64809480504CEF940AEE648094FE
:1004E600804042900DEDE0FEA3E0FF9414EE6480A0
:1004F6009480500C900DF87401F0A374F4F08015FC
:100506007C007D64122773EF2424FFEE34FA900DED
:10051600F8F0A3EFF0900F5874FFF0A3740EF0A359
:1005260074930205E590084DE0FEA3E0FFD3940A1C
:10053600EE64809480504BEF9405EE648094804086
:1005460041900DEDE0FEA3E0FF9414EE64809480EC
:10055600500C900DF87401F0A3742CF080157C00FB
:100566007D46122773EF24B4FFEE34FB900DF8F0AE
:10057600A3EFF0900F5874FFF0A3740EF0A3749BD2
:10058600805D90084DE0FEA3E0FFD39405EE648005
:100596009480400302061EEF9400EE64809480402F
:1005A60077900DEDE0FEA3E0FF9414EE6480948056
:1005B600500B900DF8E4F0A37464F080157C007D78
:1005C60028122773EF2444FFEE34FD900DF8F0A3B4
:1005D600EFF0900F5874FFF0A3740EF0A374A3F01D
:1005E6007B017A0E79431221A1900ECA74FFF0A303
:1005F600740DF0A37446F0A37404F0A37401F0A381
:10060600740EF0A37443F0A37401F0A37404F0A372
:10061600E4F0A3745012390ED390084EE094009083
:10062600084DE0648094805071E4900231F0A3F0AC
:10063600C3900859E0940A900858E064809480506A
:100646002A122C5C900F5874FFF0A3740EF0A3745A
:10065600ABF0900868E0900F5BF0900228E0900FF6
:100666005CF090022BE0900F5D8019900F5874FF9C
:10067600F0A3740EF0A374C2F0A37401F0A374097E
:10068600F0A37478F07B017A0E79431221A17B01E5
:0A0696007A0E7943123D190207B9EC
:1006A000123FA57C007D0A1227DAED2401FFE43C0D
:1006B000FE900E85F0A3EFF0EE60030207ABEF149F
:1006C000B40A0040030207AB9006D675F003A4C538
:1006D0008325F0C583730206F402070402071302A0
:1006E000072202073102074002074F02075E020796
:1006F0006D02077C900F5874FFF0A3740EF0A37482
:10070000CC020789900F5874FFF0A3740EF0A37405
:10071000E88076900F5874FFF0A3740FF0A3740470
:100720008067900F5874FFF0A3740FF0A3742080BB
:1007300058900F5874FFF0A3740FF0A3743C8049D5
:10074000900F5874FFF0A3740FF0A37458803A9080
:100750000F5874FFF0A3740FF0A37474802B900FE4
:100760005874FFF0A3740FF0A37490801C900F587E
:1007700074FFF0A3740FF0A374AC800D900F587445
:10078000FFF0A3740FF0A374C8F0900DF8E0FFA37E
:10079000E0900F5BCFF0A3EFF07B017A0E7943126C
:1007A00021A17B017A0E7943123D1990084EE02475
:0907B000FFF090084DE034FFF069
:1007B90090022FE07002A3E06033900E0CE0FEA3DC
:1007C900E0FF7C077DD01227DAED4C7020900F589E
:1007D90074FFF0A3740FF0A374E4F07B017A0E792F
:1007E900431221A17B017A0E7943123D1990085CCD
:1007F900E07002A3E07003020B69900E0CE0FEA307
:10080900E0FF7C4E7D201227DAED4C6003020B6974
:100819001242DF900F5874FFF0A3740FF0A374F421
:10082900F0A3E520F07B017A0E79431221A1900E05
:10083900CA74FFF0A3740DF0A374F8F0A37402F066
:10084900A314F0A3740EF0A37443F0A3E4F0A3740B
:1008590064F0E4A3F012390D900BC1E07002A3E03B
:100869007003020984E520643F70417F361241D04C
:10087900900227EFF0900F5874FFF0A3740FF0A3C4
:1008890074FCF0A3EFF07B017A0E79431221A112D7
:1008990038E37F371241D0900229EFF0900F587456
:1008A900FFF0A3740FF0A374FC02097EE520647EB7
:1008B90070417F361241D0900227EFF0900F5874A3
:1008C900FFF0A3740FF0A374FCF0A3EFF07B017A9F
:1008D9000E79431221A11238E37F371241D09002D9
:1008E90029EFF0900F5874FFF0A37410F0A3740A65
:1008F90002097EE52064217F36703E1241D09002C4
:1009090027EFF0900F5874FFF0A37410F0A3740A46
:10091900F0A3EFF07B017A0E79431221A11238E39B
:100929007F371241D0900229EFF0900F5874FFF0F1
:10093900A3740FF0A374FC803C1241D0900227EFFE
:10094900F0900F5874FFF0A37410F0A3740AF0A389
:10095900EFF07B017A0E79431221A11238E37F3738
:100969001241D0900229EFF0900F5874FFF0A37450
:1009790010F0A3740AF0A3EF020B38E520643F706E
:10098900707F361241D0900227EFF0900F5874FF14
:10099900F0A3740FF0A374FCF0900227E075F0093E
:1009A900A4FFAEF07C007D05122785EF2420900F6F
:1009B9005BF07B017A0E79431221A11238E37F376C
:1009C9001241D0900229EFF0900F5874FFF0A374F0
:1009D9000FF0A374FCF0900229E075F009A4FFAEB2
:1009E900F07C007D05122785EF2420900F5B020B18
:1009F90038E520647E70707F361241D0900227EF6F
:100A0900F0900F5874FFF0A3740FF0A374FCF090EA
:100A19000227E075F009A4FFAEF07C007D051227DE
:100A290085EF2420900F5BF07B017A0E7943122128
:100A3900A11238E37F371241D0900229EFF0900FCD
:100A49005874FFF0A37410F0A3740AF0900229E01F
:100A590075F009A4FFAEF07C007D05122785EF240F
:100A690020900F5B020B38E52064217F3670551208
:100A790041D0900227EFF0900F5874FFF0A3741043
:100A8900F0A3740AF0900227E075F009A4FFAEF014
:100A99007C007D05122785EF2420900F5BF07B01F8
:100AA9007A0E79431221A11238E37F371241D0908F
:100AB9000229EFF0900F5874FFF0A3740FF0A3749C
:100AC900FC020B1F1241D0900227EFF0900F5874CF
:100AD900FFF0A37410F0A3740AF0900227E075F0F8
:100AE90009A4FFAEF07C007D05122785EF24209034
:100AF9000F5BF07B017A0E79431221A11238E37F53
:100B0900371241D0900229EFF0900F5874FFF0A3EB
:100B19007410F0A3740AF0900229E075F009A4FF9B
:100B2900AEF07C007D05122785EF2420900F5BF045
:100B39007B017A0E79431221A1900ECA74FFF0A3AA
:100B49007410F0A37403F0A37406F0A37401F0A366
:100B5900740EF0A37443F0A37401F07452123906B1
:100B6900201F03020C26121CE6EE6003020C26EF7E
:100B790012289D0BBF0B0BC4150BC9160BCE170BF7
:100B8900D3180BD8190BDD1A0BE21B0BE7280BEC5A
:100B9900290BF12A0BF62B0BFB2C0C00320C05331D
:100BA9000C0A340C0F350C14360C19370C1E380C82
:100BB900233900000C261200038062123EB1805DC9
:100BC9001200398058123E5080531241F1804E1262
:100BD900421180491242318044122A08803F123F53
:100BE90009803A123DEA80351240BF80301240FD3B
:100BF900802B123F578026124340802112433780B1
:100C09001C12431B80171242A4801212412D800D21
:100C19001233E1800812310F8003123542900E0D14
:0E0C2900E004F07006900E0CE004F00200B043
:10000300900F5874FFF0A37410F0A3740FF07B01EA
:100013007A0E79871221A17B017A0E7987023D1925
:101CE600900024E0FD646C704AA3E0646F7044A326
:101CF600E0B4613FE490085CF0A3F0900854F0A3D0
:101D0600F0900231F0A3F090022FF0A3F0900E397C
:101D1600F0A3F090084BF0A3F0900BC1F0A304F0F1
:101D2600E4900DFEF0A3F0900012F0A3F0C21FFEA7
:101D36007F0B22EDB46718900025E0B46511A3E08F
:101D4600B4740CA3E0B45F07C21F7E007F342290F8
:101D56000024E0B47316A3E0B47411A3E0B4610CDC
:101D6600A3E0B47207C21F7E007F3522900024E0F4
:101D7600646C6003021E0EA3E064326003021E0E52
:101D8600A3E064346003021E0EA3E0643170799010
:101D9600002AE0FB7013900029E024D0FEE434FF13
:101DA60090086DF0A3CEF0805890002BE0F9701BE0
:101DB600900029E0FF7E007C007D0A122773EB2F3E
:101DC600FFEC3ECF24F0CF34FD802F90002AE0FFB9
:101DD6007E007C007D0A122773AA06AB07900029B5
:101DE600E0FF7E007D64122773EF2BFFEE3AFEE9DB
:101DF6002FFFEC3ECF2430CF34EB90086DF0A3EFED
:101E0600F0C21F7E007F3622900024E0646C705082
:101E1600A3E06432704AA3E064347044A3E0643300
:101E2600703E90002AE0FB9000297010E024D0FE5E
:101E3600E434FF90022DF0A3CEF0801DE0FF7E007B
:101E46007C007D0A122773EB2FFFEC3ECF24F0CFE8
:101E560034FD90022DF0A3EFF0C21F7E007F3822E2
:101E6600900024E0646C6003021F02A3E064326009
:101E760003021F02A3E064346003021F02A3E064AE
:101E860032707990002AE0FB7013900029E024D08C
:101E9600FEE434FF900E10F0A3CEF0805890002B95
:101EA600E0F9701B900029E0FF7E007C007D0A129D
:101EB6002773EB2FFFEC3ECF24F0CF34FD802F901D
:101EC600002AE0FF7E007C007D0A122773AA06AB7B
:101ED60007900029E0FF7E007D64122773EF2BFF39
:101EE600EE3AFEE92FFFEC3ECF2430CF34EB900ED6
:101EF60010F0A3EFF0C21F7E007F3922900024E08D
:101F06006464707BA3E064747075A3E0645F706FB3
:101F1600A3E0249F605924FD601E24FC603024FB4E
:101F2600603724FA603E24FA6019242C704A900027
:101F360012E4F0A304F08040900012E4F0A37402CF
:101F4600F08035900012E4F0A37403F0802A90002C
:101F560012E4F0A37404F0801F900012E4F0A3745E
:101F660005F08014900012E4F0A37406F080099046
:101F76000012E4F0A37407F0C21F7E007F372290A0
:101F86000024E0FDB46516A3E0B46E11A3E0B464CA
:101F96000CA3E0B46C07C21F7E007F1522ED646DB2
:101FA600701D900025E0B47016A3E0B45F11A3E0A5
:101FB600B46C0CA3E0B46F07C21F7E007F1722909B
:101FC60009B9E0B4FF1DA3E0B4FF18900027E02490
:101FD600D0FEE434FF9009B9F0A3CEF0C21F7E0014
:101FE6007F18229009BBE0B4FF1DA3E0B4FF189050
:101FF6000027E024D0FEE434FF9009BBF0A3CEF026
:10200600C21F7E007F19229009BDE0B4FF1DA3E028
:10201600B4FF18900027E024D0FEE434FF9009BDF9
:10202600F0A3CEF0C21F7E007F1A229009BFE0B453
:10203600FF1DA3E0B4FF18900027E024D0FEE4348F
:10204600FF9009BFF0A3CEF0C21F7E007F1B229037
:102056000024E0646D701BA3E0B47016A3E0B45FC7
:1020660011A3E0B46D0CA3E0B46107C21F7E007F2C
:102076002822900024E0FDB46D16A3E0B47011A3ED
:10208600E0B45F0CA3E0B47407C21F7E007F292270
:10209600ED646D701D900025E0B47016A3E0B45F8A
:1020A60011A3E0B46D0CA3E0B46F07C21F7E007FDE
:1020B6002A22900024E0646D701BA3E0B47016A37E
:1020C600E0B45F11A3E0B46C0CA3E0B46107C21FD7
:1020D6007E007F2B22900024E0FD646D701BA3E040
:1020E600B47016A3E0B45F11A3E0B4730CA3E0B41C
:1020F6006507C21F7E007F2C22EDB46E1890002566
:10210600E0B47311A3E0B45F0CA3E0B46607C21F8A
:102116007E007F3222900024E0B46E16A3E0B473F2
:1021260011A3E0B45F0CA3E0B46307C21F7E007F77
:062136003322E4FEFF224B
:103EB100900F5874FFF0A37410F0A3742FF07B01DE
:103EC1007A0979781221A174FF9009B9F0A3F0A3BE
:103ED100F0A3F0A3F0A3F0A3F0A3F0E4900DFEF0A3
:103EE100A3F090084BF0A3F0900F5874FFF0A37467
:103EF10010F0A37430F07B017A0E79871221A17B37
:083F0100017A0E7987023D19D7
:0100390022A4
:103E5000900E37E4F0A37405F0900F5874FFF0A3B0
:103E60007410F0A3742FF07B017A0979781221A1E4
:103E700074FF9009B9F0A3F0A3F0A3F0A3F0A3F0AE
:103E8000A3F0A3F0E4900DFEF0A3F090084BF0A394
:103E9000F0900F5874FFF0A37410F0A37430F07B0F
:103EA000017A0E79871221A17B017A0E7987023D72
:013EB00019F8
:1041F100900F5874FFF0A37410F0A37446F07B0184
:104201007A0E79871221A17B017A0E7987023D19F5
:10421100900F5874FFF0A37410F0A3745BF07B014E
:104221007A0E79871221A17B017A0E7987023D19D5
:10423100900F5874FFF0A37410F0A37470F07B0119
:104241007A0E79871221A17B017A0E7987023D19B5
:102A0800900F5874FFF0A37410F0A37485F07B0145
:102A18007A0E79871221A1123D13900DFEE0700203
:102A2800A3E070409009B9E07004A3E06401703439
:102A38009009BBE07004A3E0640270289009BDE02F
:102A48007004A3E06403701C9009BFE07004A3E065
:102A580064047010900F5874FFF0A37410F0A374FE
:102A68009A022B4E900DFEE07002A3E07040900990
:102A7800B9E07004A3E0640970349009BBE0700405
:102A8800A3E0640970289009BDE07004A3E064091C
:102A9800701C9009BFE07004A3E064097010900FE7
:102AA8005874FFF0A37410F0A374C3022B4E900D5A
:102AB800FEE07002A3E0703F9009B9E07004A3E063
:102AC800640170339009BBE07004A3E064017027CF
:102AD8009009BDE07004A3E06401701B9009BFE099
:102AE8007004A3E06401700F900F5874FFF0A37492
:102AF80010F0A374CC804F900DFEE07004A3E06446
:102B0800016003022B9F9009B9E07004A3E06406FA
:102B18006003022B9F9009BBE07004A3E064077078
:102B2800769009BDE07004A3E06408706A9009BF5C
:102B3800E07004A3E06409705E900F5874FFF0A37E
:102B48007410F0A374D1F07B017A0979781221A16D
:102B5800900F5874FFF0A37410F0A374A0F0A3743E
:102B680001F0A37409F0A37478F07B017A0E7987D9
:102B78001221A1123D13900F5874FFF0A37410F0A6
:102B8800A374AEF07A0E79871221A1123D13900832
:102B98004BE4F0A304F022900F5874FFF0A37410D4
:102BA800F0A374DAF07B017A0E79871221A1123D25
:102BB80013900F5874FFF0A37410F0A374E5F07A23
:102BC8000E79871221A1123D13900F5874FFF0A3BC
:102BD8007410F0A374EDF07A0E79871221A1123DDA
:102BE8001374FF9009B9F0A3F0A3F0A3F0A3F0A326
:102BF800F0A3F0A3F0900E38E024FFF0900E37E039
:102C080034FFF0D3A3E09400900E37E06480948002
:102C18005018900DFEE4F0A304F0900F5874FFF0E4
:102C2800A37410F0A374F5F0801F900F5874FFF090
:102C3800A37411F0A3740CF0900E37E0FFA3E0909A
:102C48000F5BCFF0A3EFF07B017A0E79871221A1F9
:032C5800123D1317
:012C5B002256
:01003A0022A3
:01007000226D
:01007100226C
:103F0900E490085CF0A3F0900854F0A3F09002311B
:103F1900F0A3F090022FF0A3F0900E39F0A3F090E7
:103F29000012F0A3F0900F5874FFF0A37410F0A3DF
:103F390074AEF07B017A0E79871221A17B017A0E8A
:0D3F49007987123D1990084BE4F0A304F0B5
:013F56002248
:103DEA00E490084BF0A3F0900F5874FFF0A37411FD
:103DFA00F0A3742EF07B017A0E79871221A17B0140
:103E0A007A0E7987123D1990085CE4F0A304F090C9
:103E1A000BC1E07002A3E0900F58700C74FFF0A37E
:103E2A007411F0A37443800A74FFF0A37411F0A311
:103E3A007452F07B017A0E79871221A17B017A0EE6
:053E4A007987123D190B
:013E4F002250
:1040BF00E490084BF0A3F0900858F0A3F090084D4F
:1040CF00F0A37414F0900F5874FFF0A37411F0A3C1
:1040DF007461F07B017A0E79871221A17B017A0E30
:0D40EF007987123D19900854E4F0A304F005
:0140FC0022A1
:1040FD00E490084BF0A3F0900F5874FFF0A37411E7
:10410D00F0A37476F07B017A0E79871221A17B01E1
:0F411D007A0E7987123D1990022FE4F0A304F077
:01412C002270
:103F5700E490084BF0A3F0900F5874FFF0A374118E
:103F6700F0A3748CF090086DE0FFA3E0900F5BCF97
:103F7700F0A3EFF0900E10E0FFA3E0900F5DCFF0FD
:103F8700A3EFF07B017A0E79871221A17B017A0ECC
:0D3F97007987123D19900E39E4F0A304F073
:013FA40022FA
:08434000E4900BC1F0A3F02290
:09433700900BC1E4F0A304F02294
:0F431B00900859E004F07006900858E004F02272
:1042A400E4900858F0A3F090084DF0A37414F09033
:0842B4000231E4F0A304F02242
:10412D00900F5874FFF0A37411F0A374ADF09008C4
:10413D006DE0FFA3E0900F5BCFF0A3EFF07B017A72
:0F414D000E79871221A17B017A0E7987023D1925
:1033E100900012E0FEA3E0FFEE6003023541EF140E
:1033F100B40700400302354190340775F003A4C5BA
:103401008325F0C5837302341C0234300234CB02AD
:1034110034DE0234F102350402352C900F5874FF6A
:10342100F0A37411F0A374C5F09008530235159000
:103431000853E0FF6401601DEF64036018EF640549
:103441006013EF6407600EEF64086009EF640A60BF
:1034510004EFB40C14900F5874FFF0A37411F0A38F
:1034610074ECF0900850023515900853E0FF6404A5
:10347100600EEF64066009EF64096004EFB40B1499
:10348100900F5874FFF0A37412F0A37413F0900816
:1034910050023515900853E06402701B900866E0F5
:1034A10054037013900F5874FFF0A37412F0A374B7
:1034B1003AF0900850805D900F5874FFF0A3741299
:1034C100F0A37461F0900850804A900F5874FFF097
:1034D100A37412F0A37488F09008668037900F5897
:1034E10074FFF0A37411F0A374C5F09008688024F0
:1034F100900F5874FFF0A37412F0A374AFF0900210
:10350100288011900F5874FFF0A37412F0A374AFC8
:10351100F0900E36E0900F5BF07B017A0E79871206
:1035210021A17B017A0E7987023D1990022BE0B42B
:1035310050057441F0800690022B7450F0123C97B4
:013541002267
:10310F00900012E0FEA3E0FFEE7055EF24FE601B6F
:10311F0014602314602B14603314603B240570403B
:10312F0090022DA3E0900853F0803590022DA3E07C
:10313F00900850F0802A90022DA3E0900866F0804E
:10314F001F90022DA3E0900868F0801490022DA329
:10315F00E0900228F0800990022DA3E0900E36F047
:10316F00900853E0FF64016008EF640260030232CD
:10317F0002900853E0F9240CFFE433FEEF25E0FF43
:10318F00EE33FE900850E02401FDE433CD2FFBED2C
:10319F003EFAE9240DFFE433FE7C007D0312277312
:1031AF007D05122785EF2BFFEE3AFE900866E0F9BA
:1031BF0024FFFDE434FFFCEF2DFBEE3CFAEDAE04F3
:1031CF007802CEC313CE13D8F92BFBEA3EFAE924CB
:1031DF00FFFFE434FFFE7C007D64122785C3EB9F65
:1031EF00FBEA9EFA900866E024FFFFE434FFFE7CC2
:1031FF00018061900853E02401FFE433FE7C007DE1
:10320F00031227737D05122785AC06AD0790085072
:10321F00E02401FBE433FA900853E075F002A42B8D
:10322F00FFE5F03ACF2DCF3CFE900866E0FD7A0027
:10323F002FFFEA3EFEED1313543F7C002FFFEC3EB1
:10324F00FEE0F975F06484FDC3EF9DFBEE9CFAE997
:10325F00FF7E000C7D90122785EF2BFFEE3AFE7C50
:0E326F00007D0712278590086CEDF0023C9759
:10354200900E10E0FEA3E0FFC39410EE648094801E
:103552005053900F5874FFF0A37412F0A374D6F076
:10356200A3EEF0A3EFF07B017A0D79EF1221A19087
:103572000F5874FFF0A37412F0A374D6F0900E10DB
:10358200E0FFA3E0900F5BCFF0A3EFF07B017A0E98
:1035920079141221A1900F5874FFF0A37412F0A3B2
:1035A20074DE02365F900E10E0FEA3E0FFD394EFCC
:1035B200EE64809480900F5874FF404DF0A3741213
:1035C200F0A374E5F0A3EEF0A3EFF07B017A0D799E
:1035D200EF1221A1900F5874FFF0A37412F0A3749C
:1035E200E5F0900E10E0FFA3E0900F5BCFF0A3EFA9
:1035F200F07B017A0E79141221A1900F5874FFF01A
:10360200A37412F0A374EC8054F0A37412F0A374A8
:10361200E5F0900E10E0FFA3E0900F5BCFF0A3EF78
:10362200F07B017A0D79EF1221A1900F5874FFF00F
:10363200A37412F0A374E5F0900E10E0FFA3E090E3
:103642000F5BCFF0A3EFF07B017A0E79141221A168
:10365200900F5874FFF0A37412F0A374DEF0900E72
:1036620010E0FEA3E0FFC374FF9FFFE49EFE900FF5
:103672005BF0A3EFF0A3EEF0A3EFF0A3EEF0A3EF65
:0A368200F07B017A0D79E41221A11A
:01368C00221B
:03000000023C0BB4
:0C3C0B00787FE4F6D8FD758125023C525C
:10275A00BB010689828A83E0225002E722BBFE027D
:09276A00E32289828A83E49322B0
:10277300EF8DF0A4A8F0CF8CF0A428CE8DF0A42E7A
:02278300FE2234
:10278500BC000BBE0029EF8DF084FFADF022E4CC38
:10279500F875F008EF2FFFEE33FEEC33FCEE9DEC01
:1027A500984005FCEE9DFE0FD5F0E9E4CEFD22ED47
:1027B500F8F5F0EE8420D21CFEADF075F008EF2F91
:1027C500FFED33FD4007985006D5F0F222C398FD82
:0527D5000FD5F0EA221F
:1027DA00C2D5EC30E709B2D5E4C39DFDE49CFCEE1A
:1027EA0030E715B2D5E4C39FFFE49EFE122785C3E6
:1027FA00E49DFDE49CFC800312278530D507C3E4E1
:06280A009FFFE49EFE2288
:10281000A3F8E0C5F025F0F0E5821582700215837B
:06282000E0C838F0E822D8
:10403B00C2D5E830E70FB2D5E4C39BFBE49AFAE4B0
:10404B0099F9E498F8EC30E717B2D51240711229C0
:10405B003EE4C39BFBE49AFAE499F9E498F88003F5
:10406B0012293E30D50DE4C39FFFE49EFEE49DFD77
:04407B00E49CFC22A3
:10282600EB9FF5F0EA9E42F0E99D42F0E89C45F008
:01283600227F
:102837007401FF3395E0FEFDFCA3A3A3E0CF2FF0C7
:10284700E582158270021583E0CE3EF0E58215829F
:1028570070021583E0CD3DF0E58215827002158385
:05286700E0CC3CF02272
:10286C00A8828583F0D083D0821228831228831209
:10287C002883122883E473E493A3C583C5F0C5832E
:10288C00C8C582C8F0A3C583C5F0C583C8C582C8B6
:01289C002219
:10289D00D083D082F8E4937012740193700DA3A3CA
:1028AD0093F8740193F5828883E4737402936860DE
:0628BD00EFA3A3A380DFDE
:10213C00E5082458F582E4340FF583E00508229075
:10214C000F55302C03900F58E475F0011229E8025A
:10215C00275A2025E97F2ED2258018EF540F249082
:10216C00D43440D4FF30290BEF24BFB41A005003F1
:10217C002461FFE50960021509050CE50C700205E8
:10218C000B302C0E900F55E475F0011229E8EF027C
:10219C0028F00241837403D22C8003E4C22CF5088E
:1021AC00900F551229FFE4F509F50BF50CE50960C4
:1021BC00077F2012217F80F5750AFFC226C225C237
:1021CC0027C228C22AC22BC22D12214BFF700D3000
:1021DC002C057F00122190AF0CAE0B22B4255FC2F0
:1021EC00D5C22912214BFF24D0B40A00501A75F025
:1021FC000A780930D50508B6FF0106C6A426F620D4
:10220C00D5047002D22880D924CFB41A00EF500420
:10221C00C2E5D229022391D22680C6D22580C0D213
:10222C002780BCD2D580BAD22A80B47F2012217FDD
:10223C002027077401B5090040F112213CFF12213F
:10224C007F0221B9D22DD22B809512213CFB122179
:10225C003CFA12213CF94A4B700679627A247BFFD6
:10226C0020272EE509602A7E008E827583001228B5
:10227C00C360060EEE650A70F0C2D5EBC0E0EAC092
:10228C00E0E9C0E0EE1223D8D0E0F9D0E0FAD0E0DB
:10229C00FB12275AFF60AAEBC0E0EAC0E0E9C0E0FD
:1022AC0012217FD0E02401F9D0E03400FAD0E0FB19
:1022BC00E50A0460DCD50AD980877BFF7A2379D4C0
:1022CC00D227809C791080027908C22BC22D8008FD
:1022DC00D2D5790A8004790AC2D5E50A047002F5D0
:1022EC000AE4FAFDFEFF12213CFC7B0820261312A7
:1022FC00213CFD7B1030250A12213CFE12213CFFB3
:10230C007B20EC3382D592D55013C3E43025069F45
:10231C00FFE49EFEE42026039DFDE49CFCE4CBF848
:10232C00C226EC700CCFCECDCCE824F8F870F3803C
:10233C0017C3EF33FFEE33FEED33FDEC33FCEB3321
:10234C00FB994002FB0FD8E9EB302605F8D0E0C42E
:10235C0048B226C0E00AEC4D4E4F78207B0070C28C
:10236C00EAB50A0040BCC0E01223DAD0F0D0E0207D
:10237C002604C4C0E0C4B226C0F0122168D0F0D547
:10238C00F0EB0221B912289D22565322D058222755
:10239C004C22234222D44F22DC4422DC49223C43EF
:0823AC0022E25522C64622C6BA
:1023B4004522C647248250222B2D222F2E22522B17
:1023C400223323225020246B2A21EB480000224A86
:1023D4003F3F3F00790AA2D5202814302A09B910BA
:1023E400020404B9080104A2D5202B0250010420E0
:1023F40027689227B509005034C0E07F203028199F
:102404007F30A227722B722A500F122431C227C2A6
:102414002BC22AC22D7F30800F302A03E9C0E0127C
:10242400217F302A03D0E0F9D0E0B509CC302A1757
:102434007F30B9100C12217F7F583029077F7880B4
:1024440003B9080312217F3027057F2D02217F7FE6
:1024540020202DF87F2B202BF322922780CF286E6B
:10246400756C6C2900D22612213C3026F8C22678DD
:102474000930D50108F60221EB2D504349581221A9
:102484003C2403B405004001E490247D93122170A0
:0D249400743A122170D2287509040222D07A
:103FA50090113F1229D07810EC4D4E4F70047CA52E
:103FB5007DA5C3EC13FCED13FDEE13FEEF13FF50CF
:103FC50010EC64CCFCED644CFDEE644EFEEF64CE6B
:103FD500FFD8DF90113F1229DCEE547FFE229011AD
:0D3FE5003FEEF0EFA3F0A374A5F0A3F022CF
:103C1700020076E493A3F8E493A34003F68001F24D
:103C270008DFF48029E493A3F85407240CC8C333AE
:103C3700C4540F4420C8834004F456800146F6DF7D
:103C4700E4800B01020408102040809037C3E47E13
:103C5700019360BCA3FF543F30E509541FFEE49372
:103C6700A360010ECF54C025E060A840B8E493A339
:103C7700FAE493A3F8E493A3C8C582C8CAC583CA64
:103C8700F0A3C8C582C8CAC583CADFE9DEE780BE1C
:0138E20000E5
:1028C300BB010CE58229F582E5833AF583E02250CA
:1028D30006E92582F8E622BBFE06E92582F8E22214
:0D28E300E58229F582E5833AF583E493222E
:1028F000BB010689828A83F0225002F722BBFE01C7
:02290000F322C0
:1029020075F008758200EF2FFFEE33FECD33CDCC8C
:1029120033CCC58233C5829BED9AEC99E58298400F
:102922000CF582EE9BFEED9AFDEC99FC0FD5F0D6EC
:10293200E4CEFBE4CDFAE4CCF9A88222B800C1B916
:102942000059BA002DEC8BF084CFCECDFCE5F0CB54
:10295200F97818EF2FFFEE33FEED33FDEC33FCEB8D
:1029620033FB10D703994004EB99FB0FD8E5E4F948
:10297200FA227818EF2FFFEE33FEED33FDEC33FC35
:10298200C933C910D7059BE99A4007EC9BFCE99A29
:10299200F90FD8E0E4C9FAE4CCFB2275F010EF2F6E
:1029A200FFEE33FEED33FDCC33CCC833C810D7076E
:1029B2009BEC9AE899400AED9BFDEC9AFCE899F8A9
:0E29C2000FD5F0DAE4CDFBE4CCFAE4C8F9223C
:0C29D000E0FCA3E0FDA3E0FEA3E0FF227A
:0C29DC00ECF0A3EDF0A3EEF0A3EFF0226E
:1029E800F8E0FBA3A3E0F925F0F0E5821582700278
:0729F8001583E0FA38F0221C
:0929FF00EBF0A3EAF0A3E9F022D9
:10418300EFB40A07740D12418E740A309811A8997E
:10419300B8130CC2983098FDA899C298B811F6309C
:0741A30099FDC299F5992274
:00000001FF
