:1009CD006D313042006D313242006D313442006D77
:1009DD00313642006D323042006D323442006D339B
:1009ED003242006D3438006D36340053554E004D93
:1009FD004F4E005455450057454400544855004648
:100A0D00524900534154004E4F4E004A414E00464C
:100A1D004542004D415200415052004D4159004A4E
:100A2D00554E004A554C0041554700534550004F17
:100A3D004354004E4F560044454300534554204403
:100A4D0041544520414E442054494D4520202020FD
:100A5D0020200057524954494E4720444154412EBD
:100A6D002E2E20574149542120200044415441202D
:100A7D005355434345535346554C4C5920534156BA
:100A8D004544004552524F52202020202020202046
:100A9D0020202020202020202020005320257320DE
:100AAD0025730D00662025730D00742022257322F9
:100ABD002025752025750D00786920257520257553
:100ACD002025750D006D2025750D00257320004620
:100ADD00464646464600303030303030002562758F
:100AED0020202000323025303262750025634D20E4
:100AFD002000534554204D4F4E544820005345542B
:100B0D00204441544520200053455420594541521D
:100B1D0020200053455420484F5552202000534566
:100B2D0054204D494E5554450053455420414D2FA9
:100B3D00504D2000505245535320444F4E45002DEB
:100B4D002D2D2D0025732025303262752C2032304D
:100B5D002530326275202573003030464630300026
:100B6D0025326275203A202530326275203A2025D3
:100B7D00303262752025634D2000253262753A258D
:100B8D003032627525634D200046374639463800B0
:100B9D00323025303262752F25303262752F253077
:100BAD003262750078692031362031363320333981
:100BBD00330D007869203136203233372033393305
:100BCD000D00786920313720333138203339330D1A
:100BDD0000786920313620313633203433370D001B
:100BED00786920313620323538203433370D00788E
:100BFD006920313620333632203433370D00626FA1
:100C0D006479B0433A256400626F6479B0463A2541
:100C1D00640025640046463030303000535441475F
:100C2D00452031005354414745203200535441472C
:100C3D004520330053544147452034006D206C6FDF
:100C4D00736520253262752025303262752025634B
:100C5D004D0D006D2077696E2025730D006D20738D
:100C6D00746F6E655F646973706C617920313333B5
:100C7D00203131382025640D006D2073746F6E6541
:100C8D005F646973706C6179203131382031353989
:100C9D002025640D006D2073746F6E655F6469733C
:100CAD00706C617920313234203230322025640D60
:100CBD00006D2073746F6E655F646973706C61791C
:100CCD0020313330203236332025640D006D2073F2
:100CDD00746F6E655F646973706C61792031353046
:100CED00203330302025640D006D2073746F6E65D8
:100CFD005F646973706C6179203437342031323020
:100D0D002025640D006D2073746F6E655F646973CB
:100D1D00706C617920343837203135392025640DD8
:100D2D00006D2073746F6E655F646973706C6179AB
:100D3D0020343833203230342025640D006D20737B
:100D4D00746F6E655F646973706C617920343830CF
:100D5D00203236362025640D006D2073746F6E655C
:100D6D005F646973706C61792034353220333036AD
:100D7D002025640D006D20746578745F646973704F
:100D8D006C61790D0020252D356275003844383998
:100D9D003839006D206C6F61645F6261725F6675DA
:100DAD006C6C2032323020323735203130302030EB
:100DBD00330D006D20646973706C61795F6C6F67C2
:100DCD00696E5F706167650D00006D2064697370F9
:100DDD006C61795F6173746572696B5F310D006D64
:100DED0020646973706C61795F6173746572696B8E
:100DFD005F320D006D20646973706C61795F617392
:100E0D00746572696B5F330D006D20646973706C6E
:100E1D0061795F6173746572696B5F340D004A208F
:100E2D004C696E006D207365745F75696420257360
:100E3D000D006D20646973706C61795F6D61696E11
:100E4D005F706167650D00532D482059616E670015
:100E5D0059204C69004320446176696C61007869C2
:100E6D00203430203020300D00786320616C6C0D03
:100E7D00007720313030300D006D20646973706C57
:100E8D0061795F6C6F636B65645F706167650D00A1
:100E9D006D20646973706C61795F6C6F67696E5FEB
:100EAD00617474656D7074735F6C65667420256410
:100EBD000D006D20646973706C61795F74656D7080
:100ECD005F706167650D006D2074656D705F756E87
:100EDD0069745F660D006D2074656D705F756E6968
:100EED00745F630D006D20646973706C61795F6769
:100EFD00616D655F706167650D006D20646973706C
:100F0D006C61795F6C617365725F706167650D000F
:100F1D006D20646973706C61795F73657474696E4B
:100F2D0067735F73637265656E2025640D006D20B8
:100F3D0061646A7573745F6272696768746E6573F4
:100F4D00732025640D006D20646973706C61795F89
:100F5D00646174655F74696D655F736C69646572F6
:100F6D0020253032627520313220310D006D206424
:100F7D006973706C61795F646174655F74696D65C7
:100F8D005F736C6964657220253032627520333170
:100F9D0020310D006D20646973706C61795F64613F
:100FAD0074655F74696D655F736C69646572202526
:100FBD003032627520333020310D006D206469733D
:100FCD00706C61795F646174655F74696D655F7381
:100FDD006C6964657220253032627520323920319A
:100FED000D006D20646973706C61795F6461746567
:100FFD005F74696D655F736C69646572202530324D
:10100D00627520323820310D006D20646973706C6B
:10101D0061795F646174655F74696D655F736C6937
:10102D0064657220253032627520393920300D000B
:10103D006D20646973706C61795F646174655F7450
:10104D00696D655F736C69646572202530326275F8
:07105D0020353920300D00A1
:1033980042085A00A342085E0189C106C104C10758
:1033A800C10FC10A52083509CD09D209D709DC096C
:1033B800E109E609EB09F009F4C1024100140041F2
:1033C80002330041086B004E001609F809FC0A0098
:1033D8000A040A080A0C0A105A0E030A140A180AE0
:1033E8001C0A200A240A280A2C0A300A340A380A35
:1033F8003C0A400A444809700A480A600A780A9058
:10340800420004000042000600004200080000419B
:10341800000B0041000C0041000D0041000E00416E
:10342800000F00410010004809B90000000000002A
:103438000000420DEE0000420E1E000542085C002E
:10344800004208540000420231000042022F0000EE
:1034580042084B0000420E200000420BC10001420E
:103468000DFC000042084D0014420DEA07D0420846
:1034780058000042086D0078420DE60014420DE441
:0734880000004200120000E9
:103D0900AF84E4900E6EF0A3F075840F758A838FEB
:013D19008425
:013D1A002286
:103A6C00AF8475840F75E12F75E20175E3C475A4FD
:103A7C000175A50175A7CA759C0F759D04E4F59E8B
:103A8C00759F807580FF7590FF75A0FF75B0FF75F1
:0F3A9C00C8FF75D8FF75E8FF75F8FFC2FF8F846C
:013AAB0022F8
:0D3D680075A89243E70143E74043E60A22B5
:103B8900AF84E4F584F5C875C90875CAF375CBFF28
:103B990085CBCD85CACC75C804F5847598507591C7
:063BA9000575A8908F8451
:013BAF0022F3
:073D860075FFDE75FFAD22A1
:0300230002156360
:0D156300C0E0C0F0C083C082C0D075D010C1
:10157000900E23E584F0E4FBFAA312227D00000024
:10158000007584002098030219B0C298900011E5FC
:1015900099F0900DECE0FEA3E0FFC3EE940240034F
:1015A00002196F900011E0FD640D601D74352FF578
:1015B0008274023EF583EDF0900DEDE004F07006CC
:1015C000900DECE004F00219B0900235E0FF647B6E
:1015D0007028A3E06463701BA3E0B46D16A3E0B4AD
:1015E0007011A3E0B4650CA3E0B47D07D206D20469
:1015F00002193CC206C20402193CEF6428702EFA9C
:10160000FBD3900DEDE09B900DECE09A40737435A8
:101610002BF58274023AF583E0FF74242BF5827473
:10162000003AF583EFF00BBB00010A80D49002353D
:10163000E0646C704FA3E0646F7049A3E064617074
:1016400043FAFBD3900DEDE09B900DECE09A401F28
:1016500074352BF58274023AF583E0FF74242BF580
:101660008274003AF583EFF00BBB00010A80D4903E
:101670000DECE0FEA3E02424F58274003EF583E443
:10168000F0021932900235E0F96473704FA3E06400
:10169000747049A3E064617043FAFBD3900DEDE0F0
:1016A0009B900DECE09A401F74352BF58274023A42
:1016B000F583E0FF74242BF58274003AF583EFF094
:1016C0000BBB00010A80D4900DECE0FEA3E02424C3
:1016D000F58274003EF583E4F0021932E964677024
:1016E00051900236E064657049A3E064747043FA77
:1016F000FBD3900DEDE09B900DECE09A401F74350C
:101700002BF58274023AF583E0FF74242BF5827482
:10171000003AF583EFF00BBB00010A80D4900DEC8A
:10172000E0FEA3E02424F58274003EF583E4F00299
:101730001932E9646C7051900236E064327049A34A
:10174000E064347043FAFBD3900DEDE09B900DEC18
:10175000E09A401F74352BF58274023AF583E0FF5E
:1017600074242BF58274003AF583EFF00BBB000173
:101770000A80D4900DECE0FEA3E02424F5827400EE
:101780003EF583E4F0021932E9646C705190023640
:10179000E064707049A3E0645F7043FAFBD3900D7E
:1017A000EDE09B900DECE09A401F74352BF58274B0
:1017B000023AF583E0FF74242BF58274003AF58336
:1017C000EFF00BBB00010A80D4900DECE0FEA3E02B
:1017D0002424F58274003EF583E4F0021932E964B2
:1017E000657051900236E0646E7049A3E0646470E5
:1017F00043FAFBD3900DEDE09B900DECE09A401F77
:1018000074352BF58274023AF583E0FF74242BF5CE
:101810008274003AF583EFF00BBB00010A80D4908C
:101820000DECE0FEA3E02424F58274003EF583E491
:10183000F0021932E9646D7051900236E064707004
:1018400049A3E0645F7043FAFBD3900DEDE09B90F9
:101850000DECE09A401F74352BF58274023AF58343
:10186000E0FF74242BF58274003AF583EFF00BBB94
:1018700000010A80D4900DECE0FEA3E02424F58260
:1018800074003EF583E4F0021932E9646E70509002
:101890000236E064737048A3E0645F7042FAFBD3E1
:1018A000900DEDE09B900DECE09A401F74352BF508
:1018B0008274023AF583E0FF74242BF58274003AB7
:1018C000F583EFF00BBB00010A80D4900DECE0FE35
:1018D000A3E02424F58274003EF583E4F08053E90C
:1018E00064647054900236E06474704CA3E0645FEA
:1018F0007046FAFBD3900DEDE09B900DECE09A4022
:101900001F74352BF58274023AF583E0FF74242BA3
:10191000F58274003AF583EFF00BBB00010A80D426
:10192000900DECE0FEA3E02424F58274003EF583E4
:10193000E4F0C207D20F8004D207C20F7A007B0006
:10194000D3900DEDE09B900DECE09A401374352B95
:10195000F58274023AF583E4F00BBB00010A80E0E3
:10196000900DF3E4F0A3F0900DECF0A3F080419023
:101970000DECE0FEA3E0FF900DF3E0FCA3E0FDC35F
:101980009FEC9E501C74352DF58274023CF583E467
:10199000F0900DF4E004F070D6900DF3E004F080C8
:1019A000CE900DF3E4F0A3F0900DECF0A3F0C20F95
:1019B000209903021A43C299300C03021A41900D78
:1019C000FAE0FEA3E02435F58274043EF583E0F5E9
:1019D00099900DFBE004F07006900DFAE004F02001
:1019E0009913900E24122248E47B487A26F9F8D302
:1019F00012223750EAE47F487E26FDFC900E24E058
:101A0000F8A3E0F9A3E0FAA3E0FBC31222374002F7
:101A1000D299900E2412227D00000000C3900DFA8E
:101A2000E094044004E4F0A3F0900DF1E0FEA3E0A4
:101A3000FF900DFAE0B5160BA3E0B51706D20C80A7
:091A400002D205900E23E0F584AA
:0B1A4900D0D0D082D083D0F0D0E032AB
:0637A8007B017A0E796E30
:1037AE00900F3CE584F012216B604E200C14900DAE
:1037BE00F1E0FEA3E0FF900DFAE06E7003A3E06F60
:1037CE00602E12216BFF900DF1E475F00112222193
:1037DE00FC743525F0F58274043CF583EFF0C3904C
:1037EE000DF1E094044004E4F0A3F0300C02C20C9E
:1037FE00740129F9E43AFA80AD300507C205E4F503
:09380E0084D299900F3CE0F5848E
:01381700228E
:10329D00A3F0A37401F0A3E4F0A3F07493A3F07B67
:0532AD00FF7A0A79DC44
:0B32B200900EAEEBF0A3EAF0A3E9F0F1
:1032BD00900F3F74FFF0A3740AF0A374A8F0900E62
:1032CD00AEE0F9A3E0FAA3E0900F42C9F0A3EAF053
:1032DD00A3E9F0900EB1E0F9A3E0FAA3E0900F4559
:1032ED00C9F0A3EAF0A3E9F07B017A0E79BC121EB6
:1032FD006B7B017A0E79BC1237AE900F3F74FFF0E5
:10330D00A3740AF0A374B1F0900EB4E025E0243557
:10331D00F582E43408F583E0FEA3E0AA06F9900FE8
:10332D004274FFF0A3EAF0A3E9F07A0E79BC121E05
:10333D006B7B017A0E79BC1237AE900F3F74FFF0A4
:10334D00A3740AF0A374B7F0900EB5E0F9A3E0FAF8
:10335D00A3E0900F42C9F0A3EAF0A3E9F0900EB8F4
:10336D00E0FFA3E0900F45CFF0A3EFF0900EBAE091
:10337D00FFA3E0900F47CFF0A3EFF07A0E79BC12C8
:0B338D001E6B7B017A0E79BC0237AE8C
:0C39DF00900F64ECF0A3EDF0AD03AC021F
:1039EB00900F3F74FFF0A3740AF0A374C5F0A3EE1D
:1039FB00F0A3EFF0900F64E0FFA3E0900F44CFF043
:103A0B00A3EFF0AF05A3ECF0A3EFF07B017A0F79F6
:0D3A1B0066121E6B7B017A0F79660237AED2
:053D8D007E00023BD79F
:103BD700900F3F74FFF0A3740AF0A374D2F0A3EE22
:103BE700F0A3EFF07B017A0F79E6121E6B7B017A67
:063BF7000F79E60237AE73
:102EA200E490112AF0A3F0900015E06402705B90A8
:102EB2000024E064287019A3E024CE600D14600D94
:102EC20024026003022FCE022F88022F8C022F9041
:102ED200E490112AF0A3F090112AE0FEA3E0FF246F
:102EE20024F58274003EF583E07003022FCE742431
:102EF2002FF58274003EF583E4F090112BE004F08C
:102F020070D590112AE004F080CD900015E06403A2
:102F12007058900024E064287016A3E024CE600C60
:102F220014600B24026003022FCE805A805C805E04
:102F3200E490112AF0A3F090112AE0FEA3E0FF240E
:102F420024F58274003EF583E07003022FCE7424D0
:102F52002FF58274003EF583E4F090112BE004F02B
:102F620070D590112AE004F080CD900015E0640441
:102F7200705A900024E0B4281CA3E024CE600B1405
:102F8200600C240270467F0280067F0380027F0469
:102F9200123D8D8037E490112AF0A3F090112AE0BF
:102FA200FEA3E0FF2424F58274003EF583E0601C5A
:102FB20074242FF58274003EF583E4F090112BE027
:102FC20004F070D890112AE004F080D0E490112A25
:102FD200F0A3F090112AE0FEA3E0FF2424F582740E
:102FE200003EF583E0601C74242FF58274003EF5E8
:102FF20083E4F090112BE004F070D890112AE004E1
:03300200F080D08B
:0130050022A8
:10349000900E7012227D00000000900E74E584F002
:1034A000E4F584208675900E701222487BA07A86FF
:1034B00079017800D31222374061C287E4900E6E02
:1034C000F0A3F0900E6FE004F07006900E6EE00432
:1034D000F0900E6EE07003A3E0F470E7D2872087CF
:1034E00014900E701222487BA07A8679017800D35E
:1034F00012223750E9E4900E6EF0A3F0C3900E6FE5
:10350000E0940A900E6EE0648094805096A3E004EC
:10351000F070E9900E6EE004F080E175C00775CFA1
:103520009143C040900E74E0F584C202E4900869B3
:10353000F0900852F0900851F0900867F0900DE874
:05354000F09009B8F055
:013545002263
:103CBD00AF84758401E4F5C8F5C975CBE275CA7A90
:0A3CCD0085CBCD85CACCD2CA8F8406
:013CD70022CA
:03007300023C9EAE
:073C9E00C0D075D000C00783
:103CA500AF8475840053C0BF43C0408F84C2CFC268
:033CB500028F84F7
:053CB800D007D0D0325E
:103CD80074EF2FF582E43408F583EDF0EFFD7C00F6
:093CE8007B017A007F20023818EC
:103BFD00900E6EEFF0FD7C007B017A007F20123578
:103C0D00F5900E6EE0246FF582E43408F583E0FF45
:013C1D002284
:0F3D2C00AE05EFFD7C00EEFB7A007FD002381869
:0F3D3B00AE05EFFD7C00EEFB7A007FD00235F580
:1035F500900EB0EFF0A3ECF0A3EDF0A3EAF0A3EB8F
:01360500F0D4
:10360600A3E584F0E4F58420C7FD2002FA900EB508
:10361600E0F584900EB0E0FF245C600824D46004DA
:1036260024B0700E900EB1E0FCA3E0FDE4FBFA12AC
:103636003818E4F58420C7FD2002FA900EB0E09019
:103646000849F0900EB1E0FFA3E0900862CFF0A326
:10365600EFF0900EB3E0FFA3E0900E00CFF0A3EFE3
:10366600F0D202D210D2C520C7FD2002FA900EB5C4
:10367600E0F584900EB0E0245C601824D4600C243D
:10368600B07016900852E0701080F89009B8E0709B
:093696000880F8900867E060FA72
:01369F002208
:02381800A907FE
:10381A00E4900EB6F0A3F0A3F0A3E584F0E4F584F7
:10382A0020C7FD2002FA900849E9F0AF0590086226
:10383A00ECF0A3EFF0E92455600824DB601A24B009
:10384A00702C900224EAF0A3EBF0D202C210D2C587
:10385A00900869E0701880F8AF03900224EAF0A398
:10386A00EFF0D202C210D2C5900DE8E060FA900ED5
:04387A00B9E0F58438
:01387E002227
:03003B000210644C
:0D106400C0E0C0F0C083C082C0D075D010C5
:10107100C214E5C1131313541F14B40B004003022F
:10108100152790109175F003A4C58325F0C58373CE
:101091000210B20210B20210D70211140211B102F1
:1010A10012560215230212E80212FE0213950214CF
:1010B10094900849E0F5C253C2FEA210E43342C243
:1010C100C2C5900002E4F0A3F0900000F0A3F090FC
:1010D100000AF0021529900849E0FFB4201E90088B
:1010E10062E0FCA3E0FD64AB4C7007D2C4C2020213
:1010F10015298DC2900869E4F0021529EF64D060CA
:1011010003021529900862A3E0F5C2900DE8E4F00E
:10111100021529900849E0FFB4202CC3900005E096
:10112100940A900004E094005011A3E004F07006CA
:10113100900004E004F0D2C5021529900004E4F007
:10114100A3F09008698065EFB4D02CC3900007E04C
:10115100940A900006E094005011A3E004F0700698
:10116100900006E004F0D2C5021529900006E4F0D3
:10117100A3F0900DE88035900849E064A460030273
:101181001529C3900009E0940A900008E0940050EA
:1011910011A3E004F07006900008E004F0D2C5024B
:1011A1001529900008E4F0A3F09008510402138B74
:1011B100900849E0F96420704A900224E0FEA3E01F
:1011C100FF900000E0FCA3E0FDC39FEC9E502A903D
:1011D1000863E02DFF900862E03CFE74EF2FF5827A
:1011E10074083EF583E0F5C2900001E004F0705808
:1011F100900000E004F0021529D2C4C202900869EF
:1012010002151EE964D06003021529900224E0FE54
:10121100A3E0FF900000E0FCA3E0FDC39FEC9E5023
:101221002A900863E02DFF900862E03CFE74EF2FE6
:10123100F58274083EF583E0F5C2900001E004F008
:101241007006900000E004F0021529D2C4C2029099
:101251000DE802151E900849E0FFB42029C3900053
:1012610005E0940A900004E094005011A3E004F01A
:101271007006900004E004F0D2C502152990000424
:10128100E4F0A302138BEFB4D029C3900007E094DC
:101291000A900006E094005011A3E004F07006905B
:1012A1000006E004F0D2C5021529900006E4F0A37F
:1012B10002138B900849E064A46003021529C390CE
:1012C1000009E0940A900008E094005011A3E004A2
:1012D100F07006900008E004F0D2C50215299000D4
:1012E10008E4F0A302138B900E00E07004A3E06405
:1012F100017005C2C2021529D2C2021529900849FE
:10130100E0FFB42028C3900005E0940A900004E0B7
:1013110094005011A3E004F07006900004E004F082
:10132100D2C5021529900004E4F0A3805DEFB4D08A
:1013310028C3900007E0940A900006E09400501141
:10134100A3E004F07006900006E004F0D2C5021597
:1013510029900006E4F0A38031900849E064A4607C
:1013610003021529C3900009E0940A900008E09453
:10137100005011A3E004F07006900008E004F0D2E0
:10138100C5021529900008E4F0A3F0D2C4C202D22C
:1013910014021529900849E0F96420704F900E005D
:1013A100E0FEA3E0FF900002E0FCA3E0FDC39FECA0
:1013B1009E5031900863E02DFF900862E03CFE747E
:1013C1006F2FF58274083EF583E5C2F0D2C290001A
:1013D10003E004F07006900002E004F0900852E48B
:1013E100F0021529C2C290085202151EE964D0709C
:1013F10052900E00E0FEA3E0FF900002E0FCA3E0AB
:10140100FDC39FEC9E5031900863E02DFF90086270
:10141100E03CFE746F2FF58274083EF583E5C2F05F
:101421009009B8E4F0D2C2900003E004F070069095
:101431000002E004F00215299009B87401F0C2C25B
:10144100021529E964A46003021529900E00E0FE4B
:10145100A3E0FF900002E0FCA3E0FDC39FEC9E50DF
:101461002AAFC274C12DF58274093CF583EFF09067
:10147100084FF0D2C2900003E004F0700690000221
:10148100E004F0900867E4F0021529C2C2900867F1
:1014910002151E900849E0FFB4202C900002E0FCE8
:1014A100A3E0FD900863E02DFD900862E03CFC7430
:1014B1006F2DF58274083CF583E5C2F0D2C4C202F7
:1014C100D2C29008528056EFB4D02F900002E0FEB5
:1014D100A3E0FF900863E02FFF900862E03EFE74F6
:1014E1006F2FF58274083EF583E5C2F09009B87458
:1014F10001F0D2C4C202D2C2802E900849E0B4A445
:1015010027900002E0FEA3E024C1F58274093EF5B4
:1015110083E5C2F0D2C4C202D2C29008677401F05E
:101521008006D2148002D21430142A53C0BF43C0A3
:1015310040C2C5C2C4C2C2C202C2149008697401C9
:10154100F0900852F0900DE8F09009B8F090085131
:07155100F0900867F0C2C32F
:0B155800D0D0D082D083D0F0D0E032A1
:103D1B009008FD7404F0A37430F07D027F0E023D19
:013D2B002C6B
:10372C00900E1DE0FF1200269008EFEFF09002289B
:10373C00E0FF1200269008F0EFF090086CE0FF120A
:10374C0000269008F2EFF0900850E0FF120026904F
:10375C0008F3EFF0900853E0FF1200269008F4EF06
:10376C00F0900866E0FF1200269008F5EFF0900844
:10377C0068E0FF120026EF4440FF90022BE0FEB4FD
:10378C005006EF4460FF8008EEB44104EF545FFF35
:0C379C009008F1EFF07D07E4FF023D2CE7
:10289000E4900EAEF0A3F07D07FF123D3B90086F71
:1028A000E0FF123D4A900E1DEFF0900870E0FF121D
:1028B0003D4A900228EFF0900871E0FF30E6179053
:1028C000086A7401F0EF90022B30E5057450F08037
:1028D0000A7441F08005E490086AF0EF541FFF127B
:1028E0003D4A900868EFF0BF0C1090022BE0B44115
:1028F00003E48016900868E0801090022BE09008B6
:1029000068B45005E0240C8001E0900847F090087E
:1029100072E0FF123D4A90086CEFF0900873E0FF00
:10292000123D4A900850EFF0900874E0FF123D4AC3
:10293000900853EFF0900875E0FF123D4A9008664A
:10294000EFF090000BE0FF900853E0B507189000FF
:102950000CE0FF900850E0B5070C90000DE0FF90F0
:102960000866E06F6002D20390000EE0FF900868F6
:10297000E0FEB5071890000FE0FF900228E0B507D1
:102980000C900010E0FF900E1DE06F6002D21390DB
:10299000022BE0FBB4501FEE240CFFE433FE7C005E
:1029A0007D3C122184900228E02FFFEC3E900EAE79
:1029B000F0A3EFF08028EBB44124900868E0B40C59
:1029C00002E4F0900868E075F03CA4FF900228E073
:1029D0007C002FFEEC35F0900EAEF0A3CEF0900E02
:1029E000AEE0FAA3E0FB7C007D3CFFAE0212219634
:1029F000900233EDF07C007D3CAF03AE02122196D5
:102A000090086BEFF0900850E090000CF0900853A5
:102A1000E090000BF0900866E090000DF0900868E0
:102A2000E090000EF0900228E090000FF0900E1D54
:052A3000E0900010F031
:012A3500227E
:102BBD00900861E07043900DE9E004F0D212E0D38B
:102BCD00940C40037401F0900F3F74FFF0A3740A4E
:102BDD00F0A374D8F0900DE9E025E02403F582E42C
:102BED00340EF583E0FEA3E0AA06F9900F4274FFC0
:102BFD00F0A3EAF0A3E9022CFD900861E0640170F6
:102C0D0029900DE3E004F0D211E0D3941F4003743A
:102C1D0001F0900F3F74FFF0A3740AF0A374EAF073
:102C2D00900DE3E0900F42022CFD900861E06402EC
:102C3D007029900DF0E004F0D200E0D394634003CE
:102C4D007463F0900F3F74FFF0A3740AF0A374F156
:102C5D00F0900DF0E0900F42022CFD900861E064C1
:102C6D00037028900DF9E004F0D201E0D3940C40EC
:102C7D00037401F0900F3F74FFF0A3740AF0A37476
:102C8D00EAF0900DF9E0900F428065900861E064E4
:102C9D000470279008EEE004F0D20DE0D3943B4091
:102CAD0002E4F0900F3F74FFF0A3740AF0A374EAEE
:102CBD00F09008EEE0900F428036900861E06405D8
:102CCD00706490096EE0FFB450057441F0800AEF16
:102CDD00B4410690096E7450F0D20E900F3F74FF00
:102CED00F0A3740AF0A374F9F090096EE0900F420E
:102CFD00F07B017A107966121E6B900EB174FFF0A5
:102D0D00A3740AF0A374E3F0A37403F0A37401F0A9
:102D1D00A37410F0A37466F0A37401F0A3E4F0A300
:062D2D00F074D71232AA77
:012D3300227D
:102A3600900861E07043900DE9E014F0D212E0C313
:102A460094015003740CF0900F3F74FFF0A3740AC6
:102A5600F0A374D8F0900DE9E025E02403F582E4B4
:102A6600340EF583E0FEA3E0AA06F9900F4274FF48
:102A7600F0A3EAF0A3E9022B85900861E0640170F7
:102A860029900DE3E014F0D211E0C39401500374D1
:102A96001FF0900F3F74FFF0A3740AF0A374EAF0DE
:102AA600900DE3E0900F42022B85900861E06402EE
:102AB600702D900DF0E0D394004005E014F08005F1
:102AC600E4900DF0F0D200900F3F74FFF0A3740A6B
:102AD600F0A374F1F0900DF0E0900F42022B859078
:102AE6000861E06403702D900DF9E0D39400400571
:102AF600E014F08006900DF9740CF0D201900F3FAF
:102B060074FFF0A3740AF0A374EAF0900DF9E09054
:102B16000F42806B900861E06404702D9008EEE02F
:102B2600D394004005E014F080069008EE743BF064
:102B3600D20D900F3F74FFF0A3740AF0A374EAF06D
:102B46009008EEE0900F428036900861E0640570D0
:102B56006590096EE0FFB450057441F0800AEFB449
:102B6600410690096E7450F0D20E900F3F74FFF03C
:102B7600A3740AF0A374F9F090096EE0900F42F086
:102B86007B017A1079A6121E6B900EB174FFF0A32A
:102B9600740AF0A374E3F0A37403F0A37401F0A322
:102BA6007410F0A374A6F0A37401F0A3E4F0A3F0EC
:062BB600A374D71232AB3C
:012BBC0022F6
:10266C00900861E004F0E07003022807900861E034
:10267C0064017035D211900EB174FFF0A3740AF09E
:10268C00A374E3F0A37403F0A374FFF0A3740BF032
:10269C00740A12329D900F3F74FFF0A3740AF0A3DA
:1026AC0074EAF0900DE30227AA900861E0640270CE
:1026BC0035D200900EB174FFF0A3740AF0A374E34A
:1026CC00F0A37403F0A374FFF0A3740BF074151251
:1026DC00329D900F3F74FFF0A3740AF0A374F1F0D5
:1026EC00900DF00227AA900861E064037036D201C5
:1026FC00900EB174FFF0A3740AF0A374E3F0A3740A
:10270C0003F0A374FFF0A3740BF0A3742012329E99
:10271C00900F3F74FFF0A3740AF0A374EAF0900DCD
:10272C00F90227AA900861E064047037D20DD20E2A
:10273C00900EB174FFF0A3740AF0A374E3F0A374C9
:10274C0003F0A374FFF0A3740BF0A3742B12329E4E
:10275C00900F3F74FFF0A3740AF0A374EAF0900892
:10276C00EE803B900861E06405703AD20E900EB199
:10277C0074FFF0A3740AF0A374E3F0A37403F0A342
:10278C0074FFF0A3740BF0A3743612329E900F3FBB
:10279C0074FFF0A3740AF0A374F9F090096EE09042
:1027AC000F42022858900861E064067042D20E90E5
:1027BC000EB174FFF0A3740AF0A374E3F0A37403D6
:1027CC00F0A374FFF0A3740BF0A3744112329E902B
:1027DC000EB174FFF0A3740AF0A374E3F0A37403B6
:1027EC00F0A374FFF0A3740BF0A3744C02287F9039
:1027FC000861E06407600302288FF0D212900EB1DA
:10280C0074FFF0A3740AF0A374E3F0A37403F0A3B1
:10281C0074FFF0A3740AF0A374FF12329E900F3F62
:10282C0074FFF0A3740AF0A374D8F0900DE9E025BE
:10283C00E02403F582E4340EF583E0FEA3E0AA065F
:10284C00F9900F4274FFF0A3EAF0A3E9F07B017A50
:10285C001079E6121E6B900EB174FFF0A3740AF09F
:10286C00A374E3F0A37403F0A37401F0A37410F049
:10287C00A374E6F0A37401F0A3E4F0A3F0A374D75F
:03288C001232AB5A
:01288F002226
:10354600301216900DE9E0FF1200269008F4EFF015
:103556007D017F05123D2CC212301116900DE3E05D
:10356600FF1200269008F3EFF07D017F04123D2C38
:10357600C211300016900DF0E0FF1200269008F5FB
:10358600EFF07D017F06123D2CC200200103300EB4
:103596003D900DF9E0FF120026300E2490096EE0F2
:1035A600FE90022BF0EF4440FFEEB45006EF44606D
:1035B600FF800B90096EE0B44104EF545FFFC20E2A
:1035C6009008F1EFF07D017F02123D2CC201300D13
:1035D600169008EEE0FF1200269008F0EFF07D014D
:0F35E6007F01123D2CC20DE4900861F002289085
:10003E00E4900E1DF0900228F0900868F090022BCC
:10004E007450F090086C7401F0900850F0900853C2
:10005E00F0E4900866F090022CF090086A04F0022A
:02006E00372C2D
:10002600EF75F00A84C454F0FEEF75F00A84E5F02B
:020036004EFF7B
:0100380022A5
:0E3D4A00EFC4540F75F00AA4FEEF540F2EFFC5
:013D58002248
:10316700122890900F3F74FFF0A3740BF0A37451D3
:10317700F0900853E025E02403F582E4340EF5834C
:10318700E0FEA3E0AA06F9900F4274FFF0A3EAF06D
:10319700A3E9F0900850E0900F45F0900866E090A2
:1031A7000F46F090086CE025E02416F582E4340021
:1031B700F583E0FEA3E0AA06F9900F4774FFF0A39A
:1031C700EAF0A3E9F07B017A0E796E121E6B900E7E
:1031D700B174FFF0A3740AF0A374E3F0A37405F0CD
:1031E700A37401F0A3740EF0A3746EF090085AE074
:1031F700FFA3E0900EB8CFF0A3EFF090085EE0FFDA
:10320700A3E0900EBACFF0A3EFF07BFF7A0B7966BD
:103217001232B2C203900F3F74FFF0A3740BF0A3F6
:10322700746DF0900868E0900F42F0900228E090EB
:103237000F43F0900E1DE0900F44F090022BE090AA
:103247000F45F07B017A0E796E121E6B900EB174EA
:10325700FFF0A3740AF0A374E3F0A37405F0A3745A
:1032670001F0A3740EF0A3746EF090085AE0FFA368
:10327700E0900EB8CFF0A3EFF090085FE0242AFEAD
:1032870090085EE03400900EBAF0A3CEF07BFF7A90
:063297000B79660232B261
:10007600E4900E28F0A3F0900E6AF0A3F0123D86ED
:10008600123D09123A6C123D68123B8912349012E5
:100096003CBDD205E4900DF1F0A3F0900DFAF0A36B
:1000A600F0D20C900DFCE0FEA3E0FF7C277D101241
:1000B60021EBED4C600302019590084BE07002A322
:1000C600E07003020195122890900F3F74FFF0A391
:1000D600740BF0A37487F0900868E0900F42F090DC
:1000E6000228E0900F43F090022BE0900F44F07B43
:1000F600017A0E792A121E6B900EB174FFF0A3746A
:100106000BF0A37496F0A37402F0A314F0A3740E7C
:10011600F0A3742AF0A3E4F0A374A0F0E4A3F0A380
:10012600F07BFF7A0A79E31232B2900F3F74FFF048
:10013600A3740BF0A3749DF0900866E0900F42F054
:10014600900853E0900F43F0900850E0900F44F071
:100156007B017A0E792A121E6B900EB174FFF0A302
:10016600740BF0A37496F0A37402F0A314F0A374B6
:100176000EF0A3742AF0A3E4F0A37496F0A3E4F0BF
:10018600A37414F07BFF7A0A79E31232B2C20390A9
:100196000E20E07002A3E07003020249900DFCE01D
:1001A600FEA3E0FF7C277D101221EBED4C600302DD
:1001B6000249123167900012E0FEA3E0FFEE6003F1
:1001C600020249EF24FE601F14602B14603714608E
:1001D6004314604F2405706B900F3F74FFF0A374B7
:1001E6000BF0A374B18049900F3F74FFF0A3740B1A
:1001F600F0A374C0803A900F3F74FFF0A3740BF025
:10020600A374CF802B900F3F74FFF0A3740BF0A361
:1002160074DE801C900F3F74FFF0A3740BF0A37480
:10022600ED800D900F3F74FFF0A3740BF0A374FCE8
:10023600F07B017A0E792A121E6B7B017A0E792ADF
:100246001237AE900854E07002A3E070030203C8B0
:10025600900DFCE0FEA3E0FF7C277D101221EBED64
:100266004C60030203C87F36123BFD900000EFF09E
:10027600900DE6E4F0A3EFF0900BC1E07002A3E06E
:10028600900F3F601874FFF0A3740CF0A3740BF08A
:10029600900DE6E0FFA3E0900F42CF802874FFF0B8
:1002A600A3740CF0A37415F0900DE6E0FEA3E0FF36
:1002B6007C007D091221847D051221EBEF2420FFAD
:1002C600E43E900F42F0A3EFF07B017A0E792A12FA
:1002D6001E6B900EB174FFF0A3740AF0A374DCF0E9
:1002E600A37402F0A314F0A3740EF0A3742AF0A36F
:1002F6007401F0A3746DF0A374FFF0A374FCF07B9B
:10030600FF7A0A79E31232B2900231E07002A3E07A
:1003160070030203C8900858E0FEA3E0FFC3940AE6
:10032600EE64809480900F3F74FF503FF0A3740CEE
:10033600F0A3741FF0A3EEF0A3EFF07B017A0E7921
:100346002A121E6B900EB174FFF0A3740CF0A37406
:1003560022F0A37406F0A37401F0A3740EF0A37444
:100366002AF0A37401F0A374318046F0A3740CF054
:10037600A3741FF0900858E0FFA3E0900F42CFF05F
:10038600A3EFF07B017A0E792A121E6B900EB174E0
:10039600FFF0A3740CF0A37422F0A37406F0A37408
:1003A60001F0A3740EF0A3742AF0A37401F0A374F1
:1003B60022F0A3E4F0A37414F07BFF7A0A79E31227
:1003C60032B2900231E07002A3E0700302074A9055
:1003D6000DFCE0FEA3E0FFEE3395E0FDFCE47B5070
:1003E6007AC3F9F8123A28AC00AD01AE02AF03ECBD
:1003F6004D4E4F600302074A90084DE0FEA3E0FF12
:10040600D39414EE64809480504CEF940FEE648085
:1004160094804042900DE6E0FEA3E0FF9414EE6463
:10042600809480500C900DEA7402F0A374BCF080A6
:10043600157C007D82122184EF2494FFEE34F8901F
:100446000DEAF0A3EFF0900F3F74FFF0A3740CF0E9
:10045600A3742902057790084DE0FEA3E0FFD3942C
:100466000FEE64809480504CEF940AEE6480948082
:100476004042900DE6E0FEA3E0FF9414EE64809403
:1004860080500C900DEA7401F0A374F4F080157C92
:10049600007D64122184EF2424FFEE34FA900DEAE5
:1004A600F0A3EFF0900F3F74FFF0A3740CF0A37469
:1004B6003102057790084DE0FEA3E0FFD3940AEEE3
:1004C60064809480504BEF9405EE648094804041A4
:1004D600900DE6E0FEA3E0FF9414EE648094805055
:1004E6000C900DEA7401F0A3742CF080157C007D4D
:1004F60046122184EF24B4FFEE34FB900DEAF0A3FC
:10050600EFF0900F3F74FFF0A3740CF0A3743980E2
:100516006090084DE0FEA3E0FFD39405EE6480945E
:100526008040030205B7EF9400EE64809480500388
:100536000205B7900DE6E0FEA3E0FF9414EE64809A
:100546009480500B900DEAE4F0A37464F080157C5F
:10055600007D28122184EF2444FFEE34FD900DEA3D
:10056600F0A3EFF0900F3F74FFF0A3740CF0A374A8
:1005760041F07B017A0E792A121E6B900EB174FF40
:10058600F0A3740AF0A374DCF0A37404F0A374015E
:10059600F0A3740EF0A3742AF0A37401F0A37404FC
:1005A600F0A3E4F0A37450F07BFF7A0A79E31232E9
:1005B600B2D390084EE0940090084DE06480948099
:1005C6005069E4900231F0A3F0C3900859E0940A10
:1005D600900858E064809480900F3F74FF5022F09A
:1005E600A3740CF0A37449F0900868E0900F42F0F1
:1005F600900228E0900F43F090022BE0900F448089
:1006060014F0A3740CF0A37460F0A37401F0A37447
:1006160009F0A37478F07B017A0E792A121E6B7B9F
:0B062600017A0E792A1237AE02074A53
:100631001239927C007D0A1221EBED2401FFE43C8A
:10064100FE900E6CF0A3EFF0EE600302073CEF1496
:10065100B40A00400302073C90066775F003A4C585
:100661008325F0C583730206850206950206A4025E
:1006710006B30206C20206D10206E00206EF020636
:10068100FE02070D900F3F74FFF0A3740CF0A374EA
:100691006A02071A900F3F74FFF0A3740CF0A37461
:1006A100868076900F3F74FFF0A3740CF0A374A2C0
:1006B1008067900F3F74FFF0A3740CF0A374BE80A9
:1006C10058900F3F74FFF0A3740CF0A374DA8049C3
:1006D100900F3F74FFF0A3740CF0A374F6803A906E
:1006E1000F3F74FFF0A3740DF0A37412802B900FD1
:1006F1003F74FFF0A3740DF0A3742E801C900F3F84
:1007010074FFF0A3740DF0A3744A800D900F3F7431
:10071100FFF0A3740DF0A37466F0900DEAE0FFA35F
:10072100E0900F42CFF0A3EFF07B017A0E792A120D
:100731001E6B7B017A0E792A1237AE90084EE024A7
:09074100FFF090084DE034FFF0D8
:10074A0090022FE07002A3E06033900DFCE0FEA35C
:10075A00E0FF7C077DD01221EBED4C7020900F3F1B
:10076A0074FFF0A3740DF0A37482F07B017A0E7902
:10077A002A121E6B7B017A0E792A1237AE90085C18
:10078A00E07002A3E07003020907900DFCE0FEA3EB
:10079A00E0FF7C4E7D201221EBED4C60030209073D
:1007AA00900BC1E07002A3E07F366074123BFD90AB
:1007BA000000EFF0900F3F74FFF0A3740DF0A374E4
:1007CA0092F0A3EFF07B017A0E792A121E6B900E3B
:1007DA00B174FFF0A3740DF0A37499F0A37406F03A
:1007EA00A37401F0A3740EF0A3742AF0A3E4F0A397
:1007FA0074D0F0A3E4F0A374A0F07BFF7A0A79E343
:10080A001232B27F36123BFD900000EFF0900F3F9C
:10081A0074FFF0A3740DF0A37492F0A3EF0208C75B
:10082A00123BFD900000EFF0900F3F74FFF0A374AD
:10083A000DF0A37492F0900000E075F009A4FFAEE9
:10084A00F07C007D05122196EF2420900F42F07B68
:10085A00017A0E792A121E6B900EB174FFF0A374FE
:10086A000DF0A37499F0A37406F0A37401F0A374B5
:10087A000EF0A3742AF0A3E4F0A374D0F0A3E4F07A
:10088A00A374A0F07BFF7A0A79E31232B27F3612A0
:10089A003BFD900000EFF0900F3F74FFF0A3740D42
:1008AA00F0A37492F0900000E075F009A4FFAEF096
:1008BA007C007D05122196EF2420900F42F07B01E7
:1008CA007A0E792A121E6B900EB174FFF0A3740D82
:1008DA00F0A37499F0A37406F0A37401F0A3740E44
:1008EA00F0A3742AF0A37401F0A37452F0A3E4F005
:1008FA00A374A0F07BFF7A0A79E31232B2200F03C5
:10090A000209BC121A54EE60030209BCEF1222AEAD
:10091A00095A0B095F15096416096917096E18093E
:10092A00731909781A097D1B098228098729098CF4
:10093A002A09912B09962C099B3209A03309A5345F
:10094A0009AA3509AF3609B43709B938000009BC14
:10095A00120003805D123C1E805812003980531227
:10096A0038E5804E123C3E8049123C5E8044123C7F
:10097A007E803F122419803A123944803512387F1A
:10098A008030123AAC802B123B2A8026123AEB8036
:10099A0021123D7E801C123D758017123D5980122E
:1009AA00123CF1800D123B5A800812300680031265
:1009BA002D34900DFDE004F07006900DFCE004F07B
:0309CA000200A97F
:10000300900F3F74FFF0A3740DF0A374A0F07B0175
:100013007A0E796E121E6B7B017A0E796E0237AE01
:101A5400900024E0FD646C704AA3E0646F7044A3BA
:101A6400E0B4613FE490085CF0A3F0900854F0A364
:101A7400F0900231F0A3F090022FF0A3F0900E202A
:101A8400F0A3F090084BF0A3F0900BC1F0A304F086
:101A9400E4900DEEF0A3F0900012F0A3F0C20FFE5C
:101AA4007F0B22EDB46718900025E0B46511A3E024
:101AB400B4740CA3E0B45F07C20F7E007F3422909D
:101AC4000024E0B47316A3E0B47411A3E0B4610C71
:101AD400A3E0B47207C20F7E007F3522900024E099
:101AE400646C6003021B7CA3E064326003021B7C11
:101AF400A3E064346003021B7CA3E064317079903A
:101B0400002AE0FB7013900029E024D0FEE434FFA7
:101B140090086DF0A3CEF0805890002BE0F9701B74
:101B2400900029E0FF7E007C007D0A122184EB2FC7
:101B3400FFEC3ECF24F0CF34FD802F90002AE0FF4D
:101B44007E007C007D0A122184AA06AB079000293E
:101B5400E0FF7E007D64122184EF2BFFEE3AFEE964
:101B64002FFFEC3ECF2430CF34EB90086DF0A3EF81
:101B7400F0C20F7E007F3622900024E0646C705027
:101B8400A3E06432704AA3E064347044A3E0643395
:101B9400703E90002AE0FB9000297010E024D0FEF3
:101BA400E434FF90022DF0A3CEF0801DE0FF7E0010
:101BB4007C007D0A122184EB2FFFEC3ECF24F0CF72
:101BC40034FD90022DF0A3EFF0C20F7E007F382287
:101BD400900024E06464707BA3E064747075A3E0F7
:101BE400645F706FA3E0249F605924FD601E24FC91
:101BF400603024FB603724FA603E24FA6019242CF8
:101C0400704A900012E4F0A304F08040900012E4C3
:101C1400F0A37402F08035900012E4F0A37403F092
:101C2400802A900012E4F0A37404F0801F90001244
:101C3400E4F0A37405F08014900012E4F0A3740699
:101C4400F08009900012E4F0A37407F0C20F7E0044
:101C54007F3722900024E0B46516A3E0B46E11A38C
:101C6400E0B4640CA3E0B46C07C20F7E007F1522BD
:101C7400900024E0FD646D701BA3E0B47016A3E033
:101C8400B45F11A3E0B46C0CA3E0B46F07C20F7E81
:101C9400007F17229009B9E07002A3E07018900049
:101CA40027E024D0FEE434FF9009B9F0A3CEF0C2BB
:101CB4000F7E007F18229009BBE07002A3E0701829
:101CC400900027E024D0FEE434FF9009BBF0A3CEBB
:101CD400F0C20F7E007F19229009BDE07002A3E0DC
:101CE4007018900027E024D0FEE434FF9009BDF082
:101CF400A3CEF0C20F7E007F1A229009BFE07002CB
:101D0400A3E07018900027E024D0FEE434FF90098B
:101D1400BFF0A3CEF0C20F7E007F1B22ED646D7076
:101D24001D900025E0B47016A3E0B45F11A3E0B4E5
:101D34006D0CA3E0B46107C20F7E007F28229000DF
:101D440024E0FDB46D16A3E0B47011A3E0B45F0CFD
:101D5400A3E0B47407C20F7E007F2922ED646D7086
:101D64001D900025E0B47016A3E0B45F11A3E0B4A5
:101D74006D0CA3E0B46F07C20F7E007F2A2290008F
:101D840024E0646D701BA3E0B47016A3E0B45F118B
:101D9400A3E0B46C0CA3E0B46107C20F7E007F2BF8
:101DA40022900024E0FD646D701BA3E0B47016A3C0
:101DB400E0B45F11A3E0B4730CA3E0B46507C20FF1
:101DC4007E007F2C22EDB46E18900025E0B47311D0
:101DD400A3E0B45F0CA3E0B46607C20F7E007F32B9
:101DE40022900024E0B46E16A3E0B47311A3E0B40F
:101DF4005F0CA3E0B46307C20F7E007F3322E4FECE
:021E0400FF22BB
:103C1E00900F3F74FFF0A3740DF0A374C0F07B01FE
:103C2E007A0E796E121E6B7B017A0E796E0237AEAA
:0100390022A4
:1038E500900E1EE4F0A37405F0900F3F74FFF0A353
:1038F500740DF0A374D6F07B017A097978121E6BEA
:10390500E49009B9F0A3F0A3F0A3F0A3F0A3F0A30A
:10391500F0A3F0900DEEF0A3F090084BF0A3F0901B
:103925000F3F74FFF0A3740DF0A374C0F07B017A10
:0F3935000E796E121E6B7B017A0E796E0237AE21
:103C3E00900F3F74FFF0A3740DF0A374D7F07B01C7
:103C4E007A0E796E121E6B7B017A0E796E0237AE8A
:103C5E00900F3F74FFF0A3740DF0A374ECF07B0192
:103C6E007A0E796E121E6B7B017A0E796E0237AE6A
:103C7E00900F3F74FFF0A3740EF0A37401F07B015C
:103C8E007A0E796E121E6B7B017A0E796E0237AE4A
:10241900900F3F74FFF0A3740EF0A37416F07B01C4
:102429007A0E796E121E6B1237A8900DEEE07002CB
:10243900A3E070409009B9E07004A3E0640170342E
:102449009009BBE07004A3E0640270289009BDE024
:102459007004A3E06403701C9009BFE07004A3E05A
:1024690064047010900F3F74FFF0A3740EF0A3740E
:102479002B02255F900DEEE07002A3E070409009F9
:10248900B9E07004A3E0640970349009BBE07004FA
:10249900A3E0640970289009BDE07004A3E0640911
:1024A900701C9009BFE07004A3E064097010900FDC
:1024B9003F74FFF0A3740EF0A3745402255F900DCE
:1024C900EEE07002A3E0703F9009B9E07004A3E068
:1024D900640170339009BBE07004A3E064017027C4
:1024E9009009BDE07004A3E06401701B9009BFE08E
:1024F9007004A3E06401700F900F3F74FFF0A374A0
:102509000EF0A3745D804F900DEEE07004A3E064BB
:102519000160030225B09009B9E07004A3E06406E4
:1025290060030225B09009BBE07004A3E064077062
:10253900769009BDE07004A3E06408706A9009BF51
:10254900E07004A3E06409705E900F3F74FFF0A38C
:10255900740EF0A37462F07B017A097978121E6B0C
:10256900900F3F74FFF0A3740EF0A37431F0A374BD
:1025790001F0A37409F0A37478F07B017A0E796EE7
:10258900121E6B1237A8900F3F74FFF0A3740EF060
:10259900A3743FF07A0E796E121E6B1237A8900859
:1025A9004BE4F0A304F022900F3F74FFF0A3740EE4
:1025B900F0A3746BF07B017A0E796E121E6B1237E1
:1025C900A8900F3F74FFF0A3740EF0A37476F07A0D
:1025D9000E796E121E6B1237A8900F3F74FFF0A38D
:1025E900740EF0A3747EF07A0E796E121E6B123798
:1025F900A8E49009B9F0A3F0A3F0A3F0A3F0A3F025
:10260900A3F0A3F0900E1FE024FFF0900E1EE0341B
:10261900FFF0D3A3E09400900E1EE06480948050F4
:1026290018900DEEE4F0A304F0900F3F74FFF0A3AF
:10263900740EF0A37486F0801F900F3F74FFF0A30F
:10264900740EF0A3749DF0900E1EE0FFA3E0900FAE
:1026590042CFF0A3EFF07B017A0E796E121E6B1256
:0226690037A890
:01266B00224C
:01003A0022A3
:01007000226D
:01007100226C
:10394400E490085CF0A3F0900854F0A3F0900231E6
:10395400F0A3F090022FF0A3F0900E20F0A3F090CB
:103964000012F0A3F0900F3F74FFF0A3740EF0A3C5
:10397400743FF07B017A0E796E121E6B7B017A0E16
:0D398400796E1237AE90084BE4F0A304F00A
:013991002213
:10387F00900F3F74FFF0A3740EF0A374BFF07B01A1
:10388F007A0E796E121E6B7B017A0E796E1237AE3D
:10389F0090085CE4F0A304F0E490084BF0A3F090E0
:1038AF000BC1E07002A3E0900F3F700C74FFF0A308
:1038BF00740EF0A374D4800A74FFF0A3740EF0A3F7
:1038CF0074E3F07B017A0E796E121E6B7B017A0E18
:0538DF00796E1237AE06
:0138E40022C1
:103AAC00E4900858F0A3F090084DF0A37414F09033
:103ABC000F3F74FFF0A3740EF0A374F2F07B017A45
:103ACC000E796E121E6B7B017A0E796E1237AE90E8
:0E3ADC000854E4F0A304F0E490084BF0A3F0CB
:013AEA0022B9
:103B2A00900F3F74FFF0A3740FF0A37407F07B01AA
:103B3A007A0E796E121E6B7B017A0E796E1237AE8F
:0F3B4A0090022FE4F0A304F0E490084BF0A3F0F6
:013B59002249
:103AEB00900F3F74FFF0A3740FF0A3741DF09008B8
:103AFB006DE0FFA3E0900F42CFF0A3EFF07B017AD4
:103B0B000E796E121E6B7B017A0E796E1237AE90A8
:0E3B1B000E20E4F0A304F0E490084BF0A3F0B9
:013B29002279
:083D7E00E4900BC1F0A3F02258
:093D7500900BC1E4F0A304F0225C
:0F3D5900900859E004F07006900858E004F0223A
:103CF100E4900858F0A3F090084DF0A37414F090EC
:083D01000231E4F0A304F022FA
:103B5A00900F3F74FFF0A3740FF0A3743BF090082A
:103B6A006DE0FFA3E0900F42CFF0A3EFF07B017A64
:0F3B7A000E796E121E6B7B017A0E796E0237AEDA
:10300600900012E0FEA3E0FFEE6003023166EF14CB
:10301600B40700400302316690302C75F003A4C556
:103026008325F0C583730230410230550230F00229
:103036003103023116023129023151900F3F74FFDC
:10304600F0A3740FF0A37453F090085302313A9032
:103056000853E0FF6401601DEF64036018EF640528
:103066006013EF6407600EEF64086009EF640A609E
:1030760004EFB40C14900F3F74FFF0A3740FF0A389
:10308600747AF090085002313A900853E0FF6404D5
:10309600600EEF64066009EF64096004EFB40B1478
:1030A600900F3F74FFF0A3740FF0A374A1F0900883
:1030B6005002313A900853E06402701B900866E0B3
:1030C60054037013900F3F74FFF0A3740FF0A374B2
:1030D600C8F0900850805D900F3F74FFF0A3740F06
:1030E600F0A374EFF0900850804A900F3F74FFF001
:1030F600A37410F0A37416F09008668037900F3F03
:1031060074FFF0A3740FF0A37453F0900868802442
:10311600900F3F74FFF0A37410F0A3743DF090027B
:10312600288011900F3F74FFF0A37410F0A3743D34
:10313600F0900E1DE0900F42F07B017A0E796E1230
:103146001E6B7B017A0E796E0237AE90022BE0B4CD
:1031560050057441F0800690022B7450F012372C03
:013166002246
:102D3400900012E0FEA3E0FFEE7055EF24FE601B4E
:102D440014602314602B14603314603B240570401A
:102D540090022DA3E0900853F0803590022DA3E05B
:102D6400900850F0802A90022DA3E0900866F0802D
:102D74001F90022DA3E0900868F0801490022DA308
:102D8400E0900228F0800990022DA3E0900E1DF03F
:102D9400900853E0FF64016008EF64026003022EB0
:102DA40027900853E0F9240CFFE433FEEF25E0FFFD
:102DB400EE33FE900850E02401FDE433CD2FFBED0B
:102DC4003EFAE9240DFFE433FE7C007D03122184E6
:102DD4007D05122196EF2BFFEE3AFE900866E0F98E
:102DE40024FFFDE434FFFCEF2DFBEE3CFAEDAE04D2
:102DF4007802CEC313CE13D8F92BFBEA3EFAE924AA
:102E0400FFFFE434FFFE7C007D64122196C3EB9F38
:102E1400FBEA9EFA900866E024FFFFE434FFFE7CA0
:102E2400018061900853E02401FFE433FE7C007DBF
:102E3400031221847D05122196AC06AD079008503B
:102E4400E02401FBE433FA900853E075F002A42B6C
:102E5400FFE5F03ACF2DCF3CFE900866E0FD7A0006
:102E64002FFFEA3EFEED1313543F7C002FFFEC3E90
:102E7400FEE0F975F06484FDC3EF9DFBEE9CFAE976
:102E8400FF7E000C7D90122196EF2BFFEE3AFE7C24
:0E2E9400007D0712219690086CEDF002372C9D
:030000000236A025
:0C36A000787FE4F6D8FD7581230236E740
:10216B00BB010689828A83E0225002E722BBFE0272
:09217B00E32289828A83E49322A5
:10218400EF8DF0A4A8F0CF8CF0A428CE8DF0A42E6F
:02219400FE2229
:10219600BC000BBE0029EF8DF084FFADF022E4CC2D
:1021A600F875F008EF2FFFEE33FEEC33FCEE9DECF6
:1021B600984005FCEE9DFE0FD5F0E9E4CEFD22ED3C
:1021C600F8F5F0EE8420D21CFEADF075F008EF2F86
:1021D600FFED33FD4007985006D5F0F222C398FD77
:0521E6000FD5F0EA2214
:1021EB00C2D5EC30E709B2D5E4C39DFDE49CFCEE0F
:1021FB0030E715B2D5E4C39FFFE49EFE122196C3D0
:10220B00E49DFDE49CFC800312219630D507C3E4CA
:06221B009FFFE49EFE227D
:10222100A3F8E0C5F025F0F0E58215827002158370
:06223100E0C838F0E822CD
:103A2800C2D5E830E70FB2D5E4C39BFBE49AFAE4C9
:103A380099F9E498F8EC30E717B2D5123A5E1223F8
:103A48004FE4C39BFBE49AFAE499F9E498F88003FD
:103A580012234F30D50DE4C39FFFE49EFEE49DFD85
:043A6800E49CFC22BC
:10223700EB9FF5F0EA9E42F0E99D42F0E89C45F0FD
:012247002274
:102248007401FF3395E0FEFDFCA3A3A3E0CF2FF0BC
:10225800E582158270021583E0CE3EF0E582158294
:1022680070021583E0CD3DF0E5821582700215837A
:05227800E0CC3CF02267
:10227D00A8828583F0D083D08212229412229412E8
:10228D002294122294E473E493A3C583C5F0C5830D
:10229D00C8C582C8F0A3C583C5F0C583C8C582C8AB
:0122AD00220E
:1022AE00D083D082F8E4937012740193700DA3A3BF
:1022BE0093F8740193F5828883E4737402936860D3
:0622CE00EFA3A3A380DFD3
:101E0600E508243FF582E4340FF583E005082290C7
:101E16000F3C301C03900F3FE475F0011223F902CA
:101E2600216B2015E97F2ED2158018EF540F2490D0
:101E3600D43440D4FF30190BEF24BFB41A0050033A
:101E46002461FFE50960021509050CE50C70020521
:101E56000B301C0E900F3CE475F0011223F9EF02D3
:101E66002301023BB07403D21C8003E4C21CF508B4
:101E7600900F3C122410E4F509F50BF50CE509600A
:101E8600077F20121E4980F5750AFFC216C215C2C9
:101E960017C218C21AC21BC21D121E15FF700D30C2
:101EA6001C057F00121E5AAF0CAE0B22B4255FC272
:101EB600D5C219121E15FF24D0B40A00501A75F0A7
:101EC6000A780930D50508B6FF0106C6A426F6200D
:101ED600D5047002D21880D924CFB41A00EF50046A
:101EE600C2E5D21902205BD21680C6D21580C0D2B6
:101EF6001780BCD2D580BAD21A80B47F20121E4970
:101F06002017077401B5090040F1121E06FF121EC4
:101F160049021E83D21DD21B8095121E06FB121E7D
:101F260006FA121E06F94A4B7006792C7A217BFFB7
:101F360020172EE509602A7E008E82758300122204
:101F4600D460060EEE650A70F0C2D5EBC0E0EAC0BA
:101F5600E0E9C0E0EE1220A2D0E0F9D0E0FAD0E04D
:101F6600FB12216BFF60AAEBC0E0EAC0E0E9C0E02B
:101F7600121E49D0E02401F9D0E03400FAD0E0FB8B
:101F8600E50A0460DCD50AD980877BFF7A20799E32
:101F9600D217809C791080027908C21BC21D800866
:101FA600D2D5790A8004790AC2D5E50A047002F509
:101FB6000AE4FAFDFEFF121E06FC7B082016131229
:101FC6001E06FD7B1030150A121E06FE121E06FFA7
:101FD6007B20EC3382D592D55013C3E43015069F8F
:101FE600FFE49EFEE42016039DFDE49CFCE4CBF892
:101FF600C216EC700CCFCECDCCE824F8F870F38086
:1020060017C3EF33FFEE33FEED33FDEC33FCEB335A
:10201600FB994002FB0FD8E9EB301605F8D0E0C477
:1020260048B216C0E00AEC4D4E4F78207B0070C2D5
:10203600EAB50A0040BCC0E01220A4D0F0D0E020EF
:102046001604C4C0E0C4B216C0F0121E32D0F0D5D9
:10205600F0EB021E831222AE1F20531F9A581EF168
:102066004C1EED421F9E4F1FA6441FA6491F064346
:082076001FAC551F90461F909E
:10207E00451F9047214C501EF52D1EF92E1F1C2B6F
:10208E001EFD231F1A2021352A1EB54800001F14DD
:10209E003F3F3F00790AA2D5201814301A09B91013
:1020AE00020404B9080104A2D5201B025001042029
:1020BE0017689217B509005034C0E07F2030181908
:1020CE007F30A217721B721A500F1220FBC217C25A
:1020DE001BC21AC21D7F30800F301A03E9C0E012F6
:1020EE001E49301A03D0E0F9D0E0B509CC301A17EA
:1020FE007F30B9100C121E497F583019077F788037
:10210E0003B90803121E493017057F2D021E497FA1
:10211E0020201DF87F2B201BF322921780CF286ED4
:10212E00756C6C2900D216121E063016F8C216787F
:10213E000930D50108F6021EB52D50434958121E1E
:10214E00062403B405004001E490214793121E3A81
:0D215E00743A121E3AD218750904021F9A35
:103992009011261223E17810EC4D4E4F70047CA555
:1039A2007DA5C3EC13FCED13FDEE13FEEF13FF50E8
:1039B20010EC64CCFCED644CFDEE644EFEEF64CE84
:1039C200FFD8DF9011261223EDEE547FFE229011D4
:0D39D20026EEF0EFA3F0A374A5F0A3F02201
:1036AC00020076E493A3F8E493A34003F68001F2BE
:1036BC0008DFF48029E493A3F85407240CC8C3331F
:1036CC00C4540F4420C8834004F456800146F6DFEE
:1036DC00E4800B0102040810204080903398E47EB3
:1036EC00019360BCA3FF543F30E509541FFEE493E3
:1036FC00A360010ECF54C025E060A840B8E493A3AA
:10370C00FAE493A3F8E493A3C8C582C8CAC583CAD4
:10371C00F0A3C8C582C8CAC583CADFE9DEE780BE8C
:01348F00003C
:1022D400BB010CE58229F582E5833AF583E02250BF
:1022E40006E92582F8E622BBFE06E92582F8E22209
:0D22F400E58229F582E5833AF583E4932223
:10230100BB010689828A83F0225002F722BBFE01BB
:02231100F322B5
:1023130075F008758200EF2FFFEE33FECD33CDCC81
:1023230033CCC58233C5829BED9AEC99E582984004
:102333000CF582EE9BFEED9AFDEC99FC0FD5F0D6E1
:10234300E4CEFBE4CDFAE4CCF9A88222B800C1B90B
:102353000059BA002DEC8BF084CFCECDFCE5F0CB49
:10236300F97818EF2FFFEE33FEED33FDEC33FCEB82
:1023730033FB10D703994004EB99FB0FD8E5E4F93D
:10238300FA227818EF2FFFEE33FEED33FDEC33FC2A
:10239300C933C910D7059BE99A4007EC9BFCE99A1E
:1023A300F90FD8E0E4C9FAE4CCFB2275F010EF2F63
:1023B300FFEE33FEED33FDCC33CCC833C810D70763
:1023C3009BEC9AE899400AED9BFDEC9AFCE899F89E
:0E23D3000FD5F0DAE4CDFBE4CCFAE4C8F92231
:0C23E100E0FCA3E0FDA3E0FEA3E0FF226F
:0C23ED00ECF0A3EDF0A3EEF0A3EFF02263
:1023F900F8E0FBA3A3E0F925F0F0E582158270026D
:072409001583E0FA38F02210
:09241000EBF0A3EAF0A3E9F022CD
:103BB000EFB40A07740D123BBB740A309811A89930
:103BC000B8130CC2983098FDA899C298B811F63075
:073BD00099FDC299F599224D
:00000001FF
