:100BF2006D313042006D313242006D313442006D50
:100C0200313642006D323042006D323442006D3373
:100C12003242006D3438006D36340053554E004D6B
:100C22004F4E005455450057454400544855004620
:100C3200524900534154004E4F4E004A414E004625
:100C42004542004D415200415052004D4159004A27
:100C5200554E004A554C0041554700534550004FF0
:100C62004354004E4F5600444543005345542044DC
:100C720041544520414E442054494D4520202020D6
:100C820020200057524954494E4720444154412E96
:100C92002E2E205741495421202000444154412006
:100CA2005355434345535346554C4C592053415693
:100CB2004544004552524F5220202020202020201F
:100CC20020202020202020202020005320257320B7
:100CD20025730D00662025730D00742022257322D2
:100CE2002025752025750D0078692025752025752C
:100CF2002025750D006D2025750D002573200046F9
:100D02004646464646003030303030300025627567
:100D120020202000323025303262750025634D20BC
:100D22002000534554204D4F4E5448200053455403
:100D320020444154452020005345542059454152F6
:100D420020200053455420484F555220200053453F
:100D520054204D494E5554450053455420414D2F82
:100D6200504D2000505245535320444F4E45002DC4
:100D72002D2D2D0025732025303262752C20323026
:100D820025303262752025730025326275203A20A3
:100D92002530326275203A20253032627520256373
:100DA2004D2000253262753A253032627525634D39
:100DB2000046374639463800323025303262752FC8
:100DC20025303262752F2530326275007869203104
:100DD2003620313633203339330D007869203136ED
:100DE20020323337203339330D00786920313720F0
:100DF200333138203339330D0078692031362031D0
:100E02003633203433370D007869203136203235BD
:100E120038203433370D00786920313620333632AA
:100E2200203433370D00626F6479B0433A25640091
:100E3200626F6479B0463A25640025640046463004
:100E4200303030005354414745203100535441471C
:100E52004520320053544147452033005354414703
:100E6200452034006D206C6F736520253262752039
:100E720025303262752025634D0D006D2077696E35
:100E82002025730D006D2073746F6E655F64697346
:100E9200706C617920313333203131382025640D73
:100EA200006D2073746F6E655F646973706C617935
:100EB20020313138203135392025640D006D207301
:100EC200746F6E655F646973706C6179203132345E
:100ED200203230322025640D006D2073746F6E65F0
:100EE2005F646973706C617920313330203236333C
:100EF2002025640D006D2073746F6E655F646973E5
:100F0200706C617920313530203330302025640D0A
:100F1200006D2073746F6E655F646973706C6179C4
:100F220020343734203132302025640D006D207397
:100F3200746F6E655F646973706C617920343837E1
:100F4200203135392025640D006D2073746F6E6574
:100F52005F646973706C61792034383320323034C5
:100F62002025640D006D2073746F6E655F64697374
:100F7200706C617920343830203236362025640D89
:100F8200006D2073746F6E655F646973706C617954
:100F920020343532203330362025640D006D207424
:100FA2006578745F646973706C61790D0020252D1A
:100FB20035627500384438393839002045525200BC
:100FC2006D206C6F61645F6261725F66756C6C202C
:100FD20032323020323735203130302030330D007C
:100FE200006D20646973706C61795F6C6F67696E04
:100FF2005F706167650D006264203520302030200B
:1010020031202222203020302033372033370D0088
:10101200786D203520706F7765725F6F66665F62EC
:101022007574746F6E0D006D20646973706C6179F4
:101032005F6173746572696B5F310D006D20646965
:1010420073706C61795F6173746572696B5F320D85
:10105200006D20646973706C61795F61737465728D
:10106200696B5F330D006D20646973706C61795F29
:101072006173746572696B5F340D004A204C696E4E
:10108200006D207365745F7569642025730D006DB2
:1010920020646973706C61795F6D61696E5F706104
:1010A20067650D00532D482059616E670059204C29
:1010B20069004320446176696C61007869203430AC
:1010C200203020300D00786320616C6C0D00772099
:1010D200313030300D006D20646973706C61795F5E
:1010E2006C6F636B65645F706167650D006D206492
:1010F2006973706C61795F6C6F67696E5F6174743C
:10110200656D7074735F6C6566742025640D006D87
:1011120020646973706C61795F74656D705F706172
:1011220067650D006D2074656D705F756E69745F23
:10113200660D006D2074656D705F756E69745F6316
:101142000D006D20646973706C61795F67616D6514
:101152005F706167650D006D20646973706C617901
:101162005F6C617365725F706167650D006D20640D
:101172006973706C61795F73657474696E67735FAC
:1011820073637265656E2025642025640D006D20F1
:1011920061646A7573745F6272696768746E65739D
:1011A200732025640D006D20646973706C61795F32
:1011B200646174655F74696D655F736C696465729F
:1011C20020253032627520313220310D006D2064CD
:1011D2006973706C61795F646174655F74696D6570
:1011E2005F736C6964657220253032627520333119
:1011F20020310D006D20646973706C61795F6461E8
:1012020074655F74696D655F736C696465722025CE
:101212003032627520333020310D006D20646973E5
:10122200706C61795F646174655F74696D655F7329
:101232006C69646572202530326275203239203142
:101242000D006D20646973706C61795F646174650F
:101252005F74696D655F736C6964657220253032F5
:10126200627520323820310D006D20646973706C14
:1012720061795F646174655F74696D655F736C69E0
:1012820064657220253032627520393920300D00B4
:101292006D20646973706C61795F646174655F74F9
:1012A200696D655F736C69646572202530326275A1
:1012B20020353920300D00303030255830300025AF
:1012C20058255825580030302558303000302558E0
:0712D20030255830255800BB
:1037D50042085A00A342085E0189470DEF30304682
:1037E50046303000470DE430303030303000470E81
:1037F5001430304646303000C116C114C117C11F00
:10380500C11A5208350BF20BF70BFC0C010C060C18
:103815000B0C100C150C19C1124100140041023398
:103825000041086B004E00160C1D0C210C250C29BF
:103835000C2D0C310C355A0E1C0C390C3D0C410C61
:10384500450C490C4D0C510C550C590C5D0C610C7B
:10385500650C694809700C6D0C850C9D0CB5420012
:103865000400004200060000420008000041000B71
:103875000041000C0041000D0041000E0041000F09
:1038850000410010004809B9FFFF000000000000DA
:10389500420DFE0000420E37000542085C00004262
:1038A50008540000420231000042022F0000420885
:1038B5004B0000420E390000420BC10001420E0CC4
:1038C500000042084D0014420DF807D04208580088
:1038D5000042086D0078420DED0014420DEB00002A
:0F38E5004200120000420E1000FF420DFC0000D6
:10434600AF84E4900E87F0A3F075840F758A838F8F
:0143560084E2
:014357002243
:10410900AF8475840F75E12F75E20175E3C475A459
:104119000175A50175A7CA759C0F759D04E4F59EE7
:10412900759F807580FF7590FF75A0FF75B0FF754D
:0F413900C8FF75D8FF75E8FF75F8FFC2FF8F84C8
:014148002254
:0D43B40075A89243E70143E74043E60A2263
:1041E600AF84E4F584F5C875C90875CAF375CBFFC5
:1041F60085CBCD85CACC75C804F584759850759164
:064206000575A8908F84ED
:01420C00228F
:0743D20075FFDE75FFAD224F
:030023000217D8E9
:0D17D800C0E0C0F0C083C082C0D075D0104A
:1017E500900E3CE584F0E4FBFAA312284F000000BC
:1017F50000758400209803021C25C298900011E50D
:1018050099F0900DFAE0FEA3E0FFC3EE94024003C9
:10181500021BE4900011E0FD640D601D74352FF589
:101825008274023EF583EDF0900DFBE004F0700646
:10183500900DFAE004F0021C25900235E0FF647B70
:101845007028A3E06463701BA3E0B46D16A3E0B435
:101855007011A3E0B4650CA3E0B47D07D216D214D1
:10186500021BB1C216C214021BB1EF6428702EFA16
:10187500FBD3900DFBE09B900DFAE09A4073743515
:101885002BF58274023AF583E0FF74242BF58274FC
:10189500003AF583EFF00BBB00010A80D4900235C6
:1018A500E0646C704FA3E0646F7049A3E0646170FD
:1018B50043FAFBD3900DFBE09B900DFAE09A401F95
:1018C50074352BF58274023AF583E0FF74242BF509
:1018D5008274003AF583EFF00BBB00010A80D490C7
:1018E5000DFAE0FEA3E02424F58274003EF583E4BE
:1018F500F0021BA7900235E0F96473704FA3E06412
:10190500747049A3E064617043FAFBD3900DFBE06A
:101915009B900DFAE09A401F74352BF58274023ABC
:10192500F583E0FF74242BF58274003AF583EFF01C
:101935000BBB00010A80D4900DFAE0FEA3E024243D
:10194500F58274003EF583E4F0021BA7E964677035
:1019550051900236E064657049A3E064747043FAFF
:10196500FBD3900DFBE09B900DFAE09A401F743578
:101975002BF58274023AF583E0FF74242BF582740B
:10198500003AF583EFF00BBB00010A80D4900DFA05
:10199500E0FEA3E02424F58274003EF583E4F00222
:1019A5001BA7E9646C7051900236E064327049A35C
:1019B500E064347043FAFBD3900DFBE09B900DFA85
:1019C500E09A401F74352BF58274023AF583E0FFE7
:1019D50074242BF58274003AF583EFF00BBB0001FC
:1019E5000A80D4900DFAE0FEA3E02424F582740069
:1019F5003EF583E4F0021BA7E9646C705190023652
:101A0500E064707049A3E0645F7043FAFBD3900D06
:101A1500FBE09B900DFAE09A401F74352BF582741C
:101A2500023AF583E0FF74242BF58274003AF583BE
:101A3500EFF00BBB00010A80D4900DFAE0FEA3E0A5
:101A45002424F58274003EF583E4F0021BA7E964C3
:101A5500657051900236E0646E7049A3E06464706D
:101A650043FAFBD3900DFBE09B900DFAE09A401FE3
:101A750074352BF58274023AF583E0FF74242BF557
:101A85008274003AF583EFF00BBB00010A80D49015
:101A95000DFAE0FEA3E02424F58274003EF583E40C
:101AA500F0021BA7E9646D7051900236E064707016
:101AB50049A3E0645F7043FAFBD3900DFBE09B9074
:101AC5000DFAE09A401F74352BF58274023AF583BE
:101AD500E0FF74242BF58274003AF583EFF00BBB1D
:101AE50000010A80D4900DFAE0FEA3E02424F582DB
:101AF50074003EF583E4F0021BA7E9646E70509014
:101B05000236E064737048A3E0645F7042FAFBD369
:101B1500900DFBE09B900DFAE09A401F74352BF574
:101B25008274023AF583E0FF74242BF58274003A3F
:101B3500F583EFF00BBB00010A80D4900DFAE0FEAF
:101B4500A3E02424F58274003EF583E4F08053E994
:101B550064647054900236E06474704CA3E0645F72
:101B65007046FAFBD3900DFBE09B900DFAE09A408E
:101B75001F74352BF58274023AF583E0FF74242B2C
:101B8500F58274003AF583EFF00BBB00010A80D4AF
:101B9500900DFAE0FEA3E02424F58274003EF5835F
:101BA500E4F0C217D21F8004D217C21F7A007B004F
:101BB500D3900DFBE09B900DFAE09A401374352B02
:101BC500F58274023AF583E4F00BBB00010A80E06C
:101BD500900E03E4F0A3F0900DFAF0A3F08041908D
:101BE5000DFAE0FEA3E0FF900E03E0FCA3E0FDC3C9
:101BF5009FEC9E501C74352DF58274023CF583E4F0
:101C0500F0900E04E004F070D6900E03E004F0802E
:101C1500CE900E03E4F0A3F0900DFAF0A3F0C21FEE
:101C2500209903021CB8C299301C03021CB6900E01
:101C35000AE0FEA3E02435F58274043EF583E0F561
:101C450099900E0BE004F07006900E0AE004F02067
:101C55009913900E3D12281AE47B487A26F9F8D399
:101C650012280950EAE47F487E26FDFC900E3DE0EF
:101C7500F8A3E0F9A3E0FAA3E0FBC31228094002A8
:101C8500D299900E3D12284F00000000C3900E0A15
:101C9500E094044004E4F0A3F0900E01E0FEA3E01C
:101CA500FF900E0AE0B5160BA3E0B51706D21C800F
:091CB50002D215900E3CE0F5840A
:0B1CBE00D0D0D082D083D0F0D0E03234
:0F4369007F2E12425A8F207F2F12425A8F21220D
:063E56007B017A0E798762
:103E5C00900F55E584F012273D604E201C14900EF7
:103E6C0001E0FEA3E0FF900E0AE06E7003A3E06F8A
:103E7C00602E12273DFF900E01E475F0011227F31E
:103E8C00FC743525F0F58274043CF583EFF0C39097
:103E9C000E01E094044004E4F0A3F0301C02C21CB8
:103EAC00740129F9E43AFA80AD301507C215E4F52E
:093EBC0084D299900F55E0F584C1
:013EC50022DA
:1038F500900ECA74FFF0A3740FF0A374B6F0A3740E
:1039050006F0A37401F0A3740EF0A37443F0A3E4CE
:10391500F074D0A3F0A3E4F074A0A3F07BFF7A0DBC
:0239250079081F
:0B392700900EC7EBF0A3EAF0A3E9F05C
:10393200900F5874FFF0A3740CF0A374CDF0900EA6
:10394200C7E0F9A3E0FAA3E0900F5BC9F0A3EAF0A5
:10395200A3E9F0900ECAE0F9A3E0FAA3E0900F5EAB
:10396200C9F0A3EAF0A3E9F07B017A0E79D512211E
:10397200847B017A0E79D5123E5C900F5874FFF069
:10398200A3740CF0A374D6F0900ECDE025E024359C
:10399200F582E43408F583E0FEA3E0AA06F9900F6D
:1039A2005B74FFF0A3EAF0A3E9F07A0E79D5122155
:1039B200847B017A0E79D5123E5C900F5874FFF029
:1039C200A3740CF0A374DCF0900ECEE0F9A3E0FA3D
:1039D200A3E0900F5BC9F0A3EAF0A3E9F0900ED147
:1039E200E0FFA3E0900F5ECFF0A3EFF0900ED3E0E4
:1039F200FFA3E0900F60CFF0A3EFF07A0E79D5121B
:0B3A020021847B017A0E79D5023E5C26
:0C407C00900F7DECF0A3EDF0AD03AC0262
:10408800900F5874FFF0A3740CF0A374EAF0A3EE39
:10409800F0A3EFF0900F7DE0FFA3E0900F5DCFF06D
:1040A800A3EFF0AF05A3ECF0A3EFF07B017A0F7953
:0D40B8007F1221847B017A0F797F023E5C2C
:0543D9007E00024234E9
:10423400900F5874FFF0A3740CF0A374F7F0A3EE7E
:10424400F0A3EFF07B017A0F79FF1221847B017ACE
:064254000F79FF023E5C41
:10328F00E4901143F0A3F0900015E06402705B909E
:10329F000024E064287019A3E024CE600D14600DA3
:1032AF00240260030233BB02337502337902337D8C
:1032BF00E4901143F0A3F0901143E0FEA3E0FF244C
:1032CF0024F58274003EF583E070030233BB74244F
:1032DF002FF58274003EF583E4F0901144E004F082
:1032EF0070D5901143E004F080CD900015E0640399
:1032FF007058900024E064287016A3E024CE600C70
:10330F0014600B240260030233BB805A805C805E22
:10331F00E4901143F0A3F0901143E0FEA3E0FF24EB
:10332F0024F58274003EF583E070030233BB7424EE
:10333F002FF58274003EF583E4F0901144E004F021
:10334F0070D5901143E004F080CD900015E0640437
:10335F00705A900024E0B4281CA3E024CE600B1414
:10336F00600C240270467F0280067F0380027F0478
:10337F001243D98037E4901143F0A3F0901143E04A
:10338F00FEA3E0FF2424F58274003EF583E0601C69
:10339F0074242FF58274003EF583E4F0901144E01D
:1033AF0004F070D8901143E004F080D0E490114302
:1033BF00F0A3F0901143E0FEA3E0FF2424F5827404
:1033CF00003EF583E0601C74242FF58274003EF5F7
:1033DF0083E4F0901144E004F070D8901143E004BE
:0333EF00F080D09B
:0133F20022B8
:103A0D00900E8912284F00000000900E8DE584F075
:103A1D00E4F584208675900E8912281A7BA07A868B
:103A2D0079017800D31228094061C287E4900E878E
:103A3D00F0A3F0900E88E004F07006900E87E0047D
:103A4D00F0900E87E07003A3E0F470E7D287208733
:103A5D0014900E8912281A7BA07A8679017800D3EA
:103A6D0012280950E9E4900E87F0A3F0C3900E8858
:103A7D00E0940A900E87E0648094805096A3E00451
:103A8D00F070E9900E87E004F080E175C00775CF06
:103A9D009143C040900E8DE0F584C212E490086908
:103AAD00F0900852F0900851F0900867F0900DF6E4
:053ABD00F09009B8F0D3
:013AC20022E1
:1042FA00AF84758401E4F5C8F5C975CBE275CA7A4D
:0A430A0085CBCD85CACCD2CA8F84C2
:014314002286
:030073000242DB6B
:0742DB00C0D075D000C00740
:1042E200AF8475840053C0BF43C0408F84C2CFC225
:0342F200128F84A4
:0542F500D007D0D0321B
:1043150074EF2FF582E43408F583EDF0EFFD7C00B2
:094325007B017A007F20023EC6F4
:10425A00900E87EFF0FD7C007B017A007F20123BF5
:10426A0072900E87E0246FF582E43408F583E0FF4C
:01427A002221
:0F437800AE05EFFD7C00EEFB7A007FD0023EC663
:0F438700AE05EFFD7C00EEFB7A007FD0023B72AB
:103B7200900EC9EFF0A3ECF0A3EDF0A3EAF0A3EBF3
:013B8200F052
:103B8300A3E584F0E4F58420C7FD2012FA900ECE5D
:103B9300E0F584900EC9E0FF245C600824D460043F
:103BA30024B0700E900ECAE0FCA3E0FDE4FBFA1211
:103BB3003EC6E4F58420C7FD2012FA900EC9E090BA
:103BC3000849F0900ECAE0FFA3E0900862CFF0A38B
:103BD300EFF0900ECCE0FFA3E0900E12CFF0A3EF36
:103BE300F0D212D220D2C520C7FD2012FA900ECEF9
:103BF300E0F584900EC9E0245C601824D4600C24A2
:103C0300B07016900852E0701080F89009B8E07018
:093C13000880F8900867E060FAEF
:013C1C002285
:023EC600A9074A
:103EC800E4900ECFF0A3F0A3F0A3E584F0E4F5842A
:103ED80020C7FD2012FA900849E9F0AF0590086262
:103EE800ECF0A3EFF0E92455600824DB601A24B055
:103EF800702C900224EAF0A3EBF0D212C220D2C5B3
:103F0800900869E0701880F8AF03900224EAF0A3E3
:103F1800EFF0D212C220D2C5900DF6E060FA900EF2
:043F2800D2E0F5846A
:013F2C002272
:03003B000212D9D5
:0D12D900C0E0C0F0C083C082C0D075D0104E
:1012E600C224E5C1131313541F14B40B00400302A8
:1012F600179C90130675F003A4C58325F0C5837368
:1013060002132702132702134C0213890214260222
:1013160014CB02179802155D02157302160A0217FE
:1013260009900849E0F5C253C2FEA220E43342C246
:10133600C2C5900002E4F0A3F0900000F0A3F09084
:10134600000AF002179E900849E0FFB4201E90089C
:1013560062E0FCA3E0FD64AB4C7007D2C4C212028B
:10136600179E8DC2900869E4F002179EEF64D06064
:101376000302179E900862A3E0F5C2900DF6E4F012
:1013860002179E900849E0FFB4202CC3900005E0A8
:10139600940A900004E094005011A3E004F0700653
:1013A600900004E004F0D2C502179E900004E4F019
:1013B600A3F09008698065EFB4D02CC3900007E0D5
:1013C600940A900006E094005011A3E004F0700621
:1013D600900006E004F0D2C502179E900006E4F0E5
:1013E600A3F0900DF68035900849E064A4600302EE
:1013F600179EC3900009E0940A900008E0940050FC
:1014060011A3E004F07006900008E004F0D2C502D3
:10141600179E900008E4F0A3F0900851040216000D
:10142600900849E0F96420704A900224E0FEA3E0A7
:10143600FF900000E0FCA3E0FDC39FEC9E502A90C5
:101446000863E02DFF900862E03CFE74EF2FF58202
:1014560074083EF583E0F5C2900001E004F0705890
:10146600900000E004F002179ED2C4C212900869F0
:10147600021793E964D0600302179E900224E0FEEF
:10148600A3E0FF900000E0FCA3E0FDC39FEC9E50AC
:101496002A900863E02DFF900862E03CFE74EF2F6F
:1014A600F58274083EF583E0F5C2900001E004F091
:1014B6007006900000E004F002179ED2C4C212909B
:1014C6000DF6021793900849E0FFB42029C3900057
:1014D60005E0940A900004E094005011A3E004F0A3
:1014E6007006900004E004F0D2C502179E90000436
:1014F600E4F0A3021600EFB4D029C3900007E094ED
:101506000A900006E094005011A3E004F0700690E3
:101516000006E004F0D2C502179E900006E4F0A390
:10152600021600900849E064A4600302179EC39067
:101536000009E0940A900008E094005011A3E0042A
:10154600F07006900008E004F0D2C502179E9000E5
:1015560008E4F0A3021600900E12E07004A3E06403
:10156600017005C2C202179ED2C202179E90084998
:10157600E0FFB42028C3900005E0940A900004E040
:1015860094005011A3E004F07006900004E004F00B
:10159600D2C502179E900004E4F0A3805DEFB4D09C
:1015A60028C3900007E0940A900006E094005011CA
:1015B600A3E004F07006900006E004F0D2C502171E
:1015C6009E900006E4F0A38031900849E064A46090
:1015D6000302179EC3900009E0940A900008E09465
:1015E600005011A3E004F07006900008E004F0D269
:1015F600C502179E900008E4F0A3F0D2C4C212D22E
:101606002402179E900849E0F96420704F900E124C
:10161600E0FEA3E0FF900002E0FCA3E0FDC39FEC28
:101626009E5031900863E02DFF900862E03CFE7406
:101636006F2FF58274083EF583E5C2F0D2C29000A2
:1016460003E004F07006900002E004F0900852E413
:10165600F002179EC2C2900852021793E964D07036
:1016660052900E12E0FEA3E0FF900002E0FCA3E021
:10167600FDC39FEC9E5031900863E02DFF900862F9
:10168600E03CFE746F2FF58274083EF583E5C2F0E8
:101696009009B8E4F0D2C2900003E004F07006901E
:1016A6000002E004F002179E9009B87401F0C2C26D
:1016B60002179EE964A4600302179E900E12E0FED4
:1016C600A3E0FF900002E0FCA3E0FDC39FEC9E5068
:1016D6002AAFC274C12DF58274093CF583EFF090F0
:1016E600084FF0D2C2900003E004F07006900002AA
:1016F600E004F0900867E4F002179EC2C290086703
:10170600021793900849E0FFB4202C900002E0FCF9
:10171600A3E0FD900863E02DFD900862E03CFC74B8
:101726006F2DF58274083CF583E5C2F0D2C4C2126F
:10173600D2C29008528056EFB4D02F900002E0FE3D
:10174600A3E0FF900863E02FFF900862E03EFE747E
:101756006F2FF58274083EF583E5C2F09009B874E0
:1017660001F0D2C4C212D2C2802E900849E0B4A4BD
:1017760027900002E0FEA3E024C1F58274093EF53D
:1017860083E5C2F0D2C4C212D2C29008677401F0D7
:101796008006D2248002D22430242A53C0BF43C0FC
:1017A60040C2C5C2C4C2C2C212C224900869740132
:1017B600F0900852F0900DF6F09009B8F0900851AC
:0717C600F0900867F0C2C3B8
:0B17CD00D0D0D082D083D0F0D0E0322A
:104358009008FD7404F0A37430F07D027F0E0243D0
:0143680078DC
:103DDA00900E36E0FF1200269008EFEFF0900228CE
:103DEA00E0FF1200269008F0EFF090086CE0FF1256
:103DFA0000269008F2EFF0900850E0FF120026909B
:103E0A0008F3EFF0900853E0FF1200269008F4EF51
:103E1A00F0900866E0FF1200269008F5EFF090088F
:103E2A0068E0FF120026EF4440FF90022BE0FEB448
:103E3A005006EF4460FF8008EEB44104EF545FFF80
:0C3E4A009008F1EFF07D07E4FF024378E0
:102C6E00E4900EC7F0A3F07D07FF12438790086F24
:102C7E00E0FF124396900E36EFF0900870E0FF12D0
:102C8E004396900228EFF0900871E0FF30E617901F
:102C9E00086A7401F0EF90022B30E5057450F08055
:102CAE000A7441F08005E490086AF0EF541FFF1299
:102CBE004396900868EFF0BF0C1090022BE0B441E1
:102CCE0003E48016900868E0801090022BE09008D4
:102CDE0068B45005E0240C8001E0900847F090089D
:102CEE0072E0FF12439690086CEFF0900873E0FFCD
:102CFE00124396900850EFF0900874E0FF1243963E
:102D0E00900853EFF0900875E0FF12439690086616
:102D1E00EFF090000BE0FF900853E0B5071890001D
:102D2E000CE0FF900850E0B5070C90000DE0FF900E
:102D3E000866E06F6002D21390000EE0FF90086804
:102D4E00E0FEB5071890000FE0FF900228E0B507EF
:102D5E000C900010E0FF900E36E06F6002D22390D0
:102D6E00022BE0FBB4501FEE240CFFE433FE7C007C
:102D7E007D3C122756900228E02FFFEC3E900EC7A6
:102D8E00F0A3EFF08028EBB44124900868E0B40C77
:102D9E0002E4F0900868E075F03CA4FF900228E091
:102DAE007C002FFEEC35F0900EC7F0A3CEF0900E07
:102DBE00C7E0FAA3E0FB7C007D3CFFAE0212276861
:102DCE00900233EDF07C007D3CAF03AE021227681B
:102DDE0090086BEFF0900850E090000CF0900853C4
:102DEE00E090000BF0900866E090000DF0900868FF
:102DFE00E090000EF0900228E090000FF0900E365A
:052E0E00E0900010F04F
:012E1300229C
:102FA200900861E07043900DF7E004F0D222E0D384
:102FB200940C40037401F0900F5874FFF0A3740C4A
:102FC200F0A374FDF0900DF7E025E0241CF582E4F7
:102FD200340EF583E0FEA3E0AA06F9900F5B74FFBE
:102FE200F0A3EAF0A3E90230E2900861E064017024
:102FF20029900DE3E004F0D221E0D3941F40037442
:1030020001F0900F5874FFF0A3740DF0A3740FF049
:10301200900DE3E0900F5B0230E2900861E0640201
:103022007029900E00E004F0D210E0D394634003C4
:103032007463F0900F5874FFF0A3740DF0A374162C
:10304200F0900E00E0900F5B0230E2900861E064C5
:10305200037028900E09E004F0D211E0D3940C40E2
:10306200037401F0900F5874FFF0A3740DF0A37471
:103072000FF0900E09E0900F5B8065900861E064AC
:103082000470279008EEE004F0D21DE0D3943B4098
:1030920002E4F0900F5874FFF0A3740DF0A3740FC4
:1030A200F09008EEE0900F5B8036900861E06405D6
:1030B200706C90096EE0FFB450057441F0800AEF25
:1030C200B4410690096E7450F0D21E900F5874FFEE
:1030D200F0A3740DF0A3741EF090096EE0900F5BE4
:1030E200F07B017A10797F122184900ECA74FFF06E
:1030F200A3740DF0A37408F0A37403F0A37401F099
:10310200A37410F0A3747FF0A37401F0A3E4F0A3FE
:0E311200F0A374D7F07BFF7A0D7901123927F4
:01312000228C
:102E1400900861E07043900DF7E014F0D222E0C313
:102E240094015003740CF0900F5874FFF0A3740CC9
:102E3400F0A374FDF0900DF7E025E0241CF582E486
:102E4400340EF583E0FEA3E0AA06F9900F5B74FF4D
:102E5400F0A3EAF0A3E9022F63900861E064017033
:102E640029900DE3E014F0D221E0C39401500374DF
:102E74001FF0900F5874FFF0A3740DF0A3740FF0BB
:102E8400900DE3E0900F5B022F63900861E0640211
:102E9400702D900E00E0D394004005E014F08005FE
:102EA400E4900E00F0D210900F5874FFF0A3740D4C
:102EB400F0A37416F0900E00E0900F5B022F639065
:102EC4000861E06403702D900E09E0D3940040057E
:102ED400E014F08006900E09740CF0D211900F5893
:102EE40074FFF0A3740DF0A3740FF0900E09E0903A
:102EF4000F5B806B900861E06404702D9008EEE035
:102F0400D394004005E014F080069008EE743BF082
:102F1400D21D900F5874FFF0A3740DF0A3740FF03A
:102F24009008EEE0900F5B8036900861E0640570D5
:102F34006C90096EE0FFB450057441F0800AEFB460
:102F4400410690096E7450F0D21E900F5874FFF031
:102F5400A3740DF0A3741EF090096EE0900F5BF063
:102F64007B017A1079BF122184900ECA74FFF0A3FA
:102F7400740DF0A37408F0A37403F0A37401F0A318
:102F84007410F0A374BFF0A37401F0A3E4F0A3F0F1
:0D2F9400A374D7F07BFF7A0D790112392765
:012FA100220D
:10248400900861E004F0E07003022699900861E08E
:102494006401704AD221900ECA74FFF0A3740DF047
:1024A400A37408F0A37403F0A374FFF0A3740DF0F5
:1024B400A3742FF0A37401F0A3E4F0A3F0A3749326
:1024C400F07BFF7A0D7901123927900F5874FFF0D1
:1024D400A3740DF0A3740FF0900DE3022628900866
:1024E40061E06402704AD210900ECA74FFF0A374C3
:1024F4000DF0A37408F0A37403F0A374FFF0A374A5
:102504000DF0A3743AF0A37401F0A3E4F0A3F0A3D4
:102514007493F07BFF7A0D7901123927900F587468
:10252400FFF0A3740DF0A37416F0900E0002262899
:10253400900861E06403704AD211900ECA74FFF0EF
:10254400A3740DF0A37408F0A37403F0A374FFF054
:10255400A3740DF0A37445F0A37401F0A3E4F0A3F5
:10256400F0A37493F07BFF7A0D7901123927900F51
:102574005874FFF0A3740DF0A3740FF0900E0902C9
:102584002628900861E06404704BD21DD21E900E80
:10259400CA74FFF0A3740DF0A37408F0A37403F0DD
:1025A400A374FFF0A3740DF0A37450F0A37401F0AE
:1025B400A3E4F0A3F0A37493F07BFF7A0D790112E6
:1025C4003927900F5874FFF0A3740DF0A3740FF023
:1025D4009008EE804F900861E06405704ED21E9022
:1025E4000ECA74FFF0A3740DF0A37408F0A374036F
:1025F400F0A374FFF0A3740DF0A3745BF0A3740153
:10260400F0A3E4F0A3F0A37493F07BFF7A0D7901B7
:10261400123927900F5874FFF0A3740DF0A3741EA1
:10262400F090096EE0900F5B0226FE900861E06472
:10263400067056D21E900ECA74FFF0A3740DF0A358
:102644007408F0A37403F0A374FFF0A3740DF0A353
:102654007466F0A37401F0A3E4F0A3F0A37493F000
:102664007BFF7A0D7901123927900ECA74FFF0A30B
:10267400740DF0A37408F0A37403F0A374FFF0A323
:10268400740DF0A37471022725900861E06407605B
:102694000302273CF0D222900ECA74FFF0A3740DFB
:1026A400F0A37408F0A37403F0A374FFF0A3740DF3
:1026B400F0A37424F0A37401F0A3E4F0A3F0A374D2
:1026C40093F07BFF7A0D7901123927900F5874FF2C
:1026D400F0A3740CF0A374FDF0900DF7E025E02452
:1026E4001CF582E4340EF583E0FEA3E0AA06F9901B
:1026F4000F5B74FFF0A3EAF0A3E9F07B017A107991
:10270400FF122184900ECA74FFF0A3740DF0A37419
:1027140008F0A37403F0A37401F0A37410F0A3747D
:10272400FFF0A37401F0A3E4F0A3F0A374D7F07B4B
:08273400FF7A0D79011239272B
:01273C00227A
:103AC300302216900DF7E0FF1200269008F4EFF075
:103AD3007D017F05124378C222302116900DE3E069
:103AE300FF1200269008F3EFF07D017F0412437864
:103AF300C221301016900E00E0FF1200269008F548
:103B0300EFF07D017F06124378C210201103301EAF
:103B13003D900E09E0FF120026301E2490096EE04E
:103B2300FE90022BF0EF4440FFEEB45006EF4460EA
:103B3300FF800B90096EE0B44104EF545FFFC21E97
:103B43009008F1EFF07D017F02124378C211301D1E
:103B5300169008EEE0FF1200269008F0EFF07D01CA
:0F3B63007F01124378C21DE4900861F0022C6EBE
:10003E00E4900E36F0900228F0900868F090022BB3
:10004E007450F090086C7401F0900850F0900853C2
:10005E00F0E4900866F090022CF090086A04F0022A
:02006E003DDA79
:10002600EF75F00A84C454F0FEEF75F00A84E5F02B
:020036004EFF7B
:0100380022A5
:0E439600EFC4540F75F00AA4FEEF540F2EFF73
:0143A40022F6
:10369F00122C6E900F5874FFF0A3740DF0A3747674
:1036AF00F0900853E025E0241CF582E4340EF583F6
:1036BF00E0FEA3E0AA06F9900F5B74FFF0A3EAF017
:1036CF00A3E9F0900850E0900F5EF0900866E0904C
:1036DF000F5FF090086CE025E02416F582E43400CB
:1036EF00F583E0FEA3E0AA06F9900F6074FFF0A344
:1036FF00EAF0A3E9F07B017A0E7987122184900E0C
:10370F00CA7401F0A3740DF0A374E4F0A37405F070
:10371F00A37401F0A3740EF0A37487F090085AE01D
:10372F00FFA3E0900ED1CFF0A3EFF090085EE0FF83
:10373F00A3E0900ED3CFF0A3EFF07B017A0D79EFDA
:10374F00123927C213900F5874FFF0A3740DF0A312
:10375F00748BF0900868E0900F5BF0900228E09077
:10376F000F5CF0900E36E0900F5DF090022BE09022
:10377F000F5EF07B017A0E7987122184900ECA7446
:10378F0001F0A3740DF0A374E4F0A37405F0A37417
:10379F0001F0A3740EF0A37487F090085AE0FFA312
:1037AF00E0900ED1CFF0A3EFF090085FE0242AFE57
:1037BF0090085EE03400900ED3F0A3CEF07B017A38
:0637CF000E7914023927F7
:10007600E4900E41F0A3F0900E83F0A3F01243D269
:100086001243461241091243B41241E6123A0D12C6
:1000960042FAD215E4900E01F0A3F0900E0AF0A3F6
:1000A600F0D21C90086CF0123554900E0CE0FEA3B2
:1000B600E0FF7C277D101227BDED4C600302019600
:1000C60090084BE07002A3E0700D90085CE07002AF
:1000D600A3E07003020196122C6E900F5874FFF085
:1000E600A3740DF0A374A5F0900868E0900F5BF080
:1000F600900228E0900F5CF090022BE0900F5DF0EC
:100106007B017A0E7943122184900ECA74FFF0A304
:10011600740DF0A374B3F0A37402F0A314F0A374E7
:100126000EF0A37443F0A37401F0A37415F0E4A3D6
:10013600F012391F900F5874FFF0A3740DF0A374DA
:10014600BAF0900866E0900F5BF0900853E0900FCD
:100156005CF0900850E0900F5DF07B017A0E7943D9
:10016600122184900ECA74FFF0A3740DF0A374B329
:10017600F0A37402F0A314F0A3740EF0A37443F07A
:10018600A37401F0A37409F0A3E4F0A37414807AB5
:10019600900E0CE0FEA3E0FF7C277D101227BDED3C
:1001A6004C706C900854E07002A3E06062122C6EF2
:1001B600900F5874FFF0A3740DF0A374A5F0900887
:1001C60068E0900F5BF0900228E0900F5CF09002E0
:1001D6002BE0900F5DF07B017A0E7943122184901B
:1001E6000ECA74FFF0A3740DF0A37401F0A3740299
:1001F600F0A314F0A3740EF0A37443F0A3E4F0A3E9
:1002060074BEF0A374FFF0A374FC123920C21390DD
:100216000E39E07002A3E070030202C9900E0CE0F2
:10022600FEA3E0FF7C277D101227BDED4C60030284
:1002360002C912369F900012E0FEA3E0FFEE6003B3
:100246000202C9EF24FE601F14602B14603714608D
:100256004314604F2405706B900F5874FFF0A3741D
:100266000DF0A374CE8049900F5874FFF0A3740D5F
:10027600F0A374DD803A900F5874FFF0A3740DF06C
:10028600A374EC802B900F5874FFF0A3740DF0A3A9
:1002960074FB801C900F5874FFF0A3740EF0A374C7
:1002A6000A800D900F5874FFF0A3740EF0A3741912
:1002B600F07B017A0E79431221847B017A0E794311
:1002C600123E5C900854E07002A3E0700302043909
:1002D600900E0CE0FEA3E0FF7C277D101227BDEDFB
:1002E6004C60030204397F3612425A900227EFF01F
:1002F600900DEDE4F0A3EFF0900BC1E07002A3E0E7
:10030600900F58601874FFF0A3740EF0A37428F0D1
:10031600900DEDE0FFA3E0900F5BCF802874FFF017
:10032600A3740EF0A37432F0900DEDE0FEA3E0FF8F
:100336007C007D091227567D051227BDEF2420FF7C
:10034600E43E900F5BF0A3EFF07B017A0E79431247
:100356002184900ECA74FFF0A3740DF0A37401F00B
:10036600A37402F0A314F0A3740EF0A37443F0A3D5
:100376007401F0A3746DF0A374FFF074FC12391FBE
:10038600900231E07002A3E070030204399008582D
:10039600E0FEA3E0FFC3940AEE64809480900F58B9
:1003A60074FF503FF0A3740EF0A3743CF0A3EEF07C
:1003B600A3EFF07B017A0E7943122184900ECA7462
:1003C600FFF0A3740EF0A3743FF0A37406F0A374B9
:1003D60001F0A3740EF0A37443F0A37401F0A374A8
:1003E600318046F0A3740EF0A3743CF0900858E0F8
:1003F600FFA3E0900F5BCFF0A3EFF07B017A0E79BD
:1004060043122184900ECA74FFF0A3740EF0A374F5
:100416003FF0A37406F0A37401F0A3740EF0A37466
:1004260043F0A37401F0A37422F0A3E4F0A37414C0
:10043600123920900231E07002A3E070030207B97E
:10044600900E0CE0FEA3E0FFEE3395E0FDFCE47BAE
:10045600407A9CF9F81240C5AC00AD01AE02AF037C
:10046600EC4D4E4F60030207B990084DE0FEA3E045
:10047600FFD39414EE64809480504CEF940FEE6496
:100486008094804042900DEDE0FEA3E0FF9414EED0
:1004960064809480500C900DF87402F0A374BCF044
:1004A60080157C007D82122756EF2494FFEE34F8E7
:1004B600900DF8F0A3EFF0900F5874FFF0A3740EB0
:1004C600F0A374460205E590084DE0FEA3E0FFD3D5
:1004D600940FEE64809480504CEF940AEE648094FE
:1004E600804042900DEDE0FEA3E0FF9414EE6480A0
:1004F6009480500C900DF87401F0A374F4F08015FC
:100506007C007D64122756EF2424FFEE34FA900D0A
:10051600F8F0A3EFF0900F5874FFF0A3740EF0A359
:10052600744E0205E590084DE0FEA3E0FFD3940A61
:10053600EE64809480504BEF9405EE648094804086
:1005460041900DEDE0FEA3E0FF9414EE64809480EC
:10055600500C900DF87401F0A3742CF080157C00FB
:100566007D46122756EF24B4FFEE34FB900DF8F0CB
:10057600A3EFF0900F5874FFF0A3740EF0A3745617
:10058600805D90084DE0FEA3E0FFD39405EE648005
:100596009480400302061EEF9400EE64809480402F
:1005A60077900DEDE0FEA3E0FF9414EE6480948056
:1005B600500B900DF8E4F0A37464F080157C007D78
:1005C60028122756EF2444FFEE34FD900DF8F0A3D1
:1005D600EFF0900F5874FFF0A3740EF0A3745EF062
:1005E6007B017A0E7943122184900ECA74FFF0A320
:1005F600740DF0A37401F0A37404F0A37401F0A3C6
:10060600740EF0A37443F0A37401F0A37404F0A372
:10061600E4F0A37450123920D390084EE094009071
:10062600084DE0648094805071E4900231F0A3F0AC
:10063600C3900859E0940A900858E064809480506A
:100646002A122C6E900F5874FFF0A3740EF0A37448
:1006560066F0900868E0900F5BF0900228E0900F3B
:100666005CF090022BE0900F5D8019900F5874FF9C
:10067600F0A3740EF0A3747DF0A37401F0A37409C3
:10068600F0A37478F07B017A0E79431221847B0102
:0A0696007A0E7943123E5C0207B9A8
:1006A00012402F7C007D0A1227BDED2401FFE43C9F
:1006B000FE900E85F0A3EFF0EE60030207ABEF149F
:1006C000B40A0040030207AB9006D675F003A4C538
:1006D0008325F0C583730206F402070402071302A0
:1006E000072202073102074002074F02075E020796
:1006F0006D02077C900F5874FFF0A3740EF0A37482
:1007000087020789900F5874FFF0A3740EF0A3744A
:10071000A38076900F5874FFF0A3740EF0A374BFFB
:100720008067900F5874FFF0A3740EF0A374DB8001
:1007300058900F5874FFF0A3740EF0A374F780491B
:10074000900F5874FFF0A3740FF0A37413803A90C5
:100750000F5874FFF0A3740FF0A3742F802B900F29
:100760005874FFF0A3740FF0A3744B801C900F58C3
:1007700074FFF0A3740FF0A37467800D900F58748A
:10078000FFF0A3740FF0A37483F0900DF8E0FFA3C3
:10079000E0900F5BCFF0A3EFF07B017A0E7943126C
:1007A00021847B017A0E7943123E5C90084EE0244E
:0907B000FFF090084DE034FFF069
:1007B90090022FE07002A3E06033900E0CE0FEA3DC
:1007C900E0FF7C077DD01227BDED4C7020900F58BB
:1007D90074FFF0A3740FF0A3749FF07B017A0E7974
:1007E900431221847B017A0E7943123E5C90085CA6
:1007F900E07002A3E07003020B24900E0CE0FEA34C
:10080900E0FF7C4E7D201227BDED4C6003020B24D6
:10081900124369900BC1E07002A3E0700302093F23
:10082900E520646670417F3612425A900227EFF044
:10083900900F5874FFF0A3740FF0A374AFF0A3EFF7
:10084900F07B017A0E79431221841238F57F371231
:10085900425A900229EFF0900F5874FFF0A3740FD9
:10086900F0A374AF020939E520647670417F36122E
:10087900425A900227EFF0900F5874FFF0A3740FBB
:10088900F0A374AFF0A3EFF07B017A0E7943122144
:10089900841238F57F3712425A900229EFF0900FEF
:1008A9005874FFF0A3740FF0A374BD020939E52051
:1008B900646E7F36703E12425A900227EFF0900F15
:1008C9005874FFF0A3740FF0A374BDF0A3EFF07B8D
:1008D900017A0E79431221841238F57F3712425A70
:1008E900900229EFF0900F5874FFF0A3740FF0A352
:1008F90074AF803C12425A900227EFF0900F58745F
:10090900FFF0A3740FF0A374BDF0A3EFF07B017A9D
:100919000E79431221841238F57F3712425A900218
:1009290029EFF0900F5874FFF0A3740FF0A374BD72
:10093900F0A3EF020AF3E520646670707F36124275
:100949005A900227EFF0900F5874FFF0A3740FF03C
:10095900A374AFF0900227E075F009A4FFAEF07C14
:10096900007D05122768EF2420900F5BF07B017A48
:100979000E79431221841238F57F3712425A9002B8
:1009890029EFF0900F5874FFF0A3740FF0A374AF20
:10099900F0900229E075F009A4FFAEF07C007D0516
:1009A900122768EF2420900F5B020AF3E520647692
:1009B90070707F3612425A900227EFF0900F5874E8
:1009C900FFF0A3740FF0A374AFF0900227E075F065
:1009D90009A4FFAEF07C007D05122768EF24209062
:1009E9000F5BF07B017A0E79431221841238F57F6F
:1009F9003712425A900229EFF0900F5874FFF0A372
:100A0900740FF0A374BDF0900229E075F009A4FFFA
:100A1900AEF07C007D05122768EF2420900F5B0261
:100A29000AF3E520646E7F36705512425A90022708
:100A3900EFF0900F5874FFF0A3740FF0A374BDF09A
:100A4900900227E075F009A4FFAEF07C007D051245
:100A59002768EF2420900F5BF07B017A0E7943120F
:100A690021841238F57F3712425A900229EFF0900B
:100A79000F5874FFF0A3740FF0A374AF020ADA12CF
:100A8900425A900227EFF0900F5874FFF0A3740FA9
:100A9900F0A374BDF0900227E075F009A4FFAEF051
:100AA9007C007D05122768EF2420900F5BF07B0105
:100AB9007A0E79431221841238F57F3712425A90FF
:100AC9000229EFF0900F5874FFF0A3740FF0A3748C
:100AD900BDF0900229E075F009A4FFAEF07C007D1D
:100AE90005122768EF2420900F5BF07B017A0E79BD
:100AF90043122184900ECA74FFF0A3740FF0A374FB
:100B0900B6F0A37406F0A37401F0A3740EF0A374F5
:100B190043F0A37401F07452123918201F03020B19
:100B2900E1121CC9EE6003020BE1EF1228800B7A77
:100B39000B0B7F150B84160B89170B8E180B93194A
:100B49000B981A0B9D1B0BA2280BA7290BAC2A0B80
:100B5900B12B0BB62C0BBB320BC0330BC5340BCAF4
:100B6900350BCF360BD4370BD9380BDE3900000BD8
:100B7900E11200038062123CBA805D12003980588C
:100B8900123C1D805312427B804E12429B804912B7
:100B990042BB80441229EB803F123F93803A123FB7
:100BA9002D80351241498030124187802B123FE157
:100BB90080261243CA80211243C1801C1243A5809A
:100BC9001712432E80121241B7800D1233F3800899
:100BD9001231218003123554900E0DE004F0700695
:090BE900900E0CE004F00200B0D3
:10000300900F5874FFF0A3740FF0A374C2F07B0138
:100013007A0E79871221847B017A0E7987023E5CFE
:101CC900900024E0FD646C704AA3E0646F7044A343
:101CD900E0B4613FE490085CF0A3F0900854F0A3ED
:101CE900F0900231F0A3F090022FF0A3F0900E399A
:101CF900F0A3F090084BF0A3F0900BC1F0A304F00F
:101D0900E4900DFEF0A3F0900012F0A3F0C21FFEC4
:101D19007F0B22EDB46718900025E0B46511A3E0AC
:101D2900B4740CA3E0B45F07C21F7E007F34229015
:101D39000024E0B47316A3E0B47411A3E0B4610CF9
:101D4900A3E0B47207C21F7E007F3522900024E011
:101D5900646C6003021DF1A3E064326003021DF1AB
:101D6900A3E064346003021DF1A3E064317079904B
:101D7900002AE0FB7013900029E024D0FEE434FF30
:101D890090086DF0A3CEF0805890002BE0F9701BFD
:101D9900900029E0FF7E007C007D0A122756EB2F78
:101DA900FFEC3ECF24F0CF34FD802F90002AE0FFD6
:101DB9007E007C007D0A122756AA06AB07900029EF
:101DC900E0FF7E007D64122756EF2BFFEE3AFEE915
:101DD9002FFFEC3ECF2430CF34EB90086DF0A3EF0A
:101DE900F0C21F7E007F3622900024E0646C7050A0
:101DF900A3E06432704AA3E064347044A3E064331E
:101E0900703E90002AE0FB9000297010E024D0FE7B
:101E1900E434FF90022DF0A3CEF0801DE0FF7E0098
:101E29007C007D0A122756EB2FFFEC3ECF24F0CF22
:101E390034FD90022DF0A3EFF0C21F7E007F3822FF
:101E4900900024E0646C6003021EE5A3E064326044
:101E590003021EE5A3E064346003021EE5A3E06407
:101E690032707990002AE0FB7013900029E024D0A9
:101E7900FEE434FF900E10F0A3CEF0805890002BB2
:101E8900E0F9701B900029E0FF7E007C007D0A12BA
:101E99002756EB2FFFEC3ECF24F0CF34FD802F9057
:101EA900002AE0FF7E007C007D0A122756AA06ABB5
:101EB90007900029E0FF7E007D64122756EF2BFF73
:101EC900EE3AFEE92FFFEC3ECF2430CF34EB900EF3
:101ED90010F0A3EFF0C21F7E007F3922900024E0AA
:101EE9006464707BA3E064747075A3E0645F706FD1
:101EF900A3E0249F605924FD601E24FC603024FB6C
:101F0900603724FA603E24FA6019242C704A900044
:101F190012E4F0A304F08040900012E4F0A37402EC
:101F2900F08035900012E4F0A37403F0802A900049
:101F390012E4F0A37404F0801F900012E4F0A3747B
:101F490005F08014900012E4F0A37406F080099063
:101F59000012E4F0A37407F0C21F7E007F372290BD
:101F69000024E0FDB46516A3E0B46E11A3E0B464E7
:101F79000CA3E0B46C07C21F7E007F1522ED646DCF
:101F8900701D900025E0B47016A3E0B45F11A3E0C2
:101F9900B46C0CA3E0B46F07C21F7E007F172290B8
:101FA90009B9E0B4FF1DA3E0B4FF18900027E024AD
:101FB900D0FEE434FF9009B9F0A3CEF0C21F7E0031
:101FC9007F18229009BBE0B4FF1DA3E0B4FF18906D
:101FD9000027E024D0FEE434FF9009BBF0A3CEF043
:101FE900C21F7E007F19229009BDE0B4FF1DA3E046
:101FF900B4FF18900027E024D0FEE434FF9009BD17
:10200900F0A3CEF0C21F7E007F1A229009BFE0B470
:10201900FF1DA3E0B4FF18900027E024D0FEE434AC
:10202900FF9009BFF0A3CEF0C21F7E007F1B229054
:102039000024E0646D701BA3E0B47016A3E0B45FE4
:1020490011A3E0B46D0CA3E0B46107C21F7E007F49
:102059002822900024E0FDB46D16A3E0B47011A30A
:10206900E0B45F0CA3E0B47407C21F7E007F29228D
:10207900ED646D701D900025E0B47016A3E0B45FA7
:1020890011A3E0B46D0CA3E0B46F07C21F7E007FFB
:102099002A22900024E0646D701BA3E0B47016A39B
:1020A900E0B45F11A3E0B46C0CA3E0B46107C21FF4
:1020B9007E007F2B22900024E0FD646D701BA3E05D
:1020C900B47016A3E0B45F11A3E0B4730CA3E0B439
:1020D9006507C21F7E007F2C22EDB46E1890002583
:1020E900E0B47311A3E0B45F0CA3E0B46607C21FA8
:1020F9007E007F3222900024E0B46E16A3E0B47310
:1021090011A3E0B45F0CA3E0B46307C21F7E007F94
:062119003322E4FEFF2268
:103CBA00900F5874FFF0A3740FF0A374E2F07B0125
:103CCA007A09797812218474FF9009B9F0A3F0A3D4
:103CDA00F0A3F0A3F0A3F0A3F0A3F0E4900DFEF09C
:103CEA00A3F090084BF0A3F0900F5874FFF0A37460
:103CFA000FF0A374E3F07B017A0E79871221847B9B
:103D0A00017A0E7987123E5C900F5874FFF0A37403
:103D1A000FF0A374F9F07A0E79871221847B017A65
:103D2A000E7987123E5C900F5874FFF0A37410F05E
:103D3A00A37412F07A0E79871221847B017A0E79A4
:043D4A0087023E5C52
:0100390022A4
:103C1D00900E37E4F0A37405F0900F5874FFF0A3E5
:103C2D00740FF0A374E2F07B017A09797812218484
:103C3D0074FF9009B9F0A3F0A3F0A3F0A3F0A3F0E3
:103C4D00A3F0A3F0E4900DFEF0A3F090084BF0A3C9
:103C5D00F0900F5874FFF0A3740FF0A374E3F07B92
:103C6D00017A0E79871221847B017A0E7987123EB3
:103C7D005C900F5874FFF0A3740FF0A374F9F07AF1
:103C8D000E79871221847B017A0E7987123E5C9022
:103C9D000F5874FFF0A37410F0A37412F07A0E791C
:0D3CAD00871221847B017A0E7987023E5C2C
:10427B00900F5874FFF0A37410F0A37429F07B0116
:10428B007A0E79871221847B017A0E7987023E5C44
:10429B00900F5874FFF0A37410F0A3743EF07B01E1
:1042AB007A0E79871221847B017A0E7987023E5C24
:1042BB00900F5874FFF0A37410F0A37453F07B01AC
:1042CB007A0E79871221847B017A0E7987023E5C04
:1029EB00900F5874FFF0A37410F0A37468F07B0180
:1029FB007A0E7987122184123E56900DFEE07002FA
:102A0B00A3E070409009B9E07004A3E06401703456
:102A1B009009BBE07004A3E0640270289009BDE04C
:102A2B007004A3E06403701C9009BFE07004A3E082
:102A3B0064047010900F5874FFF0A37410F0A3741B
:102A4B007D022B31900DFEE07002A3E070409009E7
:102A5B00B9E07004A3E0640970349009BBE0700422
:102A6B00A3E0640970289009BDE07004A3E0640939
:102A7B00701C9009BFE07004A3E064097010900F04
:102A8B005874FFF0A37410F0A374A6022B31900DB1
:102A9B00FEE07002A3E0703F9009B9E07004A3E080
:102AAB00640170339009BBE07004A3E064017027EC
:102ABB009009BDE07004A3E06401701B9009BFE0B6
:102ACB007004A3E06401700F900F5874FFF0A374AF
:102ADB0010F0A374AF804F900DFEE07004A3E06480
:102AEB00016003022B829009B9E07004A3E0640635
:102AFB006003022B829009BBE07004A3E0640770B3
:102B0B00769009BDE07004A3E06408706A9009BF79
:102B1B00E07004A3E06409705E900F5874FFF0A39B
:102B2B007410F0A374B4F07B017A097978122184C4
:102B3B00900F5874FFF0A37410F0A37483F0A37478
:102B4B0001F0A37409F0A37478F07B017A0E7987F6
:102B5B00122184123E56900F5874FFF0A37410F09C
:102B6B00A37491F07A0E7987122184123E56900845
:102B7B004BE4F0A304F022900F5874FFF0A37410F1
:102B8B00F0A374BDF07B017A0E7987122184123E7B
:102B9B0056900F5874FFF0A37410F0A374C8F07A1A
:102BAB000E7987122184123E56900F5874FFF0A3B2
:102BBB007410F0A374D0F07A0E7987122184123E30
:102BCB005674FF9009B9F0A3F0A3F0A3F0A3F0A300
:102BDB00F0A3F0A3F0900E38E024FFF0900E37E056
:102BEB0034FFF0D3A3E09400900E37E06480948020
:102BFB005017900DFEE4F0A304F0900F5874FFF003
:102C0B00A37410F0A374D8804E900F5874FFF0A3E8
:102C1B007410F0A374EFF0900E37E0FFA3E0900F69
:102C2B005BCFF0A3EFF07B017A0E79871221841230
:102C3B003E56900F5874FFF0A3740FF0A374F9F085
:102C4B007A0E7987122184123E56900F5874FFF03A
:102C5B00A37410F0A37412F07A0E798712218412E8
:022C6B003E56D3
:012C6D002244
:01003A0022A3
:01007000226D
:01007100226C
:103F9300E490085CF0A3F0900854F0A3F090023191
:103FA300F0A3F090022FF0A3F0900E39F0A3F0905D
:103FB3000012F0A3F0900F5874FFF0A37410F0A355
:103FC3007491F07B017A0E79871221847B017A0E3A
:0D3FD3007987123E5C90084BE4F0A304F0E7
:013FE00022BE
:103F2D00E490084BF0A3F0900F5874FFF0A37411B8
:103F3D00F0A37411F07B017A0E79871221847B0135
:103F4D007A0E7987123E5C90085CE4F0A304F09041
:103F5D000BC1E07002A3E0900F58700C74FFF0A33A
:103F6D007411F0A37426800A74FFF0A37411F0A3EA
:103F7D007435F07B017A0E79871221847B017A0EDC
:053F8D007987123E5C83
:013F9200220C
:10414900E490084BF0A3F0900858F0A3F090084DC4
:10415900F0A37414F0900F5874FFF0A37411F0A336
:104169007444F07B017A0E79871221847B017A0EDF
:0D4179007987123E5C900854E4F0A304F036
:014186002216
:10418700E490084BF0A3F0900F5874FFF0A374115C
:10419700F0A37459F07B017A0E79871221847B0191
:0F41A7007A0E7987123E5C90022FE4F0A304F0A9
:0141B60022E6
:103FE100E490084BF0A3F0900F5874FFF0A3741104
:103FF100F0A3746FF090086DE0FFA3E0900F5BCF2A
:10400100F0A3EFF0900E10E0FFA3E0900F5DCFF072
:10401100A3EFF07B017A0E79871221847B017A0E5E
:0D4021007987123E5C900E39E4F0A304F0A4
:01402E00226F
:0843CA00E4900BC1F0A3F02206
:0943C100900BC1E4F0A304F0220A
:0F43A500900859E004F07006900858E004F022E8
:10432E00E4900858F0A3F090084DF0A37414F090A8
:08433E000231E4F0A304F022B7
:1041B700900F5874FFF0A37411F0A37490F0900857
:1041C7006DE0FFA3E0900F5BCFF0A3EFF07B017AE8
:0F41D7000E79871221847B017A0E7987023E5C74
:1033F300900012E0FEA3E0FFEE6003023553EF14EA
:10340300B40700400302355390341975F003A4C583
:103413008325F0C5837302342E0234420234DD0265
:1034230034F002350302351602353E900F5874FF0F
:10343300F0A37411F0A374A8F090085302352790F9
:103443000853E0FF6401601DEF64036018EF640537
:103453006013EF6407600EEF64086009EF640A60AD
:1034630004EFB40C14900F5874FFF0A37411F0A37D
:1034730074CFF0900850023527900853E0FF64049E
:10348300600EEF64066009EF64096004EFB40B1487
:10349300900F5874FFF0A37411F0A374F6F0900822
:1034A30050023527900853E06402701B900866E0D1
:1034B30054037013900F5874FFF0A37412F0A374A5
:1034C3001DF0900850805D900F5874FFF0A37412A4
:1034D300F0A37444F0900850804A900F5874FFF0A2
:1034E300A37412F0A3746BF09008668037900F58A2
:1034F30074FFF0A37411F0A374A8F09008688024FB
:10350300900F5874FFF0A37412F0A37492F090021A
:10351300288011900F5874FFF0A37412F0A37492D3
:10352300F0900E36E0900F5BF07B017A0E798712F4
:1035330021847B017A0E7987023E5C90022BE0B4F2
:1035430050057441F0800690022B7450F0123DDA5E
:013553002255
:10312100900012E0FEA3E0FFEE7055EF24FE601B5D
:1031310014602314602B14603314603B2405704029
:1031410090022DA3E0900853F0803590022DA3E06A
:10315100900850F0802A90022DA3E0900866F0803C
:103161001F90022DA3E0900868F0801490022DA317
:10317100E0900228F0800990022DA3E0900E36F035
:10318100900853E0FF64016008EF640260030232BB
:1031910014900853E0F9240CFFE433FEEF25E0FF1F
:1031A100EE33FE900850E02401FDE433CD2FFBED1A
:1031B1003EFAE9240DFFE433FE7C007D031227561D
:1031C1007D05122768EF2BFFEE3AFE900866E0F9C5
:1031D10024FFFDE434FFFCEF2DFBEE3CFAEDAE04E1
:1031E1007802CEC313CE13D8F92BFBEA3EFAE924B9
:1031F100FFFFE434FFFE7C007D64122768C3EB9F70
:10320100FBEA9EFA900866E024FFFFE434FFFE7CAF
:10321100018061900853E02401FFE433FE7C007DCE
:10322100031227567D05122768AC06AD079008509A
:10323100E02401FBE433FA900853E075F002A42B7B
:10324100FFE5F03ACF2DCF3CFE900866E0FD7A0015
:103251002FFFEA3EFEED1313543F7C002FFFEC3E9F
:10326100FEE0F975F06484FDC3EF9DFBEE9CFAE985
:10327100FF7E000C7D90122768EF2BFFEE3AFE7C5B
:0E328100007D0712276890086CEDF0023DDA20
:10355400900E10E0FEA3E0FFC39410EE648094800C
:103564005053900F5874FFF0A37412F0A374B9F081
:10357400A3EEF0A3EFF07B017A0D79EF1221849092
:103584000F5874FFF0A37412F0A374B9F0900E10E6
:10359400E0FFA3E0900F5BCFF0A3EFF07B017A0E86
:1035A4007914122184900F5874FFF0A37412F0A3BD
:1035B40074C1023671900E10E0FEA3E0FFD394EFC5
:1035C400EE64809480900F5874FF404DF0A3741201
:1035D400F0A374C8F0A3EEF0A3EFF07B017A0D79A9
:1035E400EF122184900F5874FFF0A37412F0A374A7
:1035F400C8F0900E10E0FFA3E0900F5BCFF0A3EFB4
:10360400F07B017A0E7914122184900F5874FFF024
:10361400A37412F0A374CF8054F0A37412F0A374B3
:10362400C8F0900E10E0FFA3E0900F5BCFF0A3EF83
:10363400F07B017A0D79EF122184900F5874FFF01A
:10364400A37412F0A374C8F0900E10E0FFA3E090EE
:103654000F5BCFF0A3EFF07B017A0E791412218473
:10366400900F5874FFF0A37412F0A374C1F0900E7D
:1036740010E0FEA3E0FFC374FF9FFFE49EFE900FE3
:103684005BF0A3EFF0A3EEF0A3EFF0A3EEF0A3EF53
:0A369400F07B017A0D79E412218425
:01369E002209
:03000000023D4E70
:0C3D4E00787FE4F6D8FD758125023D95D4
:10273D00BB010689828A83E0225002E722BBFE029A
:09274D00E32289828A83E49322CD
:10275600EF8DF0A4A8F0CF8CF0A428CE8DF0A42E97
:02276600FE2251
:10276800BC000BBE0029EF8DF084FFADF022E4CC55
:10277800F875F008EF2FFFEE33FEEC33FCEE9DEC1E
:10278800984005FCEE9DFE0FD5F0E9E4CEFD22ED64
:10279800F8F5F0EE8420D21CFEADF075F008EF2FAE
:1027A800FFED33FD4007985006D5F0F222C398FD9F
:0527B8000FD5F0EA223C
:1027BD00C2D5EC30E709B2D5E4C39DFDE49CFCEE37
:1027CD0030E715B2D5E4C39FFFE49EFE122768C320
:1027DD00E49DFDE49CFC800312276830D507C3E41B
:0627ED009FFFE49EFE22A6
:1027F300A3F8E0C5F025F0F0E58215827002158399
:06280300E0C838F0E822F5
:1040C500C2D5E830E70FB2D5E4C39BFBE49AFAE426
:1040D50099F9E498F8EC30E717B2D51240FB1229AC
:1040E50021E4C39BFBE49AFAE499F9E498F8800388
:1040F50012292130D50DE4C39FFFE49EFEE49DFD0A
:04410500E49CFC2218
:10280900EB9FF5F0EA9E42F0E99D42F0E89C45F025
:01281900229C
:10281A007401FF3395E0FEFDFCA3A3A3E0CF2FF0E4
:10282A00E582158270021583E0CE3EF0E5821582BC
:10283A0070021583E0CD3DF0E582158270021583A2
:05284A00E0CC3CF0228F
:10284F00A8828583F0D083D0821228661228661260
:10285F002866122866E473E493A3C583C5F0C58385
:10286F00C8C582C8F0A3C583C5F0C583C8C582C8D3
:01287F002236
:10288000D083D082F8E4937012740193700DA3A3E7
:1028900093F8740193F5828883E4737402936860FB
:0628A000EFA3A3A380DFFB
:10211F00E5082458F582E4340FF583E00508229092
:10212F000F55302C03900F58E475F0011229CB0294
:10213F00273D2025E97F2ED2258018EF540F2490BC
:10214F00D43440D4FF30290BEF24BFB41A0050030E
:10215F002461FFE50960021509050CE50C70020505
:10216F000B302C0E900F55E475F0011229CBEF02B6
:10217F0028D302420D7403D22C8003E4C22CF5083D
:10218F00900F551229E2E4F509F50BF50CE50960FE
:10219F00077F2012216280F5750AFFC226C225C271
:1021AF0027C228C22AC22BC22D12212EFF700D303A
:1021BF002C057F00122173AF0CAE0B22B4255FC22A
:1021CF00D5C22912212EFF24D0B40A00501A75F05F
:1021DF000A780930D50508B6FF0106C6A426F620F1
:1021EF00D5047002D22880D924CFB41A00EF50043E
:1021FF00C2E5D229022374D22680C6D22580C0D24E
:10220F002780BCD2D580BAD22A80B47F2012216217
:10221F002027077401B5090040F112211FFF122179
:10222F006202219CD22DD22B809512211FFB1221ED
:10223F001FFA12211FF94A4B700679457A247BFF4A
:10224F0020272EE509602A7E008E827583001228D2
:10225F00A660060EEE650A70F0C2D5EBC0E0EAC0CC
:10226F00E0E9C0E0EE1223BBD0E0F9D0E0FAD0E015
:10227F00FB12273DFF60AAEBC0E0EAC0E0E9C0E037
:10228F00122162D0E02401F9D0E03400FAD0E0FB53
:10229F00E50A0460DCD50AD980877BFF7A2379B7FA
:1022AF00D227809C791080027908C22BC22D80081A
:1022BF00D2D5790A8004790AC2D5E50A047002F5ED
:1022CF000AE4FAFDFEFF12211FFC7B0820261312E1
:1022DF00211FFD7B1030250A12211FFE12211FFF27
:1022EF007B20EC3382D592D55013C3E43025069F63
:1022FF00FFE49EFEE42026039DFDE49CFCE4CBF866
:10230F00C226EC700CCFCECDCCE824F8F870F38059
:10231F0017C3EF33FFEE33FEED33FDEC33FCEB333E
:10232F00FB994002FB0FD8E9EB302605F8D0E0C44B
:10233F0048B226C0E00AEC4D4E4F78207B0070C2A9
:10234F00EAB50A0040BCC0E01223BDD0F0D0E020B7
:10235F002604C4C0E0C4B226C0F012214BD0F0D581
:10236F00F0EB02219C12288022395322B358220A03
:10237F004C22064222B74F22BF4422BF49221F439D
:08238F0022C55522A94622A92E
:102397004522A947246550220E2D22122E22352BC5
:1023A700221623223320244E2A21CE480000222D34
:1023B7003F3F3F00790AA2D5202814302A09B910D7
:1023C700020404B9080104A2D5202B0250010420FD
:1023D70027689227B509005034C0E07F20302819BC
:1023E7007F30A227722B722A500F122414C227C2E1
:1023F7002BC22AC22D7F30800F302A03E9C0E0129A
:102407002162302A03D0E0F9D0E0B509CC302A1791
:102417007F30B9100C1221627F583029077F7880EE
:1024270003B908031221623027057F2D0221627F3D
:1024370020202DF87F2B202BF322922780CF286E88
:10244700756C6C2900D22612211F3026F8C2267817
:102457000930D50108F60221CE2D504349581221E3
:102467001F2403B405004001E49024609312215314
:0D247700743A122153D2287509040222B3D1
:10402F0090113F1229B37810EC4D4E4F70047CA5C0
:10403F007DA5C3EC13FCED13FDEE13FEEF13FF5044
:10404F0010EC64CCFCED644CFDEE644EFEEF64CEE0
:10405F00FFD8DF90113F1229BFEE547FFE2290113F
:0D406F003FEEF0EFA3F0A374A5F0A3F02244
:103D5A00020076E493A3F8E493A34003F68001F209
:103D6A0008DFF48029E493A3F85407240CC8C3336A
:103D7A00C4540F4420C8834004F456800146F6DF39
:103D8A00E4800B01020408102040809037D5E47EBD
:103D9A00019360BCA3FF543F30E509541FFEE4932E
:103DAA00A360010ECF54C025E060A840B8E493A3F5
:103DBA00FAE493A3F8E493A3C8C582C8CAC583CA20
:103DCA00F0A3C8C582C8CAC583CADFE9DEE780BED8
:0138F40000D3
:1028A600BB010CE58229F582E5833AF583E02250E7
:1028B60006E92582F8E622BBFE06E92582F8E22231
:0D28C600E58229F582E5833AF583E493224B
:1028D300BB010689828A83F0225002F722BBFE01E4
:0228E300F322DE
:1028E50075F008758200EF2FFFEE33FECD33CDCCAA
:1028F50033CCC58233C5829BED9AEC99E58298402D
:102905000CF582EE9BFEED9AFDEC99FC0FD5F0D609
:10291500E4CEFBE4CDFAE4CCF9A88222B800C1B933
:102925000059BA002DEC8BF084CFCECDFCE5F0CB71
:10293500F97818EF2FFFEE33FEED33FDEC33FCEBAA
:1029450033FB10D703994004EB99FB0FD8E5E4F965
:10295500FA227818EF2FFFEE33FEED33FDEC33FC52
:10296500C933C910D7059BE99A4007EC9BFCE99A46
:10297500F90FD8E0E4C9FAE4CCFB2275F010EF2F8B
:10298500FFEE33FEED33FDCC33CCC833C810D7078B
:102995009BEC9AE899400AED9BFDEC9AFCE899F8C6
:0E29A5000FD5F0DAE4CDFBE4CCFAE4C8F92259
:0C29B300E0FCA3E0FDA3E0FEA3E0FF2297
:0C29BF00ECF0A3EDF0A3EEF0A3EFF0228B
:1029CB00F8E0FBA3A3E0F925F0F0E5821582700295
:0729DB001583E0FA38F02239
:0929E200EBF0A3EAF0A3E9F022F6
:10420D00EFB40A07740D124218740A309811A89968
:10421D00B8130CC2983098FDA899C298B811F63011
:07422D0099FDC299F59922E9
:00000001FF
