:100AC2006D313042006D313242006D313442006D81
:100AD200313642006D323042006D323442006D33A5
:100AE2003242006D3438006D36340053554E004D9D
:100AF2004F4E005455450057454400544855004652
:100B0200524900534154004E4F4E004A414E004656
:100B12004542004D415200415052004D4159004A58
:100B2200554E004A554C0041554700534550004F21
:100B32004354004E4F56004445430053455420440D
:100B420041544520414E442054494D452020202007
:100B520020200057524954494E4720444154412EC7
:100B62002E2E205741495421202000444154412037
:100B72005355434345535346554C4C5920534156C4
:100B82004544004552524F52202020202020202050
:100B920020202020202020202020005320257320E8
:100BA20025730D00662025730D0074202225732203
:100BB2002025752025750D0078692025752025755D
:100BC2002025750D006D2025750D0025732000462A
:100BD2004646464646003030303030300025627599
:100BE20020202000323025303262750025634D20EE
:100BF2002000534554204D4F4E5448200053455435
:100C02002044415445202000534554205945415227
:100C120020200053455420484F5552202000534570
:100C220054204D494E5554450053455420414D2FB3
:100C3200504D2000505245535320444F4E45002DF5
:100C42002D2D2D0025732025303262752C20323057
:100C520025303262752025730025326275203A20D4
:100C62002530326275203A202530326275202563A4
:100C72004D2000253262753A253032627525634D6A
:100C82000046374639463800323025303262752FF9
:100C920025303262752F2530326275007869203135
:100CA2003620313633203339330D0078692031361E
:100CB20020323337203339330D0078692031372021
:100CC200333138203339330D007869203136203101
:100CD2003633203433370D007869203136203235EF
:100CE20038203433370D00786920313620333632DC
:100CF200203433370D00626F6479B0433A256400C3
:100D0200626F6479B0463A25640025640046463035
:100D1200303030005354414745203100535441474D
:100D22004520320053544147452033005354414734
:100D3200452034006D206C6F73652025326275206A
:100D420025303262752025634D0D006D2077696E66
:100D52002025730D006D2073746F6E655F64697377
:100D6200706C617920313333203131382025640DA4
:100D7200006D2073746F6E655F646973706C617966
:100D820020313138203135392025640D006D207332
:100D9200746F6E655F646973706C6179203132348F
:100DA200203230322025640D006D2073746F6E6521
:100DB2005F646973706C617920313330203236336D
:100DC2002025640D006D2073746F6E655F64697316
:100DD200706C617920313530203330302025640D3C
:100DE200006D2073746F6E655F646973706C6179F6
:100DF20020343734203132302025640D006D2073C9
:100E0200746F6E655F646973706C61792034383712
:100E1200203135392025640D006D2073746F6E65A5
:100E22005F646973706C61792034383320323034F6
:100E32002025640D006D2073746F6E655F646973A5
:100E4200706C617920343830203236362025640DBA
:100E5200006D2073746F6E655F646973706C617985
:100E620020343532203330362025640D006D207455
:100E72006578745F646973706C61790D0020252D4B
:100E82003562750038443839383900455252006DA0
:100E9200206C6F61645F6261725F66756C6C203298
:100EA200323020323735203130302030330D0000DF
:100EB2006D20646973706C61795F6C6F67696E5FD6
:100EC200706167650D006D20646973706C61795F94
:100ED2006173746572696B5F310D006D20646973B3
:100EE200706C61795F6173746572696B5F320D005A
:100EF2006D20646973706C61795F61737465726986
:100F02006B5F330D006D20646973706C61795F6192
:100F120073746572696B5F340D004A204C696E0010
:100F22006D207365745F7569642025730D006D20F3
:100F3200646973706C61795F6D61696E5F7061671E
:100F4200650D00532D482059616E670059204C6988
:100F5200004320446176696C610078692034302056
:100F62003020300D00786320616C6C0D00772031E9
:100F72003030300D006D20646973706C61795F6C84
:100F82006F636B65645F706167650D006D206469F6
:100F920073706C61795F6C6F67696E5F61747465A1
:100FA2006D7074735F6C6566742025640D006D202E
:100FB200646973706C61795F74656D705F7061678D
:100FC200650D006D2074656D705F756E69745F6686
:100FD2000D006D2074656D705F756E69745F630DD1
:100FE200006D20646973706C61795F67616D655F24
:100FF200706167650D006D20646973706C61795F63
:101002006C617365725F706167650D006D20646964
:1010120073706C61795F73657474696E67735F7303
:10102200637265656E2025642025640D006D206164
:10103200646A7573745F6272696768746E657373EC
:101042002025640D006D20646973706C61795F64A2
:101052006174655F74696D655F736C696465722044
:10106200253032627520313220310D006D206469E5
:1010720073706C61795F646174655F74696D655FDB
:10108200736C6964657220253032627520333120B9
:10109200310D006D20646973706C61795F646174F5
:1010A200655F74696D655F736C6964657220253074
:1010B20032627520333020310D006D206469737007
:1010C2006C61795F646174655F74696D655F736C8F
:1010D2006964657220253032627520323920310D03
:1010E200006D20646973706C61795F646174655F1F
:1010F20074696D655F736C69646572202530326254
:101102007520323820310D006D20646973706C6176
:10111200795F646174655F74696D655F736C69643E
:10112200657220253032627520393920300D006D0C
:1011320020646973706C61795F646174655F74695E
:101142006D655F736C69646572202530326275204B
:10115200353920300D0030303025583030002558D8
:101162002558255800303025583030003025583069
:061172002558302558004D
:1035A10042085A00A342085E0189470DEF303046B8
:1035B10046303000470DE430303030303000470EB7
:1035C1001430304646303000C116C114C117C11F36
:1035D100C11A5208350AC20AC70ACC0AD10AD60A48
:1035E100DB0AE00AE50AE9C1124100140041023395
:1035F1000041086B004E00160AED0AF10AF50AF9BE
:103601000AFD0B010B055A0E1C0B090B0D0B110BBF
:10361100150B190B1D0B210B250B290B2D0B310B39
:10362100350B394809700B3D0B550B6D0B8542006D
:103631000400004200060000420008000041000BA7
:103641000041000C0041000D0041000E0041000F3F
:1036510000410010004809B9FFFF00000000000010
:10366100420DFE0000420E37000542085C00004298
:1036710008540000420231000042022F00004208BB
:103681004B0000420E390000420BC10001420E0CFA
:10369100000042084D0014420DF807D042085800BE
:1036A1000042086D0078420DED0014420DEB000060
:0F36B1004200120000420E1000FF420DFC00000C
:10407D00AF84E4900E87F0A3F075840F758A838F5B
:01408D0084AE
:01408E00220F
:103E4000AF8475840F75E12F75E20175E3C475A425
:103E50000175A50175A7CA759C0F759D04E4F59EB3
:103E6000759F807580FF7590FF75A0FF75B0FF7519
:0F3E7000C8FF75D8FF75E8FF75F8FFC2FF8F8494
:013E7F002220
:0D40EB0075A89243E70143E74043E60A222F
:103F1D00AF84E4F584F5C875C90875CAF375CBFF90
:103F2D0085CBCD85CACC75C804F58475985075912F
:063F3D000575A8908F84B9
:013F4300225B
:0741090075FFDE75FFAD221A
:030023000216774B
:0D167700C0E0C0F0C083C082C0D075D010AC
:10168400900E3CE584F0E4FBFAA31224350000003C
:1016940000758400209803021AC4C298900011E5D2
:1016A40099F0900DFAE0FEA3E0FFC3EE940240032C
:1016B400021A83900011E0FD640D601D74352FF54E
:1016C4008274023EF583EDF0900DFBE004F07006A9
:1016D400900DFAE004F0021AC4900235E0FF647B36
:1016E4007028A3E06463701BA3E0B46D16A3E0B498
:1016F4007011A3E0B4650CA3E0B47D07D216D21434
:10170400021A50C216C214021A50EF6428702EFA3C
:10171400FBD3900DFBE09B900DFAE09A4073743577
:101724002BF58274023AF583E0FF74242BF582745E
:10173400003AF583EFF00BBB00010A80D490023528
:10174400E0646C704FA3E0646F7049A3E06461705F
:1017540043FAFBD3900DFBE09B900DFAE09A401FF7
:1017640074352BF58274023AF583E0FF74242BF56B
:101774008274003AF583EFF00BBB00010A80D49029
:101784000DFAE0FEA3E02424F58274003EF583E420
:10179400F0021A46900235E0F96473704FA3E064D6
:1017A400747049A3E064617043FAFBD3900DFBE0CD
:1017B4009B900DFAE09A401F74352BF58274023A1F
:1017C400F583E0FF74242BF58274003AF583EFF07F
:1017D4000BBB00010A80D4900DFAE0FEA3E02424A0
:1017E400F58274003EF583E4F0021A46E9646770FA
:1017F40051900236E064657049A3E064747043FA62
:10180400FBD3900DFBE09B900DFAE09A401F7435DA
:101814002BF58274023AF583E0FF74242BF582746D
:10182400003AF583EFF00BBB00010A80D4900DFA67
:10183400E0FEA3E02424F58274003EF583E4F00284
:101844001A46E9646C7051900236E064327049A320
:10185400E064347043FAFBD3900DFBE09B900DFAE7
:10186400E09A401F74352BF58274023AF583E0FF49
:1018740074242BF58274003AF583EFF00BBB00015E
:101884000A80D4900DFAE0FEA3E02424F5827400CB
:101894003EF583E4F0021A46E9646C705190023616
:1018A400E064707049A3E0645F7043FAFBD3900D69
:1018B400FBE09B900DFAE09A401F74352BF582747F
:1018C400023AF583E0FF74242BF58274003AF58321
:1018D400EFF00BBB00010A80D4900DFAE0FEA3E008
:1018E4002424F58274003EF583E4F0021A46E96488
:1018F400657051900236E0646E7049A3E0646470D0
:1019040043FAFBD3900DFBE09B900DFAE09A401F45
:1019140074352BF58274023AF583E0FF74242BF5B9
:101924008274003AF583EFF00BBB00010A80D49077
:101934000DFAE0FEA3E02424F58274003EF583E46E
:10194400F0021A46E9646D7051900236E0647070DA
:1019540049A3E0645F7043FAFBD3900DFBE09B90D6
:101964000DFAE09A401F74352BF58274023AF58320
:10197400E0FF74242BF58274003AF583EFF00BBB7F
:1019840000010A80D4900DFAE0FEA3E02424F5823D
:1019940074003EF583E4F0021A46E9646E705090D8
:1019A4000236E064737048A3E0645F7042FAFBD3CC
:1019B400900DFBE09B900DFAE09A401F74352BF5D7
:1019C4008274023AF583E0FF74242BF58274003AA2
:1019D400F583EFF00BBB00010A80D4900DFAE0FE12
:1019E400A3E02424F58274003EF583E4F08053E9F7
:1019F40064647054900236E06474704CA3E0645FD5
:101A04007046FAFBD3900DFBE09B900DFAE09A40F0
:101A14001F74352BF58274023AF583E0FF74242B8E
:101A2400F58274003AF583EFF00BBB00010A80D411
:101A3400900DFAE0FEA3E02424F58274003EF583C1
:101A4400E4F0C217D21F8004D217C21F7A007B00B1
:101A5400D3900DFBE09B900DFAE09A401374352B64
:101A6400F58274023AF583E4F00BBB00010A80E0CE
:101A7400900E03E4F0A3F0900DFAF0A3F0804190EF
:101A84000DFAE0FEA3E0FF900E03E0FCA3E0FDC32B
:101A94009FEC9E501C74352DF58274023CF583E452
:101AA400F0900E04E004F070D6900E03E004F08091
:101AB400CE900E03E4F0A3F0900DFAF0A3F0C21F51
:101AC400209903021B57C299301C03021B55900E28
:101AD4000AE0FEA3E02435F58274043EF583E0F5C4
:101AE40099900E0BE004F07006900E0AE004F020CA
:101AF4009913900E3D122400E47B487A26F9F8D31A
:101B04001223EF50EAE47F487E26FDFC900E3DE070
:101B1400F8A3E0F9A3E0FAA3E0FBC31223EF400229
:101B2400D299900E3D12243500000000C3900E0A95
:101B3400E094044004E4F0A3F0900E01E0FEA3E07E
:101B4400FF900E0AE0B5160BA3E0B51706D21C8071
:091B540002D215900E3CE0F5846C
:0B1B5D00D0D0D082D083D0F0D0E03296
:0F40A0007F2E123F918F207F2F123F918F212271
:063AD4007B017A0E7987E8
:103ADA00900F55E584F0122323604E201C14900E9B
:103AEA0001E0FEA3E0FF900E0AE06E7003A3E06F10
:103AFA00602E122323FF900E01E475F0011223D9E0
:103B0A00FC743525F0F58274043CF583EFF0C3901C
:103B1A000E01E094044004E4F0A3F0301C02C21C3D
:103B2A00740129F9E43AFA80AD301507C215E4F5B3
:093B3A0084D299900F55E0F58446
:013B4300225F
:1036C100A3F0A37401F0A3E4F0A3F07493A3F07B3F
:0536D100FF7A0B79D126
:0B36D600900EC7EBF0A3EAF0A3E9F0B0
:1036E100900F5874FFF0A3740BF0A3749DF0900E2B
:1036F100C7E0F9A3E0FAA3E0900F5BC9F0A3EAF0F9
:10370100A3E9F0900ECAE0F9A3E0FAA3E0900F5EFE
:10371100C9F0A3EAF0A3E9F07B017A0E79D5122072
:10372100237B017A0E79D5123ADA900F5874FFF0A3
:10373100A3740BF0A374A6F0900ECDE025E0243520
:10374100F582E43408F583E0FEA3E0AA06F9900FC0
:103751005B74FFF0A3EAF0A3E9F07A0E79D51220A9
:10376100237B017A0E79D5123ADA900F5874FFF063
:10377100A3740BF0A374ACF0900ECEE0F9A3E0FAC1
:10378100A3E0900F5BC9F0A3EAF0A3E9F0900ED19A
:10379100E0FFA3E0900F5ECFF0A3EFF0900ED3E037
:1037A100FFA3E0900F60CFF0A3EFF07A0E79D5126E
:0B37B10020237B017A0E79D5023ADA62
:0C3DB300900F7DECF0A3EDF0AD03AC022E
:103DBF00900F5874FFF0A3740BF0A374BAF0A3EE36
:103DCF00F0A3EFF0900F7DE0FFA3E0900F5DCFF039
:103DDF00A3EFF0AF05A3ECF0A3EFF07B017A0F791F
:0D3DEF007F1220237B017A0F797F023ADAE0
:054110007E00023F6B80
:103F6B00900F5874FFF0A3740BF0A374C7F0A3EE7B
:103F7B00F0A3EFF07B017A0F79FF1220237B017AFC
:063F8B000F79FF023ADA93
:10305B00E4901143F0A3F0900015E06402705B90D4
:10306B000024E064287019A3E024CE600D14600DD9
:10307B00240260030231870231410231450231499A
:10308B00E4901143F0A3F0901143E0FEA3E0FF2482
:10309B0024F58274003EF583E070030231877424BB
:1030AB002FF58274003EF583E4F0901144E004F0B8
:1030BB0070D5901143E004F080CD900015E06403CF
:1030CB007058900024E064287016A3E024CE600CA6
:1030DB0014600B24026003023187805A805C805E8F
:1030EB00E4901143F0A3F0901143E0FEA3E0FF2422
:1030FB0024F58274003EF583E0700302318774245B
:10310B002FF58274003EF583E4F0901144E004F057
:10311B0070D5901143E004F080CD900015E064046D
:10312B00705A900024E0B4281CA3E024CE600B144A
:10313B00600C240270467F0280067F0380027F04AE
:10314B001241108037E4901143F0A3F0901143E04B
:10315B00FEA3E0FF2424F58274003EF583E0601C9F
:10316B0074242FF58274003EF583E4F0901144E053
:10317B0004F070D8901143E004F080D0E490114338
:10318B00F0A3F0901143E0FEA3E0FF2424F582743A
:10319B00003EF583E0601C74242FF58274003EF52D
:1031AB0083E4F0901144E004F070D8901143E004F4
:0331BB00F080D0D1
:0131BE0022EE
:1037BC00900E8912243500000000900E8DE584F0E7
:1037CC00E4F584208675900E891224007BA07A86FD
:1037DC0079017800D31223EF4061C287E4900E8701
:1037EC00F0A3F0900E88E004F07006900E87E004D1
:1037FC00F0900E87E07003A3E0F470E7D287208787
:10380C0014900E891224007BA07A8679017800D35B
:10381C001223EF50E9E4900E87F0A3F0C3900E88CA
:10382C00E0940A900E87E0648094805096A3E004A4
:10383C00F070E9900E87E004F080E175C00775CF59
:10384C009143C040900E8DE0F584C212E49008695B
:10385C00F0900852F0900851F0900867F0900DF637
:05386C00F09009B8F026
:013871002234
:10403100AF84758401E4F5C8F5C975CBE275CA7A18
:0A40410085CBCD85CACCD2CA8F848E
:01404B002252
:0300730002401236
:07401200C0D075D000C0070B
:10401900AF8475840053C0BF43C0408F84C2CFC2F0
:03402900128F846F
:05402C00D007D0D032E6
:10404C0074EF2FF582E43408F583EDF0EFFD7C007E
:09405C007B017A007F20023B4445
:103F9100900E87EFF0FD7C007B017A007F201239C3
:103FA10021900E87E0246FF582E43408F583E0FF69
:013FB10022ED
:0F40AF00AE05EFFD7C00EEFB7A007FD0023B44B4
:0F40BE00AE05EFFD7C00EEFB7A007FD0023921CA
:10392100900EC9EFF0A3ECF0A3EDF0A3EAF0A3EB46
:01393100F0A5
:10393200A3E584F0E4F58420C7FD2012FA900ECEB0
:10394200E0F584900EC9E0FF245C600824D4600492
:1039520024B0700E900ECAE0FCA3E0FDE4FBFA1264
:103962003B44E4F58420C7FD2012FA900EC9E09092
:103972000849F0900ECAE0FFA3E0900862CFF0A3DE
:10398200EFF0900ECCE0FFA3E0900E12CFF0A3EF89
:10399200F0D212D220D2C520C7FD2012FA900ECE4C
:1039A200E0F584900EC9E0245C601824D4600C24F5
:1039B200B07016900852E0701080F89009B8E0706C
:0939C2000880F8900867E060FA43
:0139CB0022D9
:023B4400A907CF
:103B4600E4900ECFF0A3F0A3F0A3E584F0E4F584AF
:103B560020C7FD2012FA900849E9F0AF05900862E7
:103B6600ECF0A3EFF0E92455600824DB601A24B0DA
:103B7600702C900224EAF0A3EBF0D212C220D2C538
:103B8600900869E0701880F8AF03900224EAF0A369
:103B9600EFF0D212C220D2C5900DF6E060FA900E78
:043BA600D2E0F584F0
:013BAA0022F8
:03003B0002117837
:0D117800C0E0C0F0C083C082C0D075D010B0
:10118500C224E5C1131313541F14B40B004003020A
:10119500163B9011A575F003A4C58325F0C583738F
:1011A5000211C60211C60211EB0212280212C50273
:1011B500136A0216370213FC0214120214A902154F
:1011C500A8900849E0F5C253C2FEA220E43342C20A
:1011D500C2C5900002E4F0A3F0900000F0A3F090E7
:1011E500000AF002163D900849E0FFB4201E900861
:1011F50062E0FCA3E0FD64AB4C7007D2C4C21202EE
:10120500163D8DC2900869E4F002163DEF64D0608A
:101215000302163D900862A3E0F5C2900DF6E4F0D6
:1012250002163D900849E0FFB4202CC3900005E06C
:10123500940A900004E094005011A3E004F07006B5
:10124500900004E004F0D2C502163D900004E4F0DD
:10125500A3F09008698065EFB4D02CC3900007E037
:10126500940A900006E094005011A3E004F0700683
:10127500900006E004F0D2C502163D900006E4F0A9
:10128500A3F0900DF68035900849E064A460030250
:10129500163DC3900009E0940A900008E0940050C0
:1012A50011A3E004F07006900008E004F0D2C50236
:1012B500163D900008E4F0A3F09008510402149F35
:1012C500900849E0F96420704A900224E0FEA3E00A
:1012D500FF900000E0FCA3E0FDC39FEC9E502A9028
:1012E5000863E02DFF900862E03CFE74EF2FF58265
:1012F50074083EF583E0F5C2900001E004F07058F3
:10130500900000E004F002163DD2C4C212900869B4
:10131500021632E964D0600302163D900224E0FE15
:10132500A3E0FF900000E0FCA3E0FDC39FEC9E500E
:101335002A900863E02DFF900862E03CFE74EF2FD1
:10134500F58274083EF583E0F5C2900001E004F0F3
:101355007006900000E004F002163DD2C4C212905F
:101365000DF6021632900849E0FFB42029C390001B
:1013750005E0940A900004E094005011A3E004F005
:101385007006900004E004F0D2C502163D900004FA
:10139500E4F0A302149FEFB4D029C3900007E094B2
:1013A5000A900006E094005011A3E004F070069046
:1013B5000006E004F0D2C502163D900006E4F0A355
:1013C50002149F900849E064A4600302163DC3908F
:1013D5000009E0940A900008E094005011A3E0048D
:1013E500F07006900008E004F0D2C502163D9000AA
:1013F50008E4F0A302149F900E12E07004A3E064C9
:10140500017005C2C202163DD2C202163D900849BE
:10141500E0FFB42028C3900005E0940A900004E0A2
:1014250094005011A3E004F07006900004E004F06D
:10143500D2C502163D900004E4F0A3805DEFB4D060
:1014450028C3900007E0940A900006E0940050112C
:10145500A3E004F07006900006E004F0D2C5021681
:101465003D900006E4F0A38031900849E064A46053
:101475000302163DC3900009E0940A900008E09429
:10148500005011A3E004F07006900008E004F0D2CB
:10149500C502163D900008E4F0A3F0D2C4C212D2F2
:1014A5002402163D900849E0F96420704F900E1211
:1014B500E0FEA3E0FF900002E0FCA3E0FDC39FEC8B
:1014C5009E5031900863E02DFF900862E03CFE7469
:1014D5006F2FF58274083EF583E5C2F0D2C2900005
:1014E50003E004F07006900002E004F0900852E476
:1014F500F002163DC2C2900852021632E964D0705D
:1015050052900E12E0FEA3E0FF900002E0FCA3E083
:10151500FDC39FEC9E5031900863E02DFF9008625B
:10152500E03CFE746F2FF58274083EF583E5C2F04A
:101535009009B8E4F0D2C2900003E004F070069080
:101545000002E004F002163D9009B87401F0C2C231
:1015550002163DE964A4600302163D900E12E0FEFA
:10156500A3E0FF900002E0FCA3E0FDC39FEC9E50CA
:101575002AAFC274C12DF58274093CF583EFF09052
:10158500084FF0D2C2900003E004F070069000020C
:10159500E004F0900867E4F002163DC2C2900867C7
:1015A500021632900849E0FFB4202C900002E0FCBE
:1015B500A3E0FD900863E02DFD900862E03CFC741B
:1015C5006F2DF58274083CF583E5C2F0D2C4C212D2
:1015D500D2C29008528056EFB4D02F900002E0FEA0
:1015E500A3E0FF900863E02FFF900862E03EFE74E1
:1015F5006F2FF58274083EF583E5C2F09009B87443
:1016050001F0D2C4C212D2C2802E900849E0B4A41F
:1016150027900002E0FEA3E024C1F58274093EF59F
:1016250083E5C2F0D2C4C212D2C29008677401F039
:101635008006D2248002D22430242A53C0BF43C05E
:1016450040C2C5C2C4C2C2C212C224900869740194
:10165500F0900852F0900DF6F09009B8F09008510E
:07166500F0900867F0C2C31A
:0B166C00D0D0D082D083D0F0D0E0328C
:10408F009008FD7404F0A37430F07D027F0E02409F
:01409F00AF71
:103A5800900E36E0FF1200269008EFEFF090022853
:103A6800E0FF1200269008F0EFF090086CE0FF12DB
:103A780000269008F2EFF0900850E0FF1200269020
:103A880008F3EFF0900853E0FF1200269008F4EFD7
:103A9800F0900866E0FF1200269008F5EFF0900815
:103AA80068E0FF120026EF4440FF90022BE0FEB4CE
:103AB8005006EF4460FF8008EEB44104EF545FFF06
:0C3AC8009008F1EFF07D07E4FF0240AF32
:102A4900E4900EC7F0A3F07D07FF1240BE90086F17
:102A5900E0FF1240CD900E36EFF0900870E0FF12C3
:102A690040CD900228EFF0900871E0FF30E6179012
:102A7900086A7401F0EF90022B30E5057450F0807C
:102A89000A7441F08005E490086AF0EF541FFF12C0
:102A990040CD900868EFF0BF0C1090022BE0B441D4
:102AA90003E48016900868E0801090022BE09008FB
:102AB90068B45005E0240C8001E0900847F09008C4
:102AC90072E0FF1240CD90086CEFF0900873E0FFC0
:102AD9001240CD900850EFF0900874E0FF1240CDFD
:102AE900900853EFF0900875E0FF1240CD9008660A
:102AF900EFF090000BE0FF900853E0B50718900045
:102B09000CE0FF900850E0B5070C90000DE0FF9035
:102B19000866E06F6002D21390000EE0FF9008682B
:102B2900E0FEB5071890000FE0FF900228E0B50716
:102B39000C900010E0FF900E36E06F6002D22390F7
:102B4900022BE0FBB4501FEE240CFFE433FE7C00A3
:102B59007D3C12233C900228E02FFFEC3E900EC7EB
:102B6900F0A3EFF08028EBB44124900868E0B40C9E
:102B790002E4F0900868E075F03CA4FF900228E0B8
:102B89007C002FFEEC35F0900EC7F0A3CEF0900E2E
:102B9900C7E0FAA3E0FB7C007D3CFFAE0212234EA6
:102BA900900233EDF07C007D3CAF03AE0212234E60
:102BB90090086BEFF0900850E090000CF0900853EB
:102BC900E090000BF0900866E090000DF090086826
:102BD900E090000EF0900228E090000FF0900E3681
:052BE900E0900010F077
:012BEE0022C4
:102D7600900861E07043900DF7E004F0D222E0D3B2
:102D8600940C40037401F0900F5874FFF0A3740B79
:102D9600F0A374CDF0900DF7E025E0241CF582E455
:102DA600340EF583E0FEA3E0AA06F9900F5B74FFEC
:102DB600F0A3EAF0A3E9022EB6900861E064017080
:102DC60029900DE3E004F0D221E0D3941F40037470
:102DD60001F0900F5874FFF0A3740BF0A374DFF0AA
:102DE600900DE3E0900F5B022EB6900861E064025E
:102DF6007029900E00E004F0D210E0D394634003F3
:102E06007463F0900F5874FFF0A3740BF0A374E68C
:102E1600F0900E00E0900F5B022EB6900861E06421
:102E2600037028900E09E004F0D211E0D3940C4010
:102E3600037401F0900F5874FFF0A3740BF0A374A1
:102E4600DFF0900E09E0900F5B8065900861E0640A
:102E56000470279008EEE004F0D21DE0D3943B40C6
:102E660002E4F0900F5874FFF0A3740BF0A374DF24
:102E7600F09008EEE0900F5B8036900861E0640504
:102E8600706490096EE0FFB450057441F0800AEF5B
:102E9600B4410690096E7450F0D21E900F5874FF1C
:102EA600F0A3740BF0A374EEF090096EE0900F5B44
:102EB600F07B017A10797F122023900ECA74FFF0FE
:102EC600A3740BF0A374D8F0A37403F0A37401F0F9
:102ED600A37410F0A3747FF0A37401F0A3E4F0A32D
:062EE600F074D71236CE95
:012EEC0022C3
:102BEF00900861E07043900DF7E014F0D222E0C33B
:102BFF0094015003740CF0900F5874FFF0A3740BF2
:102C0F00F0A374CDF0900DF7E025E0241CF582E4DD
:102C1F00340EF583E0FEA3E0AA06F9900F5B74FF74
:102C2F00F0A3EAF0A3E9022D3E900861E064017081
:102C3F0029900DE3E014F0D221E0C3940150037406
:102C4F001FF0900F5874FFF0A3740BF0A374DFF014
:102C5F00900DE3E0900F5B022D3E900861E064025F
:102C6F00702D900E00E0D394004005E014F0800525
:102C7F00E4900E00F0D210900F5874FFF0A3740B75
:102C8F00F0A374E6F0900E00E0900F5B022D3E90E3
:102C9F000861E06403702D900E09E0D394004005A5
:102CAF00E014F08006900E09740CF0D211900F58BA
:102CBF0074FFF0A3740BF0A374DFF0900E09E09093
:102CCF000F5B806B900861E06404702D9008EEE05C
:102CDF00D394004005E014F080069008EE743BF0AA
:102CEF00D21D900F5874FFF0A3740BF0A374DFF094
:102CFF009008EEE0900F5B8036900861E0640570FD
:102D0F006590096EE0FFB450057441F0800AEFB48E
:102D1F00410690096E7450F0D21E900F5874FFF058
:102D2F00A3740BF0A374EEF090096EE0900F5BF0BC
:102D3F007B017A1079BF122023900ECA74FFF0A383
:102D4F00740BF0A374D8F0A37403F0A37401F0A371
:102D5F007410F0A374BFF0A37401F0A3E4F0A3F018
:062D6F00A374D71236CF59
:012D7500223B
:10282500900861E004F0E070030229C0900861E0BF
:1028350064017035D221900ECA74FFF0A3740BF0B9
:10284500A374D8F0A37403F0A374FFF0A3740BF082
:1028550074FF1236C1900F5874FFF0A3740BF0A3E8
:1028650074DFF0900DE3022963900861E064027063
:1028750035D210900ECA74FFF0A3740BF0A374D870
:10288500F0A37403F0A374FFF0A3740CF0740A12A0
:1028950036C1900F5874FFF0A3740BF0A374E6F0E3
:1028A500900E00022963900861E064037036D2112E
:1028B500900ECA74FFF0A3740BF0A374D8F0A37440
:1028C50003F0A374FFF0A3740CF0A374151236C2C1
:1028D500900F5874FFF0A3740BF0A374DFF0900E03
:1028E50009022963900861E064047037D21DD21E85
:1028F500900ECA74FFF0A3740BF0A374D8F0A37400
:1029050003F0A374FFF0A3740CF0A374201236C275
:10291500900F5874FFF0A3740BF0A374DFF09008C8
:10292500EE803B900861E06405703AD21E900ECAB5
:1029350074FFF0A3740BF0A374D8F0A37403F0A391
:1029450074FFF0A3740CF0A3742B1236C2900F58C9
:1029550074FFF0A3740BF0A374EEF090096EE09091
:102965000F5B022A11900861E064067042D21E9046
:102975000ECA74FFF0A3740BF0A374D8F0A374030C
:10298500F0A374FFF0A3740CF0A374361236C29052
:102995000ECA74FFF0A3740BF0A374D8F0A37403EC
:1029A500F0A374FFF0A3740CF0A37441022A3890CD
:1029B5000861E064076003022A48F0D222900ECA3B
:1029C50074FFF0A3740BF0A374D8F0A37403F0A301
:1029D50074FFF0A3740BF0A374F41236C2900F5871
:1029E50074FFF0A3740BF0A374CDF0900DF7E02500
:1029F500E0241CF582E4340EF583E0FEA3E0AA068C
:102A0500F9900F5B74FFF0A3EAF0A3E9F07B017A7C
:102A15001079FF122023900ECA74FFF0A3740BF0F7
:102A2500A374D8F0A37403F0A37401F0A37410F099
:102A3500A374FFF0A37401F0A3E4F0A3F0A374D78B
:032A45001236CF77
:012A4800226B
:10387200302216900DF7E0FF1200269008F4EFF0C8
:103882007D017F051240AFC222302116900DE3E088
:10389200FF1200269008F3EFF07D017F041240AF83
:1038A200C221301016900E00E0FF1200269008F59B
:1038B200EFF07D017F061240AFC210201103301ECF
:1038C2003D900E09E0FF120026301E2490096EE0A2
:1038D200FE90022BF0EF4440FFEEB45006EF44603E
:1038E200FF800B90096EE0B44104EF545FFFC21EEB
:1038F2009008F1EFF07D017F021240AFC211301D3E
:10390200169008EEE0FF1200269008F0EFF07D011D
:0F3912007F011240AFC21DE4900861F0022A4904
:10003E00E4900E36F0900228F0900868F090022BB3
:10004E007450F090086C7401F0900850F0900853C2
:10005E00F0E4900866F090022CF090086A04F0022A
:02006E003A58FE
:10002600EF75F00A84C454F0FEEF75F00A84E5F02B
:020036004EFF7B
:0100380022A5
:0E40CD00EFC4540F75F00AA4FEEF540F2EFF3F
:0140DB0022C2
:10346B00122A49900F5874FFF0A3740CF0A3744602
:10347B00F0900853E025E0241CF582E4340EF5832C
:10348B00E0FEA3E0AA06F9900F5B74FFF0A3EAF04D
:10349B00A3E9F0900850E0900F5EF0900866E09082
:1034AB000F5FF090086CE025E02416F582E4340001
:1034BB00F583E0FEA3E0AA06F9900F6074FFF0A37A
:1034CB00EAF0A3E9F07B017A0E7987122023900EA4
:1034DB00CA7401F0A3740DF0A374E4F0A37405F0A7
:1034EB00A37401F0A3740EF0A37487F090085AE054
:1034FB00FFA3E0900ED1CFF0A3EFF090085EE0FFBA
:10350B00A3E0900ED3CFF0A3EFF07B017A0D79EF10
:10351B001236D6C213900F5874FFF0A3740CF0A39D
:10352B00745BF0900868E0900F5BF0900228E090DD
:10353B000F5CF0900E36E0900F5DF090022BE09058
:10354B000F5EF07B017A0E7987122023900ECA74DE
:10355B0001F0A3740DF0A374E4F0A37405F0A3744D
:10356B0001F0A3740EF0A37487F090085AE0FFA348
:10357B00E0900ED1CFF0A3EFF090085FE0242AFE8D
:10358B0090085EE03400900ED3F0A3CEF07B017A6E
:06359B000E79140236D681
:10007600E4900E41F0A3F0900E83F0A3F012410934
:1000860012407D123E401240EB123F1D1237BC1249
:100096004031D215E4900E01F0A3F0900E0AF0A3C1
:1000A600F0D21C90086CF0123320900E0CE0FEA3E8
:1000B600E0FF7C277D101223A3ED4C600302019E16
:1000C60090084BE07002A3E0700D90085CE07002AF
:1000D600A3E0700302019E122A49900F5874FFF0A4
:1000E600A3740CF0A37475F0900868E0900F5BF0B1
:1000F600900228E0900F5CF090022BE0900F5DF0EC
:100106007B017A0E7943122023900ECA74FFF0A366
:10011600740CF0A37483F0A37402F0A314F0A37418
:100126000EF0A37443F0A37401F0A37415F0E4A3D6
:10013600F0A3F07BFF7A0B79D81236D6900F58745D
:10014600FFF0A3740CF0A3748AF0900866E0900F99
:100156005BF0900853E0900F5CF0900850E0900F31
:100166005DF07B017A0E7943122023900ECA74FF4C
:10017600F0A3740CF0A37483F0A37402F0A314F03C
:10018600A3740EF0A37443F0A37401F0A37409F0F2
:10019600A3E4F0A37414807A900E0CE0FEA3E0FFB3
:1001A6007C277D101223A3ED4C7073900854E070E9
:1001B60002A3E06069122A49900F5874FFF0A374F5
:1001C6000CF0A37475F0900868E0900F5BF0900255
:1001D60028E0900F5CF090022BE0900F5DF07B0121
:1001E6007A0E7943122023900ECA74FFF0A3740B83
:1001F600F0A374D1F0A37402F0A314F0A3740EF06C
:10020600A37443F0A3E4F0A374BEF0A374FFF0A3B9
:1002160074FCF07BFF7A0B79D81236D6C213900E97
:1002260039E07002A3E070030202D8900E0CE0FEE3
:10023600A3E0FF7C277D101223A3ED4C600302028E
:10024600D812346B900012E0FEA3E0FFEE600302CA
:1002560002D8EF24FE601F14602B1460371460432D
:1002660014604F2405706B900F5874FFF0A3740C44
:10027600F0A3749E8049900F5874FFF0A3740CF09D
:10028600A374AD803A900F5874FFF0A3740CF0A3DA
:1002960074BC802B900F5874FFF0A3740CF0A374F9
:1002A600CB801C900F5874FFF0A3740CF0A374DA83
:1002B600800D900F5874FFF0A3740CF0A374E9F04E
:1002C6007B017A0E79431220237B017A0E79431241
:1002D6003ADA900854E07002A3E0700302045790E3
:1002E6000E0CE0FEA3E0FF7C277D101223A3ED4C4D
:1002F60060030204577F36123F91900000EFF090A2
:100306000DEDE4F0A3EFF0900BC1E07002A3E090D6
:100316000F58601874FFF0A3740CF0A374F8F090F3
:100326000DEDE0FFA3E0900F5BCF802874FFF0A3F4
:10033600740DF0A37402F0900DEDE0FEA3E0FF7CD7
:10034600007D0912233C7D051223A3EF2420FFE440
:100356003E900F5BF0A3EFF07B017A0E79431220FB
:1003660023900ECA74FFF0A3740BF0A374D1F0A30C
:100376007402F0A314F0A3740EF0A37443F0A374F4
:1003860001F0A3746DF0A374FFF0A374FCF07BFF7F
:100396007A0B79D81236D6900231E07002A3E0705B
:1003A60003020457900858E0FEA3E0FFC3940AEE48
:1003B60064809480900F5874FF503FF0A3740DF042
:1003C600A3740CF0A3EEF0A3EFF07B017A0E794351
:1003D600122023900ECA74FFF0A3740DF0A3740FBD
:1003E600F0A37406F0A37401F0A3740EF0A3744393
:1003F600F0A37401F0A374318046F0A3740DF0A34A
:10040600740CF0900858E0FFA3E0900F5BCFF0A3C8
:10041600EFF07B017A0E7943122023900ECA74FF07
:10042600F0A3740DF0A3740FF0A37406F0A3740187
:10043600F0A3740EF0A37443F0A37401F0A3742226
:10044600F0A3E4F0A37414F07BFF7A0B79D812368C
:10045600D6900231E07002A3E070030207E1900E2D
:100466000CE0FEA3E0FFEE3395E0FDFCE47B407A72
:100476009CF9F8123DFCAC00AD01AE02AF03EC4DA9
:100486004E4F60030207E190084DE0FEA3E0FFD364
:100496009414EE64809480504CEF940FEE64809434
:1004A600804042900DEDE0FEA3E0FF9414EE6480E0
:1004B6009480500C900DF87402F0A374BCF0801573
:1004C6007C007D8212233CEF2494FFEE34F8900DDD
:1004D600F8F0A3EFF0900F5874FFF0A3740DF0A39B
:1004E600741602060690084DE0FEA3E0FFD3940FB3
:1004F600EE64809480504CEF940AEE6480948040C1
:1005060042900DEDE0FEA3E0FF9414EE648094802B
:10051600500C900DF87401F0A374F4F080157C0073
:100526007D6412233CEF2424FFEE34FA900DF8F09C
:10053600A3EFF0900F5874FFF0A3740DF0A3741E90
:1005460002060690084DE0FEA3E0FFD3940AEE648F
:10055600809480504BEF9405EE64809480404190E7
:100566000DEDE0FEA3E0FF9414EE64809480500C41
:10057600900DF87401F0A3742CF080157C007D4674
:1005860012233CEF24B4FFEE34FB900DF8F0A3EFFA
:10059600F0900F5874FFF0A3740DF0A374268060DA
:1005A60090084DE0FEA3E0FFD39405EE64809480AE
:1005B6004003020646EF9400EE64809480500302E6
:1005C6000646900DEDE0FEA3E0FF9414EE648094E1
:1005D60080500B900DF8E4F0A37464F080157C0055
:1005E6007D2812233CEF2444FFEE34FD900DF8F0F5
:1005F600A3EFF0900F5874FFF0A3740DF0A3742EC0
:10060600F07B017A0E7943122023900ECA74FFF014
:10061600A3740BF0A374D1F0A37404F0A37401F0D7
:10062600A3740EF0A37443F0A37401F0A37404F052
:10063600A3E4F0A37450F07BFF7A0B79D81236D678
:10064600D390084EE0940090084DE064809480506A
:1006560071E4900231F0A3F0C3900859E0940A9037
:100666000858E064809480502A122A49900F5874E2
:10067600FFF0A3740DF0A37436F0900868E0900FB5
:100686005BF0900228E0900F5CF090022BE0900F58
:100696005D8019900F5874FFF0A3740DF0A3744D8C
:1006A600F0A37401F0A37409F0A37478F07B017AC7
:1006B6000E79431220237B017A0E7943123ADA022D
:0206C60007E14A
:1006C800123D667C007D0A1223A3ED2401FFE43C61
:1006D800FE900E85F0A3EFF0EE60030207D3EF144F
:1006E800B40A0040030207D39006FE75F003A4C5C0
:1006F8008325F0C5837302071C02072C02073B02FF
:10070800074A0207590207680207770207860207A5
:10071800950207A4900F5874FFF0A3740DF0A3740A
:10072800570207B1900F5874FFF0A3740DF0A3742B
:10073800738076900F5874FFF0A3740DF0A3748F34
:100748008067900F5874FFF0A3740DF0A374AB800A
:1007580058900F5874FFF0A3740DF0A374C7804924
:10076800900F5874FFF0A3740DF0A374E3803A90CF
:100778000F5874FFF0A3740DF0A374FF802B900F33
:100788005874FFF0A3740EF0A3741B801C900F58CC
:1007980074FFF0A3740EF0A37437800D900F587493
:1007A800FFF0A3740EF0A37453F0900DF8E0FFA3CC
:1007B800E0900F5BCFF0A3EFF07B017A0E79431244
:1007C80020237B017A0E7943123ADA90084EE0240E
:0907D800FFF090084DE034FFF041
:1007E10090022FE07002A3E06033900E0CE0FEA3B4
:1007F100E0FF7C077DD01223A3ED4C7020900F58B1
:1008010074FFF0A3740EF0A3746FF07B017A0E797C
:10081100431220237B017A0E7943123ADA90085C65
:10082100E07002A3E070030209F4900E0CE0FEA355
:10083100E0FF7C4E7D201223A3ED4C60030209F4FE
:100841001240A0900BC1E07002A3E070030208EE19
:10085100E5206476701C7F36123F91900000EFF026
:10086100900F5874FFF0A3740EF0A3747FF0A3EF00
:100871008015900F5874FFF0A3740EF0A3748DF0DF
:10088100900000E0900F5BF07B017A0E794312201B
:1008910023900ECA74FFF0A3740EF0A37486F0A324
:1008A1007406F0A37401F0A3740EF0A37443F0A3D3
:1008B100E4F0A374D0F0A3E4F0A374A0F07BFF7A7A
:1008C1000B79D81236D6E5206476900F58700C74E7
:1008D100FFF0A3740EF0A3747F800A74FFF0A37479
:1008E1000EF0A3748DF0900000E00209B1E52064E0
:1008F10076702F7F36123F91900000EFF0900F58E5
:1009010074FFF0A3740EF0A3747FF0900000E07503
:10091100F009A4FFAEF07C007D0512234EEF2420E8
:100921008012900F5874FFF0A3740EF0A3748DF031
:10093100900000E0900F5BF07B017A0E794312206A
:1009410023900ECA74FFF0A3740EF0A37486F0A373
:100951007406F0A37401F0A3740EF0A37443F0A322
:10096100E4F0A374D0F0A3E4F0A374A0F07BFF7AC9
:100971000B79D81236D6E5206476900F5870227420
:10098100FFF0A3740EF0A3747FF0900000E075F007
:1009910009A4FFAEF07C007D0512234EEF242080D8
:1009A1000F74FFF0A3740EF0A3748DF0900000E0BB
:1009B100900F5BF07B017A0E7943122023900ECACF
:1009C10074FFF0A3740EF0A37486F0A37406F0A371
:1009D1007401F0A3740EF0A37443F0A37401F0A3A7
:1009E1007452F0A3E4F0A374A0F07BFF7A0B79D8E2
:1009F1001236D6201F03020AB1121B68EE600302F1
:100A01000AB1EF1224660A4A0B0A4F150A54160A54
:100A110059170A5E180A63190A681A0A6D1B0A72C5
:100A2100280A77290A7C2A0A812B0A862C0A8B320A
:100A31000A90330A95340A9A350A9F360AA4370A6E
:100A4100A9380AAE3900000AB11200038062123CD3
:100A510072805D1200398058123C118053123FB2EE
:100A6100804E123FD28049123FF280441225D1803C
:100A71003F123CCA803A123BAB8035123E80803037
:100A8100123EBE802B123D18802612410180211298
:100A910040F8801C1240DC80171240658012123E23
:100AA100EE800D1231BF8008122EED80031233202B
:100AB100900E0DE004F07006900E0CE004F00200C0
:010AC100B084
:10000300900F5874FFF0A3740EF0A37491F07B016A
:100013007A0E79871220237B017A0E7987023ADAE6
:101B6800900024E0FD646C704AA3E0646F7044A3A5
:101B7800E0B4613FE490085CF0A3F0900854F0A34F
:101B8800F0900231F0A3F090022FF0A3F0900E39FC
:101B9800F0A3F090084BF0A3F0900BC1F0A304F071
:101BA800E4900DFEF0A3F0900012F0A3F0C21FFE27
:101BB8007F0B22EDB46718900025E0B46511A3E00F
:101BC800B4740CA3E0B45F07C21F7E007F34229078
:101BD8000024E0B47316A3E0B47411A3E0B4610C5C
:101BE800A3E0B47207C21F7E007F3522900024E074
:101BF800646C6003021C90A3E064326003021C90D2
:101C0800A3E064346003021C90A3E064317079900F
:101C1800002AE0FB7013900029E024D0FEE434FF92
:101C280090086DF0A3CEF0805890002BE0F9701B5F
:101C3800900029E0FF7E007C007D0A12233CEB2FF8
:101C4800FFEC3ECF24F0CF34FD802F90002AE0FF38
:101C58007E007C007D0A12233CAA06AB079000296F
:101C6800E0FF7E007D6412233CEF2BFFEE3AFEE995
:101C78002FFFEC3ECF2430CF34EB90086DF0A3EF6C
:101C8800F0C21F7E007F3622900024E0646C705002
:101C9800A3E06432704AA3E064347044A3E0643380
:101CA800703E90002AE0FB9000297010E024D0FEDE
:101CB800E434FF90022DF0A3CEF0801DE0FF7E00FB
:101CC8007C007D0A12233CEB2FFFEC3ECF24F0CFA3
:101CD80034FD90022DF0A3EFF0C21F7E007F382262
:101CE800900024E0646C6003021D84A3E064326009
:101CF80003021D84A3E064346003021D84A3E0642E
:101D080032707990002AE0FB7013900029E024D00B
:101D1800FEE434FF900E10F0A3CEF0805890002B14
:101D2800E0F9701B900029E0FF7E007C007D0A121C
:101D3800233CEB2FFFEC3ECF24F0CF34FD802F90D7
:101D4800002AE0FF7E007C007D0A12233CAA06AB35
:101D580007900029E0FF7E007D6412233CEF2BFFF3
:101D6800EE3AFEE92FFFEC3ECF2430CF34EB900E55
:101D780010F0A3EFF0C21F7E007F3922900024E00C
:101D88006464707BA3E064747075A3E0645F706F33
:101D9800A3E0249F605924FD601E24FC603024FBCE
:101DA800603724FA603E24FA6019242C704A9000A7
:101DB80012E4F0A304F08040900012E4F0A374024F
:101DC800F08035900012E4F0A37403F0802A9000AC
:101DD80012E4F0A37404F0801F900012E4F0A374DE
:101DE80005F08014900012E4F0A37406F0800990C6
:101DF8000012E4F0A37407F0C21F7E007F37229020
:101E08000024E0FDB46516A3E0B46E11A3E0B46449
:101E18000CA3E0B46C07C21F7E007F1522ED646D31
:101E2800701D900025E0B47016A3E0B45F11A3E024
:101E3800B46C0CA3E0B46F07C21F7E007F1722901A
:101E480009B9E0B4FF1DA3E0B4FF18900027E0240F
:101E5800D0FEE434FF9009B9F0A3CEF0C21F7E0093
:101E68007F18229009BBE0B4FF1DA3E0B4FF1890CF
:101E78000027E024D0FEE434FF9009BBF0A3CEF0A5
:101E8800C21F7E007F19229009BDE0B4FF1DA3E0A8
:101E9800B4FF18900027E024D0FEE434FF9009BD79
:101EA800F0A3CEF0C21F7E007F1A229009BFE0B4D3
:101EB800FF1DA3E0B4FF18900027E024D0FEE4340F
:101EC800FF9009BFF0A3CEF0C21F7E007F1B2290B7
:101ED8000024E0646D701BA3E0B47016A3E0B45F47
:101EE80011A3E0B46D0CA3E0B46107C21F7E007FAC
:101EF8002822900024E0FDB46D16A3E0B47011A36D
:101F0800E0B45F0CA3E0B47407C21F7E007F2922EF
:101F1800ED646D701D900025E0B47016A3E0B45F09
:101F280011A3E0B46D0CA3E0B46F07C21F7E007F5D
:101F38002A22900024E0646D701BA3E0B47016A3FD
:101F4800E0B45F11A3E0B46C0CA3E0B46107C21F56
:101F58007E007F2B22900024E0FD646D701BA3E0BF
:101F6800B47016A3E0B45F11A3E0B4730CA3E0B49B
:101F78006507C21F7E007F2C22EDB46E18900025E5
:101F8800E0B47311A3E0B45F0CA3E0B46607C21F0A
:101F98007E007F3222900024E0B46E16A3E0B47372
:101FA80011A3E0B45F0CA3E0B46307C21F7E007FF7
:061FB8003322E4FEFF22CB
:103C7200900F5874FFF0A3740EF0A374B1F07B019F
:103C82007A09797812202374FF9009B9F0A3F0A37E
:103C9200F0A3F0A3F0A3F0A3F0A3F0E4900DFEF0E4
:103CA200A3F090084BF0A3F0900F5874FFF0A374A8
:103CB2000EF0A374B2F07B017A0E79871220237B77
:083CC200017A0E7987023ADA5B
:0100390022A4
:103C1100900E37E4F0A37405F0900F5874FFF0A3F1
:103C2100740EF0A374B1F07B017A09797812202324
:103C310074FF9009B9F0A3F0A3F0A3F0A3F0A3F0EF
:103C4100A3F0A3F0E4900DFEF0A3F090084BF0A3D5
:103C5100F0900F5874FFF0A3740EF0A374B2F07BD0
:103C6100017A0E79871220237B017A0E7987023A35
:013C7100DA78
:103FB200900F5874FFF0A3740EF0A374C8F07B0145
:103FC2007A0E79871220237B017A0E7987023ADAF8
:103FD200900F5874FFF0A3740EF0A374DDF07B0110
:103FE2007A0E79871220237B017A0E7987023ADAD8
:103FF200900F5874FFF0A3740EF0A374F2F07B01DB
:104002007A0E79871220237B017A0E7987023ADAB7
:1025D100900F5874FFF0A3740FF0A37407F07B0100
:1025E1007A0E7987122023123AD4900DFEE0700200
:1025F100A3E070409009B9E07004A3E06401703475
:102601009009BBE07004A3E0640270289009BDE06A
:102611007004A3E06403701C9009BFE07004A3E0A0
:1026210064047010900F5874FFF0A3740FF0A3743A
:102631001C022717900DFEE07002A3E07040900984
:10264100B9E07004A3E0640970349009BBE0700440
:10265100A3E0640970289009BDE07004A3E0640957
:10266100701C9009BFE07004A3E064097010900F22
:102671005874FFF0A3740FF0A37445022717900D4F
:10268100FEE07002A3E0703F9009B9E07004A3E09E
:10269100640170339009BBE07004A3E0640170270A
:1026A1009009BDE07004A3E06401701B9009BFE0D4
:1026B1007004A3E06401700F900F5874FFF0A374CD
:1026C1000FF0A3744E804F900DFEE07004A3E06400
:1026D1000160030227689009B9E07004A3E0640671
:1026E10060030227689009BBE07004A3E0640770EF
:1026F100769009BDE07004A3E06408706A9009BF98
:10270100E07004A3E06409705E900F5874FFF0A3B9
:10271100740FF0A37453F07B017A097978122023A6
:10272100900F5874FFF0A3740FF0A37422F0A374F8
:1027310001F0A37409F0A37478F07B017A0E798714
:10274100122023123AD4900F5874FFF0A3740FF0A3
:10275100A37430F07A0E7987122023123AD49008AC
:102761004BE4F0A304F022900F5874FFF0A3740F10
:10277100F0A3745CF07B017A0E7987122023123A60
:10278100D4900F5874FFF0A3740FF0A37467F07A1C
:102791000E7987122023123AD4900F5874FFF0A3B8
:1027A100740FF0A3746FF07A0E7987122023123A16
:1027B100D474FF9009B9F0A3F0A3F0A3F0A3F0A3A0
:1027C100F0A3F0A3F0900E38E024FFF0900E37E074
:1027D10034FFF0D3A3E09400900E37E0648094803E
:1027E1005018900DFEE4F0A304F0900F5874FFF020
:1027F100A3740FF0A37477F0801F900F5874FFF04B
:10280100A3740FF0A3748EF0900E37E0FFA3E09055
:102811000F5BCFF0A3EFF07B017A0E7987122023B3
:03282100123AD494
:012824002291
:01003A0022A3
:01007000226D
:01007100226C
:103CCA00E490085CF0A3F0900854F0A3F09002315D
:103CDA00F0A3F090022FF0A3F0900E39F0A3F09029
:103CEA000012F0A3F0900F5874FFF0A3740FF0A322
:103CFA007430F07B017A0E79871220237B017A0EC9
:0D3D0A007987123ADA90084BE4F0A304F038
:013D17002289
:103BAB00E490084BF0A3F0900F5874FFF0A3740F40
:103BBB00F0A374B0F07B017A0E79871220237B017E
:103BCB007A0E7987123ADA90085CE4F0A304F0904D
:103BDB000BC1E07002A3E0900F58700C74FFF0A3C0
:103BEB00740FF0A374C5800A74FFF0A3740FF0A3D5
:103BFB0074D4F07B017A0E79871220237B017A0E25
:053C0B007987123ADA8E
:013C10002291
:103E8000E490084BF0A3F0900858F0A3F090084D90
:103E9000F0A37414F0900F5874FFF0A3740FF0A304
:103EA00074E3F07B017A0E79871220237B017A0E6E
:0D3EB0007987123ADA900854E4F0A304F088
:013EBD0022E2
:103EBE00E490084BF0A3F0900F5874FFF0A3740F2A
:103ECE00F0A374F8F07B017A0E79871220237B0120
:0F3EDE007A0E7987123ADA90022FE4F0A304F0FB
:013EED0022B2
:103D1800E490084BF0A3F0900F5874FFF0A37410D0
:103D2800F0A3740EF090086DE0FFA3E0900F5BCF56
:103D3800F0A3EFF0900E10E0FFA3E0900F5DCFF03E
:103D4800A3EFF07B017A0E79871220237B017A0E8C
:0D3D58007987123ADA900E39E4F0A304F0F6
:013D6500223B
:08410100E4900BC1F0A3F022D1
:0940F800900BC1E4F0A304F022D6
:0F40DC00900859E004F07006900858E004F022B4
:10406500E4900858F0A3F090084DF0A37414F09074
:084075000231E4F0A304F02283
:103EEE00900F5874FFF0A37410F0A3742FF0900885
:103EFE006DE0FFA3E0900F5BCFF0A3EFF07B017AB4
:0F3F0E000E79871220237B017A0E7987023ADA27
:1031BF00900012E0FEA3E0FFEE600302331FEF1456
:1031CF00B40700400302331F9031E575F003A4C527
:1031DF008325F0C583730231FA02320E0232A9023F
:1031EF0032BC0232CF0232E202330A900F5874FF20
:1031FF00F0A37410F0A37447F09008530232F390C9
:10320F000853E0FF6401601DEF64036018EF64056D
:10321F006013EF6407600EEF64086009EF640A60E3
:10322F0004EFB40C14900F5874FFF0A37410F0A3B4
:10323F00746EF09008500232F3900853E0FF64046C
:10324F00600EEF64066009EF64096004EFB40B14BD
:10325F00900F5874FFF0A37410F0A37495F09008BA
:10326F00500232F3900853E06402701B900866E03E
:10327F0054037013900F5874FFF0A37410F0A374DD
:10328F00BCF0900850805D900F5874FFF0A374103D
:10329F00F0A374E3F0900850804A900F5874FFF039
:1032AF00A37411F0A3740AF09008668037900F583A
:1032BF0074FFF0A37410F0A37447F0900868802493
:1032CF00900F5874FFF0A37411F0A37431F09002B3
:1032DF00288011900F5874FFF0A37411F0A374316C
:1032EF00F0900E36E0900F5BF07B017A0E7987122B
:1032FF0020237B017A0E7987023ADA90022BE0B411
:10330F0050057441F0800690022B7450F0123A5819
:01331F00228B
:102EED00900012E0FEA3E0FFEE7055EF24FE601B94
:102EFD0014602314602B14603314603B2405704060
:102F0D0090022DA3E0900853F0803590022DA3E0A0
:102F1D00900850F0802A90022DA3E0900866F08072
:102F2D001F90022DA3E0900868F0801490022DA34D
:102F3D00E0900228F0800990022DA3E0900E36F06B
:102F4D00900853E0FF64016008EF64026003022FF4
:102F5D00E0900853E0F9240CFFE433FEEF25E0FF89
:102F6D00EE33FE900850E02401FDE433CD2FFBED50
:102F7D003EFAE9240DFFE433FE7C007D0312233C71
:102F8D007D0512234EEF2BFFEE3AFE900866E0F919
:102F9D0024FFFDE434FFFCEF2DFBEE3CFAEDAE0417
:102FAD007802CEC313CE13D8F92BFBEA3EFAE924EF
:102FBD00FFFFE434FFFE7C007D6412234EC3EB9FC4
:102FCD00FBEA9EFA900866E024FFFFE434FFFE7CE6
:102FDD00018061900853E02401FFE433FE7C007D05
:102FED000312233C7D0512234EAC06AD079008500D
:102FFD00E02401FBE433FA900853E075F002A42BB2
:10300D00FFE5F03ACF2DCF3CFE900866E0FD7A004B
:10301D002FFFEA3EFEED1313543F7C002FFFEC3ED5
:10302D00FEE0F975F06484FDC3EF9DFBEE9CFAE9BB
:10303D00FF7E000C7D9012234EEF2BFFEE3AFE7CAF
:0E304D00007D0712234E90086CEDF0023A58F9
:10332000900E10E0FEA3E0FFC39410EE6480948042
:103330005053900F5874FFF0A37411F0A37458F019
:10334000A3EEF0A3EFF07B017A0D79EF122023902A
:103350000F5874FFF0A37411F0A37458F0900E107E
:10336000E0FFA3E0900F5BCFF0A3EFF07B017A0EBC
:103370007914122023900F5874FFF0A37411F0A356
:10338000746002343D900E10E0FEA3E0FFD394EF92
:10339000EE64809480900F5874FF404DF0A3741138
:1033A000F0A37467F0A3EEF0A3EFF07B017A0D7940
:1033B000EF122023900F5874FFF0A37411F0A37440
:1033C00067F0900E10E0FFA3E0900F5BCFF0A3EF4B
:1033D000F07B017A0E7914122023900F5874FFF0BD
:1033E000A37411F0A3746E8054F0A37411F0A3744D
:1033F00067F0900E10E0FFA3E0900F5BCFF0A3EF1B
:10340000F07B017A0D79EF122023900F5874FFF0B2
:10341000A37411F0A37467F0900E10E0FFA3E09086
:103420000F5BCFF0A3EFF07B017A0E79141220230B
:10343000900F5874FFF0A37411F0A37460F0900E15
:1034400010E0FEA3E0FFC374FF9FFFE49EFE900F19
:103450005BF0A3EFF0A3EEF0A3EFF0A3EEF0A3EF89
:0A346000F07B017A0D79E4122023BD
:01346A00223F
:030000000239CCF6
:0C39CC00787FE4F6D8FD758125023A13DF
:10232300BB010689828A83E0225002E722BBFE02B8
:09233300E32289828A83E49322EB
:10233C00EF8DF0A4A8F0CF8CF0A428CE8DF0A42EB5
:02234C00FE226F
:10234E00BC000BBE0029EF8DF084FFADF022E4CC73
:10235E00F875F008EF2FFFEE33FEEC33FCEE9DEC3C
:10236E00984005FCEE9DFE0FD5F0E9E4CEFD22ED82
:10237E00F8F5F0EE8420D21CFEADF075F008EF2FCC
:10238E00FFED33FD4007985006D5F0F222C398FDBD
:05239E000FD5F0EA225A
:1023A300C2D5EC30E709B2D5E4C39DFDE49CFCEE55
:1023B30030E715B2D5E4C39FFFE49EFE12234EC35C
:1023C300E49DFDE49CFC800312234E30D507C3E457
:0623D3009FFFE49EFE22C4
:1023D900A3F8E0C5F025F0F0E582158270021583B7
:0623E900E0C838F0E82214
:103DFC00C2D5E830E70FB2D5E4C39BFBE49AFAE4F2
:103E0C0099F9E498F8EC30E717B2D5123E32122546
:103E1C0007E4C39BFBE49AFAE499F9E498F880036D
:103E2C0012250730D50DE4C39FFFE49EFEE49DFDF3
:043E3C00E49CFC22E4
:1023EF00EB9FF5F0EA9E42F0E99D42F0E89C45F044
:0123FF0022BB
:102400007401FF3395E0FEFDFCA3A3A3E0CF2FF002
:10241000E582158270021583E0CE3EF0E5821582DA
:1024200070021583E0CD3DF0E582158270021583C0
:05243000E0CC3CF022AD
:10243500A8828583F0D083D08212244C12244C12BA
:10244500244C12244CE473E493A3C583C5F0C583DF
:10245500C8C582C8F0A3C583C5F0C583C8C582C8F1
:012465002254
:10246600D083D082F8E4937012740193700DA3A305
:1024760093F8740193F5828883E473740293686019
:06248600EFA3A3A380DF19
:101FBE00E5082458F582E4340FF583E005082290F5
:101FCE000F55302C03900F58E475F0011225B10215
:101FDE0023232025E97F2ED2258018EF540F24903D
:101FEE00D43440D4FF30290BEF24BFB41A00500371
:101FFE002461FFE50960021509050CE50C70020568
:10200E000B302C0E900F55E475F0011225B1EF0236
:10201E0024B9023F447403D22C8003E4C22CF50889
:10202E00900F551225C8E4F509F50BF50CE509607E
:10203E00077F2012200180F5750AFFC226C225C235
:10204E0027C228C22AC22BC22D121FCDFF700D30FF
:10205E002C057F00122012AF0CAE0B22B4255FC2EE
:10206E00D5C229121FCDFF24D0B40A00501A75F024
:10207E000A780930D50508B6FF0106C6A426F62053
:10208E00D5047002D22880D924CFB41A00EF5004A0
:10209E00C2E5D229022213D22680C6D22580C0D212
:1020AE002780BCD2D580BAD22A80B47F20122001DC
:1020BE002027077401B5090040F1121FBEFF122040
:1020CE000102203BD22DD22B8095121FBEFB121F78
:1020DE00BEFA121FBEF94A4B700679E47A227BFFD4
:1020EE0020272EE509602A7E008E82758300122439
:1020FE008C60060EEE650A70F0C2D5EBC0E0EAC049
:10210E00E0E9C0E0EE12225AD0E0F9D0E0FAD0E0D9
:10211E00FB122323FF60AAEBC0E0EAC0E0E9C0E0B7
:10212E00122001D0E02401F9D0E03400FAD0E0FB17
:10213E00E50A0460DCD50AD980877BFF7A227956BE
:10214E00D227809C791080027908C22BC22D80087C
:10215E00D2D5790A8004790AC2D5E50A047002F54F
:10216E000AE4FAFDFEFF121FBEFC7B0820261312A6
:10217E001FBEFD7B1030250A121FBEFE121FBEFFB2
:10218E007B20EC3382D592D55013C3E43025069FC5
:10219E00FFE49EFEE42026039DFDE49CFCE4CBF8C8
:1021AE00C226EC700CCFCECDCCE824F8F870F380BC
:1021BE0017C3EF33FFEE33FEED33FDEC33FCEB33A1
:1021CE00FB994002FB0FD8E9EB302605F8D0E0C4AE
:1021DE0048B226C0E00AEC4D4E4F78207B0070C20C
:1021EE00EAB50A0040BCC0E012225CD0F0D0E0207C
:1021FE002604C4C0E0C4B226C0F0121FEAD0F0D547
:10220E00F0EB02203B12246620D85321525820A90D
:10221E004C20A54221564F215E44215E4920BE43EB
:08222E002164552148462148B6
:102236004521484723045020AD2D20B12E20D42B14
:1022460020B52320D22022ED2A206D48000020CC84
:102256003F3F3F00790AA2D5202814302A09B91039
:10226600020404B9080104A2D5202B02500104205F
:1022760027689227B509005034C0E07F203028191E
:102286007F30A227722B722A500F1222B3C227C2A6
:102296002BC22AC22D7F30800F302A03E9C0E012FC
:1022A6002001302A03D0E0F9D0E0B509CC302A1756
:1022B6007F30B9100C1220017F583029077F7880B3
:1022C60003B908031220013027057F2D0220017F64
:1022D60020202DF87F2B202BF322922780CF286EEB
:1022E600756C6C2900D226121FBE3026F8C22678DD
:1022F6000930D50108F602206D2D50434958121FAA
:10230600BE2403B405004001E49022FF93121FF29D
:0D231600743A121FF2D228750904022152F8
:103D660090113F1225997810EC4D4E4F70047CA5AA
:103D76007DA5C3EC13FCED13FDEE13FEEF13FF5010
:103D860010EC64CCFCED644CFDEE644EFEEF64CEAC
:103D9600FFD8DF90113F1225A5EE547FFE22901129
:0D3DA6003FEEF0EFA3F0A374A5F0A3F02210
:1039D800020076E493A3F8E493A34003F68001F28F
:1039E80008DFF48029E493A3F85407240CC8C333F0
:1039F800C4540F4420C8834004F456800146F6DFBF
:103A0800E4800B01020408102040809035A1E47E78
:103A1800019360BCA3FF543F30E509541FFEE493B3
:103A2800A360010ECF54C025E060A840B8E493A37A
:103A3800FAE493A3F8E493A3C8C582C8CAC583CAA5
:103A4800F0A3C8C582C8CAC583CADFE9DEE780BE5D
:0136C0000009
:10248C00BB010CE58229F582E5833AF583E0225005
:10249C0006E92582F8E622BBFE06E92582F8E2224F
:0D24AC00E58229F582E5833AF583E4932269
:1024B900BB010689828A83F0225002F722BBFE0102
:0224C900F322FC
:1024CB0075F008758200EF2FFFEE33FECD33CDCCC8
:1024DB0033CCC58233C5829BED9AEC99E58298404B
:1024EB000CF582EE9BFEED9AFDEC99FC0FD5F0D628
:1024FB00E4CEFBE4CDFAE4CCF9A88222B800C1B952
:10250B000059BA002DEC8BF084CFCECDFCE5F0CB8F
:10251B00F97818EF2FFFEE33FEED33FDEC33FCEBC8
:10252B0033FB10D703994004EB99FB0FD8E5E4F983
:10253B00FA227818EF2FFFEE33FEED33FDEC33FC70
:10254B00C933C910D7059BE99A4007EC9BFCE99A64
:10255B00F90FD8E0E4C9FAE4CCFB2275F010EF2FA9
:10256B00FFEE33FEED33FDCC33CCC833C810D707A9
:10257B009BEC9AE899400AED9BFDEC9AFCE899F8E4
:0E258B000FD5F0DAE4CDFBE4CCFAE4C8F92277
:0C259900E0FCA3E0FDA3E0FEA3E0FF22B5
:0C25A500ECF0A3EDF0A3EEF0A3EFF022A9
:1025B100F8E0FBA3A3E0F925F0F0E58215827002B3
:0725C1001583E0FA38F02257
:0925C800EBF0A3EAF0A3E9F02214
:103F4400EFB40A07740D123F4F740A309811A89900
:103F5400B8130CC2983098FDA899C298B811F630DD
:073F640099FDC299F59922B5
:00000001FF
